{"contracts/X402PaymentProcessor.sol":{"X402PaymentProcessor":{"abi":[{"inputs":[{"internalType":"address","name":"initialOwner","type":"address"}],"stateMutability":"nonpayable","type":"constructor"},{"inputs":[{"internalType":"address","name":"owner","type":"address"}],"name":"OwnableInvalidOwner","type":"error"},{"inputs":[{"internalType":"address","name":"account","type":"address"}],"name":"OwnableUnauthorizedAccount","type":"error"},{"inputs":[],"name":"ReentrancyGuardReentrantCall","type":"error"},{"anonymous":false,"inputs":[{"indexed":true,"internalType":"address","name":"facilitator","type":"address"}],"name":"FacilitatorAuthorized","type":"event"},{"anonymous":false,"inputs":[{"indexed":true,"internalType":"address","name":"facilitator","type":"address"}],"name":"FacilitatorDeauthorized","type":"event"},{"anonymous":false,"inputs":[{"indexed":true,"internalType":"address","name":"previousOwner","type":"address"},{"indexed":true,"internalType":"address","name":"newOwner","type":"address"}],"name":"OwnershipTransferred","type":"event"},{"anonymous":false,"inputs":[{"indexed":true,"internalType":"address","name":"from","type":"address"},{"indexed":true,"internalType":"address","name":"to","type":"address"},{"indexed":false,"internalType":"uint256","name":"amount","type":"uint256"},{"indexed":true,"internalType":"bytes32","name":"nonce","type":"bytes32"},{"indexed":false,"internalType":"address","name":"token","type":"address"}],"name":"PaymentSettled","type":"event"},{"anonymous":false,"inputs":[{"indexed":true,"internalType":"address","name":"token","type":"address"}],"name":"TokenAdded","type":"event"},{"anonymous":false,"inputs":[{"indexed":true,"internalType":"address","name":"token","type":"address"}],"name":"TokenRemoved","type":"event"},{"inputs":[{"internalType":"address","name":"","type":"address"}],"name":"acceptedTokens","outputs":[{"internalType":"bool","name":"","type":"bool"}],"stateMutability":"view","type":"function"},{"inputs":[{"internalType":"address","name":"token","type":"address"}],"name":"addAcceptedToken","outputs":[],"stateMutability":"nonpayable","type":"function"},{"inputs":[{"internalType":"address","name":"facilitator","type":"address"}],"name":"authorizeFacilitator","outputs":[],"stateMutability":"nonpayable","type":"function"},{"inputs":[{"internalType":"address","name":"","type":"address"}],"name":"authorizedFacilitators","outputs":[{"internalType":"bool","name":"","type":"bool"}],"stateMutability":"view","type":"function"},{"inputs":[{"internalType":"address","name":"facilitator","type":"address"}],"name":"deauthorizeFacilitator","outputs":[],"stateMutability":"nonpayable","type":"function"},{"inputs":[{"internalType":"address","name":"token","type":"address"},{"components":[{"internalType":"address","name":"from","type":"address"},{"internalType":"address","name":"to","type":"address"},{"internalType":"uint256","name":"value","type":"uint256"},{"internalType":"uint48","name":"validAfter","type":"uint48"},{"internalType":"uint48","name":"validBefore","type":"uint48"},{"internalType":"bytes32","name":"nonce","type":"bytes32"}],"internalType":"struct X402PaymentProcessor.PaymentAuthorization","name":"auth","type":"tuple"},{"internalType":"bytes","name":"signature","type":"bytes"}],"name":"isPaymentValid","outputs":[{"internalType":"bool","name":"","type":"bool"},{"internalType":"string","name":"","type":"string"}],"stateMutability":"view","type":"function"},{"inputs":[],"name":"owner","outputs":[{"internalType":"address","name":"","type":"address"}],"stateMutability":"view","type":"function"},{"inputs":[{"internalType":"address","name":"token","type":"address"}],"name":"removeAcceptedToken","outputs":[],"stateMutability":"nonpayable","type":"function"},{"inputs":[],"name":"renounceOwnership","outputs":[],"stateMutability":"nonpayable","type":"function"},{"inputs":[{"internalType":"address","name":"token","type":"address"},{"components":[{"internalType":"address","name":"from","type":"address"},{"internalType":"address","name":"to","type":"address"},{"internalType":"uint256","name":"value","type":"uint256"},{"internalType":"uint48","name":"validAfter","type":"uint48"},{"internalType":"uint48","name":"validBefore","type":"uint48"},{"internalType":"bytes32","name":"nonce","type":"bytes32"}],"internalType":"struct X402PaymentProcessor.PaymentAuthorization","name":"auth","type":"tuple"},{"internalType":"bytes","name":"signature","type":"bytes"}],"name":"settlePayment","outputs":[],"stateMutability":"nonpayable","type":"function"},{"inputs":[{"internalType":"address","name":"token","type":"address"},{"components":[{"internalType":"address","name":"from","type":"address"},{"internalType":"address","name":"to","type":"address"},{"internalType":"uint256","name":"value","type":"uint256"},{"internalType":"uint48","name":"validAfter","type":"uint48"},{"internalType":"uint48","name":"validBefore","type":"uint48"},{"internalType":"bytes32","name":"nonce","type":"bytes32"}],"internalType":"struct X402PaymentProcessor.PaymentAuthorization","name":"auth","type":"tuple"},{"internalType":"bytes","name":"signature","type":"bytes"}],"name":"settlePaymentViaFacilitator","outputs":[],"stateMutability":"nonpayable","type":"function"},{"inputs":[{"internalType":"address","name":"newOwner","type":"address"}],"name":"transferOwnership","outputs":[],"stateMutability":"nonpayable","type":"function"},{"inputs":[{"internalType":"bytes32","name":"","type":"bytes32"}],"name":"usedNonces","outputs":[{"internalType":"bool","name":"","type":"bool"}],"stateMutability":"view","type":"function"}],"evm":{"bytecode":{"linkReferences":{},"object":"608060405234801561001057600080fd5b50604051610f39380380610f3983398101604081905261002f916100e2565b806001600160a01b03811661005e57604051631e4fbdf760e01b81526000600482015260240160405180910390fd5b61006781610092565b5060017f9b779b17422d0df92223018b32b4d1fa46e071723d6817e2486d003becc55f005550610112565b600080546001600160a01b038381166001600160a01b0319831681178455604051919092169283917f8be0079c531659141344cd1fd0a4f28419497f9722a3daafe3b4186f6b6457e09190a35050565b6000602082840312156100f457600080fd5b81516001600160a01b038116811461010b57600080fd5b9392505050565b610e18806101216000396000f3fe608060405234801561001057600080fd5b50600436106100cf5760003560e01c80639925a3661161008c578063d969729611610066578063d9697296146101b3578063ecf7df59146101d4578063f2fde38b146101e7578063feb61724146101fa57600080fd5b80639925a3661461016a578063c57beae41461017d578063d8134a23146101a057600080fd5b80633eee83f1146100d457806365262fda146100e95780636f1d9d3a146100fc578063715018a61461010f57806382dc4a05146101175780638da5cb5b1461014f575b600080fd5b6100e76100e2366004610c6a565b61021d565b005b6100e76100f7366004610c6a565b610271565b6100e761010a366004610c6a565b6102c2565b6100e7610316565b61013a610125366004610c6a565b60026020526000908152604090205460ff1681565b60405190151581526020015b60405180910390f35b6000546040516001600160a01b039091168152602001610146565b6100e7610178366004610c8c565b61032a565b61013a61018b366004610c6a565b60036020526000908152604090205460ff1681565b6100e76101ae366004610c6a565b6106a1565b6101c66101c1366004610c8c565b6106f2565b604051610146929190610d27565b6100e76101e2366004610c8c565b6108e3565b6100e76101f5366004610c6a565b61094a565b61013a610208366004610d7f565b60016020526000908152604090205460ff1681565b610225610988565b6001600160a01b038116600081815260026020526040808220805460ff19166001179055517f784c8f4dbf0ffedd6e72c76501c545a70f8b203b30a26ce542bf92ba87c248a49190a250565b610279610988565b6001600160a01b038116600081815260036020526040808220805460ff19169055517f07b0fec51e370726e77fd848e73b45db27bddf4a65b5e4156edeff04ccad79249190a250565b6102ca610988565b6001600160a01b038116600081815260036020526040808220805460ff19166001179055517f412732af83f86aaedbb379f396001acf2e6b50f531ea358b05a9527f4d020e3b9190a250565b61031e610988565b61032860006109b5565b565b610332610a05565b6001600160a01b03841660009081526002602052604090205460ff166103945760405162461bcd60e51b8152602060048201526012602482015271151bdad95b881b9bdd081858d8d95c1d195960721b60448201526064015b60405180910390fd5b60a083013560009081526001602052604090205460ff16156103ed5760405162461bcd60e51b8152602060048201526012602482015271139bdb98d948185b1c9958591e481d5cd95960721b604482015260640161038b565b6103fd6080840160608501610d98565b65ffffffffffff1642101561044c5760405162461bcd60e51b815260206004820152601560248201527414185e5b595b9d081b9bdd081e595d081d985b1a59605a1b604482015260640161038b565b61045c60a0840160808501610d98565b65ffffffffffff164211156104a55760405162461bcd60e51b815260206004820152600f60248201526e14185e5b595b9d08195e1c1a5c9959608a1b604482015260640161038b565b60006104b084610a33565b905060006104bf828585610adf565b90506104ce6020860186610c6a565b6001600160a01b0316816001600160a01b0316146105225760405162461bcd60e51b8152602060048201526011602482015270496e76616c6964207369676e617475726560781b604482015260640161038b565b60a08501356000908152600160208181526040909220805460ff191690911790556001600160a01b038716906323b872dd9061056090880188610c6a565b6105706040890160208a01610c6a565b604080516001600160e01b031960e086901b1681526001600160a01b03938416600482015292909116602483015288013560448201526064016020604051808303816000875af11580156105c8573d6000803e3d6000fd5b505050506040513d601f19601f820116820180604052508101906105ec9190610dc0565b5060a08501356106026040870160208801610c6a565b6001600160a01b03166106186020880188610c6a565b6001600160a01b03167fafa4c5710c7d3319301c7f48b17b00e017c9689c65488e9e63ae5150dcd8c1ff88604001358a6040516106689291909182526001600160a01b0316602082015260400190565b60405180910390a4505061069b60017f9b779b17422d0df92223018b32b4d1fa46e071723d6817e2486d003becc55f0055565b50505050565b6106a9610988565b6001600160a01b038116600081815260026020526040808220805460ff19169055517f4c910b69fe65a61f7531b9c5042b2329ca7179c77290aa7e2eb3afa3c8511fd39190a250565b6001600160a01b03841660009081526002602052604081205460609060ff16610748575050604080518082019091526012815271151bdad95b881b9bdd081858d8d95c1d195960721b60208201526000906108da565b60a085013560009081526001602052604090205460ff1615610797575050604080518082019091526012815271139bdb98d948185b1c9958591e481d5cd95960721b60208201526000906108da565b6107a76080860160608701610d98565b65ffffffffffff164210156107ec57505060408051808201909152601581527414185e5b595b9d081b9bdd081e595d081d985b1a59605a1b60208201526000906108da565b6107fc60a0860160808701610d98565b65ffffffffffff1642111561083b57505060408051808201909152600f81526e14185e5b595b9d08195e1c1a5c9959608a1b60208201526000906108da565b600061084686610a33565b90506000610855828787610adf565b90506108646020880188610c6a565b6001600160a01b0316816001600160a01b0316146108b357600060405180604001604052806011815260200170496e76616c6964207369676e617475726560781b8152509350935050506108da565b60016040518060400160405280600581526020016415985b1a5960da1b8152509350935050505b94509492505050565b6108eb610a05565b3360009081526003602052604090205460ff166103325760405162461bcd60e51b815260206004820152601a60248201527f4e6f7420617574686f72697a656420666163696c697461746f72000000000000604482015260640161038b565b610952610988565b6001600160a01b03811661097c57604051631e4fbdf760e01b81526000600482015260240161038b565b610985816109b5565b50565b6000546001600160a01b031633146103285760405163118cdaa760e01b815233600482015260240161038b565b600080546001600160a01b038381166001600160a01b0319831681178455604051919092169283917f8be0079c531659141344cd1fd0a4f28419497f9722a3daafe3b4186f6b6457e09190a35050565b610a0d610b43565b60027f9b779b17422d0df92223018b32b4d1fa46e071723d6817e2486d003becc55f0055565b6000610a426020830183610c6a565b610a526040840160208501610c6a565b6040840135610a676080860160608701610d98565b610a7760a0870160808801610d98565b604080516001600160a01b0396871660208201529590941693850193909352606084019190915265ffffffffffff90811660808401521660a08281019190915283013560c082015260e001604051602081830303815290604052805190602001209050919050565b6040517f19457468657265756d205369676e6564204d6573736167653a0a3332000000006020820152603c81018490526000908190605c01604051602081830303815290604052805190602001209050610b3a818585610b85565b95945050505050565b7f9b779b17422d0df92223018b32b4d1fa46e071723d6817e2486d003becc55f005460020361032857604051633ee5aeb560e01b815260040160405180910390fd5b600060418214610bd75760405162461bcd60e51b815260206004820152601860248201527f496e76616c6964207369676e6174757265206c656e6774680000000000000000604482015260640161038b565b60408051600080825260208083018085528890528684013590911a92820183905285356060830181905290860135608083018190529092909160019060a0016020604051602081039080840390855afa158015610c38573d6000803e3d6000fd5b5050604051601f19015198975050505050505050565b80356001600160a01b0381168114610c6557600080fd5b919050565b600060208284031215610c7c57600080fd5b610c8582610c4e565b9392505050565b600080600080848603610100811215610ca457600080fd5b610cad86610c4e565b945060c0601f1982011215610cc157600080fd5b5060208501925060e085013567ffffffffffffffff80821115610ce357600080fd5b818701915087601f830112610cf757600080fd5b813581811115610d0657600080fd5b886020828501011115610d1857600080fd5b95989497505060200194505050565b821515815260006020604081840152835180604085015260005b81811015610d5d57858101830151858201606001528201610d41565b506000606082860101526060601f19601f830116850101925050509392505050565b600060208284031215610d9157600080fd5b5035919050565b600060208284031215610daa57600080fd5b813565ffffffffffff81168114610c8557600080fd5b600060208284031215610dd257600080fd5b81518015158114610c8557600080fdfea2646970667358221220e63ac88ce15e1840c194a74052eb763ae4c10c5c43d1ff1ba349b4686b8daa5764736f6c63430008140033","opcodes":"PUSH1 0x80 PUSH1 0x40 MSTORE CALLVALUE DUP1 ISZERO PUSH2 0x10 JUMPI PUSH1 0x0 DUP1 REVERT JUMPDEST POP PUSH1 0x40 MLOAD PUSH2 0xF39 CODESIZE SUB DUP1 PUSH2 0xF39 DUP4 CODECOPY DUP2 ADD PUSH1 0x40 DUP2 SWAP1 MSTORE PUSH2 0x2F SWAP2 PUSH2 0xE2 JUMP JUMPDEST DUP1 PUSH1 0x1 PUSH1 0x1 PUSH1 0xA0 SHL SUB DUP2 AND PUSH2 0x5E JUMPI PUSH1 0x40 MLOAD PUSH4 0x1E4FBDF7 PUSH1 0xE0 SHL DUP2 MSTORE PUSH1 0x0 PUSH1 0x4 DUP3 ADD MSTORE PUSH1 0x24 ADD PUSH1 0x40 MLOAD DUP1 SWAP2 SUB SWAP1 REVERT JUMPDEST PUSH2 0x67 DUP2 PUSH2 0x92 JUMP JUMPDEST POP PUSH1 0x1 PUSH32 0x9B779B17422D0DF92223018B32B4D1FA46E071723D6817E2486D003BECC55F00 SSTORE POP PUSH2 0x112 JUMP JUMPDEST PUSH1 0x0 DUP1 SLOAD PUSH1 0x1 PUSH1 0x1 PUSH1 0xA0 SHL SUB DUP4 DUP2 AND PUSH1 0x1 PUSH1 0x1 PUSH1 0xA0 SHL SUB NOT DUP4 AND DUP2 OR DUP5 SSTORE PUSH1 0x40 MLOAD SWAP2 SWAP1 SWAP3 AND SWAP3 DUP4 SWAP2 PUSH32 0x8BE0079C531659141344CD1FD0A4F28419497F9722A3DAAFE3B4186F6B6457E0 SWAP2 SWAP1 LOG3 POP POP JUMP JUMPDEST PUSH1 0x0 PUSH1 0x20 DUP3 DUP5 SUB SLT ISZERO PUSH2 0xF4 JUMPI PUSH1 0x0 DUP1 REVERT JUMPDEST DUP2 MLOAD PUSH1 0x1 PUSH1 0x1 PUSH1 0xA0 SHL SUB DUP2 AND DUP2 EQ PUSH2 0x10B JUMPI PUSH1 0x0 DUP1 REVERT JUMPDEST SWAP4 SWAP3 POP POP POP JUMP JUMPDEST PUSH2 0xE18 DUP1 PUSH2 0x121 PUSH1 0x0 CODECOPY PUSH1 0x0 RETURN INVALID PUSH1 0x80 PUSH1 0x40 MSTORE CALLVALUE DUP1 ISZERO PUSH2 0x10 JUMPI PUSH1 0x0 DUP1 REVERT JUMPDEST POP PUSH1 0x4 CALLDATASIZE LT PUSH2 0xCF JUMPI PUSH1 0x0 CALLDATALOAD PUSH1 0xE0 SHR DUP1 PUSH4 0x9925A366 GT PUSH2 0x8C JUMPI DUP1 PUSH4 0xD9697296 GT PUSH2 0x66 JUMPI DUP1 PUSH4 0xD9697296 EQ PUSH2 0x1B3 JUMPI DUP1 PUSH4 0xECF7DF59 EQ PUSH2 0x1D4 JUMPI DUP1 PUSH4 0xF2FDE38B EQ PUSH2 0x1E7 JUMPI DUP1 PUSH4 0xFEB61724 EQ PUSH2 0x1FA JUMPI PUSH1 0x0 DUP1 REVERT JUMPDEST DUP1 PUSH4 0x9925A366 EQ PUSH2 0x16A JUMPI DUP1 PUSH4 0xC57BEAE4 EQ PUSH2 0x17D JUMPI DUP1 PUSH4 0xD8134A23 EQ PUSH2 0x1A0 JUMPI PUSH1 0x0 DUP1 REVERT JUMPDEST DUP1 PUSH4 0x3EEE83F1 EQ PUSH2 0xD4 JUMPI DUP1 PUSH4 0x65262FDA EQ PUSH2 0xE9 JUMPI DUP1 PUSH4 0x6F1D9D3A EQ PUSH2 0xFC JUMPI DUP1 PUSH4 0x715018A6 EQ PUSH2 0x10F JUMPI DUP1 PUSH4 0x82DC4A05 EQ PUSH2 0x117 JUMPI DUP1 PUSH4 0x8DA5CB5B EQ PUSH2 0x14F JUMPI JUMPDEST PUSH1 0x0 DUP1 REVERT JUMPDEST PUSH2 0xE7 PUSH2 0xE2 CALLDATASIZE PUSH1 0x4 PUSH2 0xC6A JUMP JUMPDEST PUSH2 0x21D JUMP JUMPDEST STOP JUMPDEST PUSH2 0xE7 PUSH2 0xF7 CALLDATASIZE PUSH1 0x4 PUSH2 0xC6A JUMP JUMPDEST PUSH2 0x271 JUMP JUMPDEST PUSH2 0xE7 PUSH2 0x10A CALLDATASIZE PUSH1 0x4 PUSH2 0xC6A JUMP JUMPDEST PUSH2 0x2C2 JUMP JUMPDEST PUSH2 0xE7 PUSH2 0x316 JUMP JUMPDEST PUSH2 0x13A PUSH2 0x125 CALLDATASIZE PUSH1 0x4 PUSH2 0xC6A JUMP JUMPDEST PUSH1 0x2 PUSH1 0x20 MSTORE PUSH1 0x0 SWAP1 DUP2 MSTORE PUSH1 0x40 SWAP1 KECCAK256 SLOAD PUSH1 0xFF AND DUP2 JUMP JUMPDEST PUSH1 0x40 MLOAD SWAP1 ISZERO ISZERO DUP2 MSTORE PUSH1 0x20 ADD JUMPDEST PUSH1 0x40 MLOAD DUP1 SWAP2 SUB SWAP1 RETURN JUMPDEST PUSH1 0x0 SLOAD PUSH1 0x40 MLOAD PUSH1 0x1 PUSH1 0x1 PUSH1 0xA0 SHL SUB SWAP1 SWAP2 AND DUP2 MSTORE PUSH1 0x20 ADD PUSH2 0x146 JUMP JUMPDEST PUSH2 0xE7 PUSH2 0x178 CALLDATASIZE PUSH1 0x4 PUSH2 0xC8C JUMP JUMPDEST PUSH2 0x32A JUMP JUMPDEST PUSH2 0x13A PUSH2 0x18B CALLDATASIZE PUSH1 0x4 PUSH2 0xC6A JUMP JUMPDEST PUSH1 0x3 PUSH1 0x20 MSTORE PUSH1 0x0 SWAP1 DUP2 MSTORE PUSH1 0x40 SWAP1 KECCAK256 SLOAD PUSH1 0xFF AND DUP2 JUMP JUMPDEST PUSH2 0xE7 PUSH2 0x1AE CALLDATASIZE PUSH1 0x4 PUSH2 0xC6A JUMP JUMPDEST PUSH2 0x6A1 JUMP JUMPDEST PUSH2 0x1C6 PUSH2 0x1C1 CALLDATASIZE PUSH1 0x4 PUSH2 0xC8C JUMP JUMPDEST PUSH2 0x6F2 JUMP JUMPDEST PUSH1 0x40 MLOAD PUSH2 0x146 SWAP3 SWAP2 SWAP1 PUSH2 0xD27 JUMP JUMPDEST PUSH2 0xE7 PUSH2 0x1E2 CALLDATASIZE PUSH1 0x4 PUSH2 0xC8C JUMP JUMPDEST PUSH2 0x8E3 JUMP JUMPDEST PUSH2 0xE7 PUSH2 0x1F5 CALLDATASIZE PUSH1 0x4 PUSH2 0xC6A JUMP JUMPDEST PUSH2 0x94A JUMP JUMPDEST PUSH2 0x13A PUSH2 0x208 CALLDATASIZE PUSH1 0x4 PUSH2 0xD7F JUMP JUMPDEST PUSH1 0x1 PUSH1 0x20 MSTORE PUSH1 0x0 SWAP1 DUP2 MSTORE PUSH1 0x40 SWAP1 KECCAK256 SLOAD PUSH1 0xFF AND DUP2 JUMP JUMPDEST PUSH2 0x225 PUSH2 0x988 JUMP JUMPDEST PUSH1 0x1 PUSH1 0x1 PUSH1 0xA0 SHL SUB DUP2 AND PUSH1 0x0 DUP2 DUP2 MSTORE PUSH1 0x2 PUSH1 0x20 MSTORE PUSH1 0x40 DUP1 DUP3 KECCAK256 DUP1 SLOAD PUSH1 0xFF NOT AND PUSH1 0x1 OR SWAP1 SSTORE MLOAD PUSH32 0x784C8F4DBF0FFEDD6E72C76501C545A70F8B203B30A26CE542BF92BA87C248A4 SWAP2 SWAP1 LOG2 POP JUMP JUMPDEST PUSH2 0x279 PUSH2 0x988 JUMP JUMPDEST PUSH1 0x1 PUSH1 0x1 PUSH1 0xA0 SHL SUB DUP2 AND PUSH1 0x0 DUP2 DUP2 MSTORE PUSH1 0x3 PUSH1 0x20 MSTORE PUSH1 0x40 DUP1 DUP3 KECCAK256 DUP1 SLOAD PUSH1 0xFF NOT AND SWAP1 SSTORE MLOAD PUSH32 0x7B0FEC51E370726E77FD848E73B45DB27BDDF4A65B5E4156EDEFF04CCAD7924 SWAP2 SWAP1 LOG2 POP JUMP JUMPDEST PUSH2 0x2CA PUSH2 0x988 JUMP JUMPDEST PUSH1 0x1 PUSH1 0x1 PUSH1 0xA0 SHL SUB DUP2 AND PUSH1 0x0 DUP2 DUP2 MSTORE PUSH1 0x3 PUSH1 0x20 MSTORE PUSH1 0x40 DUP1 DUP3 KECCAK256 DUP1 SLOAD PUSH1 0xFF NOT AND PUSH1 0x1 OR SWAP1 SSTORE MLOAD PUSH32 0x412732AF83F86AAEDBB379F396001ACF2E6B50F531EA358B05A9527F4D020E3B SWAP2 SWAP1 LOG2 POP JUMP JUMPDEST PUSH2 0x31E PUSH2 0x988 JUMP JUMPDEST PUSH2 0x328 PUSH1 0x0 PUSH2 0x9B5 JUMP JUMPDEST JUMP JUMPDEST PUSH2 0x332 PUSH2 0xA05 JUMP JUMPDEST PUSH1 0x1 PUSH1 0x1 PUSH1 0xA0 SHL SUB DUP5 AND PUSH1 0x0 SWAP1 DUP2 MSTORE PUSH1 0x2 PUSH1 0x20 MSTORE PUSH1 0x40 SWAP1 KECCAK256 SLOAD PUSH1 0xFF AND PUSH2 0x394 JUMPI PUSH1 0x40 MLOAD PUSH3 0x461BCD PUSH1 0xE5 SHL DUP2 MSTORE PUSH1 0x20 PUSH1 0x4 DUP3 ADD MSTORE PUSH1 0x12 PUSH1 0x24 DUP3 ADD MSTORE PUSH18 0x151BDAD95B881B9BDD081858D8D95C1D1959 PUSH1 0x72 SHL PUSH1 0x44 DUP3 ADD MSTORE PUSH1 0x64 ADD JUMPDEST PUSH1 0x40 MLOAD DUP1 SWAP2 SUB SWAP1 REVERT JUMPDEST PUSH1 0xA0 DUP4 ADD CALLDATALOAD PUSH1 0x0 SWAP1 DUP2 MSTORE PUSH1 0x1 PUSH1 0x20 MSTORE PUSH1 0x40 SWAP1 KECCAK256 SLOAD PUSH1 0xFF AND ISZERO PUSH2 0x3ED JUMPI PUSH1 0x40 MLOAD PUSH3 0x461BCD PUSH1 0xE5 SHL DUP2 MSTORE PUSH1 0x20 PUSH1 0x4 DUP3 ADD MSTORE PUSH1 0x12 PUSH1 0x24 DUP3 ADD MSTORE PUSH18 0x139BDB98D948185B1C9958591E481D5CD959 PUSH1 0x72 SHL PUSH1 0x44 DUP3 ADD MSTORE PUSH1 0x64 ADD PUSH2 0x38B JUMP JUMPDEST PUSH2 0x3FD PUSH1 0x80 DUP5 ADD PUSH1 0x60 DUP6 ADD PUSH2 0xD98 JUMP JUMPDEST PUSH6 0xFFFFFFFFFFFF AND TIMESTAMP LT ISZERO PUSH2 0x44C JUMPI PUSH1 0x40 MLOAD PUSH3 0x461BCD PUSH1 0xE5 SHL DUP2 MSTORE PUSH1 0x20 PUSH1 0x4 DUP3 ADD MSTORE PUSH1 0x15 PUSH1 0x24 DUP3 ADD MSTORE PUSH21 0x14185E5B595B9D081B9BDD081E595D081D985B1A59 PUSH1 0x5A SHL PUSH1 0x44 DUP3 ADD MSTORE PUSH1 0x64 ADD PUSH2 0x38B JUMP JUMPDEST PUSH2 0x45C PUSH1 0xA0 DUP5 ADD PUSH1 0x80 DUP6 ADD PUSH2 0xD98 JUMP JUMPDEST PUSH6 0xFFFFFFFFFFFF AND TIMESTAMP GT ISZERO PUSH2 0x4A5 JUMPI PUSH1 0x40 MLOAD PUSH3 0x461BCD PUSH1 0xE5 SHL DUP2 MSTORE PUSH1 0x20 PUSH1 0x4 DUP3 ADD MSTORE PUSH1 0xF PUSH1 0x24 DUP3 ADD MSTORE PUSH15 0x14185E5B595B9D08195E1C1A5C9959 PUSH1 0x8A SHL PUSH1 0x44 DUP3 ADD MSTORE PUSH1 0x64 ADD PUSH2 0x38B JUMP JUMPDEST PUSH1 0x0 PUSH2 0x4B0 DUP5 PUSH2 0xA33 JUMP JUMPDEST SWAP1 POP PUSH1 0x0 PUSH2 0x4BF DUP3 DUP6 DUP6 PUSH2 0xADF JUMP JUMPDEST SWAP1 POP PUSH2 0x4CE PUSH1 0x20 DUP7 ADD DUP7 PUSH2 0xC6A JUMP JUMPDEST PUSH1 0x1 PUSH1 0x1 PUSH1 0xA0 SHL SUB AND DUP2 PUSH1 0x1 PUSH1 0x1 PUSH1 0xA0 SHL SUB AND EQ PUSH2 0x522 JUMPI PUSH1 0x40 MLOAD PUSH3 0x461BCD PUSH1 0xE5 SHL DUP2 MSTORE PUSH1 0x20 PUSH1 0x4 DUP3 ADD MSTORE PUSH1 0x11 PUSH1 0x24 DUP3 ADD MSTORE PUSH17 0x496E76616C6964207369676E6174757265 PUSH1 0x78 SHL PUSH1 0x44 DUP3 ADD MSTORE PUSH1 0x64 ADD PUSH2 0x38B JUMP JUMPDEST PUSH1 0xA0 DUP6 ADD CALLDATALOAD PUSH1 0x0 SWAP1 DUP2 MSTORE PUSH1 0x1 PUSH1 0x20 DUP2 DUP2 MSTORE PUSH1 0x40 SWAP1 SWAP3 KECCAK256 DUP1 SLOAD PUSH1 0xFF NOT AND SWAP1 SWAP2 OR SWAP1 SSTORE PUSH1 0x1 PUSH1 0x1 PUSH1 0xA0 SHL SUB DUP8 AND SWAP1 PUSH4 0x23B872DD SWAP1 PUSH2 0x560 SWAP1 DUP9 ADD DUP9 PUSH2 0xC6A JUMP JUMPDEST PUSH2 0x570 PUSH1 0x40 DUP10 ADD PUSH1 0x20 DUP11 ADD PUSH2 0xC6A JUMP JUMPDEST PUSH1 0x40 DUP1 MLOAD PUSH1 0x1 PUSH1 0x1 PUSH1 0xE0 SHL SUB NOT PUSH1 0xE0 DUP7 SWAP1 SHL AND DUP2 MSTORE PUSH1 0x1 PUSH1 0x1 PUSH1 0xA0 SHL SUB SWAP4 DUP5 AND PUSH1 0x4 DUP3 ADD MSTORE SWAP3 SWAP1 SWAP2 AND PUSH1 0x24 DUP4 ADD MSTORE DUP9 ADD CALLDATALOAD PUSH1 0x44 DUP3 ADD MSTORE PUSH1 0x64 ADD PUSH1 0x20 PUSH1 0x40 MLOAD DUP1 DUP4 SUB DUP2 PUSH1 0x0 DUP8 GAS CALL ISZERO DUP1 ISZERO PUSH2 0x5C8 JUMPI RETURNDATASIZE PUSH1 0x0 DUP1 RETURNDATACOPY RETURNDATASIZE PUSH1 0x0 REVERT JUMPDEST POP POP POP POP PUSH1 0x40 MLOAD RETURNDATASIZE PUSH1 0x1F NOT PUSH1 0x1F DUP3 ADD AND DUP3 ADD DUP1 PUSH1 0x40 MSTORE POP DUP2 ADD SWAP1 PUSH2 0x5EC SWAP2 SWAP1 PUSH2 0xDC0 JUMP JUMPDEST POP PUSH1 0xA0 DUP6 ADD CALLDATALOAD PUSH2 0x602 PUSH1 0x40 DUP8 ADD PUSH1 0x20 DUP9 ADD PUSH2 0xC6A JUMP JUMPDEST PUSH1 0x1 PUSH1 0x1 PUSH1 0xA0 SHL SUB AND PUSH2 0x618 PUSH1 0x20 DUP9 ADD DUP9 PUSH2 0xC6A JUMP JUMPDEST PUSH1 0x1 PUSH1 0x1 PUSH1 0xA0 SHL SUB AND PUSH32 0xAFA4C5710C7D3319301C7F48B17B00E017C9689C65488E9E63AE5150DCD8C1FF DUP9 PUSH1 0x40 ADD CALLDATALOAD DUP11 PUSH1 0x40 MLOAD PUSH2 0x668 SWAP3 SWAP2 SWAP1 SWAP2 DUP3 MSTORE PUSH1 0x1 PUSH1 0x1 PUSH1 0xA0 SHL SUB AND PUSH1 0x20 DUP3 ADD MSTORE PUSH1 0x40 ADD SWAP1 JUMP JUMPDEST PUSH1 0x40 MLOAD DUP1 SWAP2 SUB SWAP1 LOG4 POP POP PUSH2 0x69B PUSH1 0x1 PUSH32 0x9B779B17422D0DF92223018B32B4D1FA46E071723D6817E2486D003BECC55F00 SSTORE JUMP JUMPDEST POP POP POP POP JUMP JUMPDEST PUSH2 0x6A9 PUSH2 0x988 JUMP JUMPDEST PUSH1 0x1 PUSH1 0x1 PUSH1 0xA0 SHL SUB DUP2 AND PUSH1 0x0 DUP2 DUP2 MSTORE PUSH1 0x2 PUSH1 0x20 MSTORE PUSH1 0x40 DUP1 DUP3 KECCAK256 DUP1 SLOAD PUSH1 0xFF NOT AND SWAP1 SSTORE MLOAD PUSH32 0x4C910B69FE65A61F7531B9C5042B2329CA7179C77290AA7E2EB3AFA3C8511FD3 SWAP2 SWAP1 LOG2 POP JUMP JUMPDEST PUSH1 0x1 PUSH1 0x1 PUSH1 0xA0 SHL SUB DUP5 AND PUSH1 0x0 SWAP1 DUP2 MSTORE PUSH1 0x2 PUSH1 0x20 MSTORE PUSH1 0x40 DUP2 KECCAK256 SLOAD PUSH1 0x60 SWAP1 PUSH1 0xFF AND PUSH2 0x748 JUMPI POP POP PUSH1 0x40 DUP1 MLOAD DUP1 DUP3 ADD SWAP1 SWAP2 MSTORE PUSH1 0x12 DUP2 MSTORE PUSH18 0x151BDAD95B881B9BDD081858D8D95C1D1959 PUSH1 0x72 SHL PUSH1 0x20 DUP3 ADD MSTORE PUSH1 0x0 SWAP1 PUSH2 0x8DA JUMP JUMPDEST PUSH1 0xA0 DUP6 ADD CALLDATALOAD PUSH1 0x0 SWAP1 DUP2 MSTORE PUSH1 0x1 PUSH1 0x20 MSTORE PUSH1 0x40 SWAP1 KECCAK256 SLOAD PUSH1 0xFF AND ISZERO PUSH2 0x797 JUMPI POP POP PUSH1 0x40 DUP1 MLOAD DUP1 DUP3 ADD SWAP1 SWAP2 MSTORE PUSH1 0x12 DUP2 MSTORE PUSH18 0x139BDB98D948185B1C9958591E481D5CD959 PUSH1 0x72 SHL PUSH1 0x20 DUP3 ADD MSTORE PUSH1 0x0 SWAP1 PUSH2 0x8DA JUMP JUMPDEST PUSH2 0x7A7 PUSH1 0x80 DUP7 ADD PUSH1 0x60 DUP8 ADD PUSH2 0xD98 JUMP JUMPDEST PUSH6 0xFFFFFFFFFFFF AND TIMESTAMP LT ISZERO PUSH2 0x7EC JUMPI POP POP PUSH1 0x40 DUP1 MLOAD DUP1 DUP3 ADD SWAP1 SWAP2 MSTORE PUSH1 0x15 DUP2 MSTORE PUSH21 0x14185E5B595B9D081B9BDD081E595D081D985B1A59 PUSH1 0x5A SHL PUSH1 0x20 DUP3 ADD MSTORE PUSH1 0x0 SWAP1 PUSH2 0x8DA JUMP JUMPDEST PUSH2 0x7FC PUSH1 0xA0 DUP7 ADD PUSH1 0x80 DUP8 ADD PUSH2 0xD98 JUMP JUMPDEST PUSH6 0xFFFFFFFFFFFF AND TIMESTAMP GT ISZERO PUSH2 0x83B JUMPI POP POP PUSH1 0x40 DUP1 MLOAD DUP1 DUP3 ADD SWAP1 SWAP2 MSTORE PUSH1 0xF DUP2 MSTORE PUSH15 0x14185E5B595B9D08195E1C1A5C9959 PUSH1 0x8A SHL PUSH1 0x20 DUP3 ADD MSTORE PUSH1 0x0 SWAP1 PUSH2 0x8DA JUMP JUMPDEST PUSH1 0x0 PUSH2 0x846 DUP7 PUSH2 0xA33 JUMP JUMPDEST SWAP1 POP PUSH1 0x0 PUSH2 0x855 DUP3 DUP8 DUP8 PUSH2 0xADF JUMP JUMPDEST SWAP1 POP PUSH2 0x864 PUSH1 0x20 DUP9 ADD DUP9 PUSH2 0xC6A JUMP JUMPDEST PUSH1 0x1 PUSH1 0x1 PUSH1 0xA0 SHL SUB AND DUP2 PUSH1 0x1 PUSH1 0x1 PUSH1 0xA0 SHL SUB AND EQ PUSH2 0x8B3 JUMPI PUSH1 0x0 PUSH1 0x40 MLOAD DUP1 PUSH1 0x40 ADD PUSH1 0x40 MSTORE DUP1 PUSH1 0x11 DUP2 MSTORE PUSH1 0x20 ADD PUSH17 0x496E76616C6964207369676E6174757265 PUSH1 0x78 SHL DUP2 MSTORE POP SWAP4 POP SWAP4 POP POP POP PUSH2 0x8DA JUMP JUMPDEST PUSH1 0x1 PUSH1 0x40 MLOAD DUP1 PUSH1 0x40 ADD PUSH1 0x40 MSTORE DUP1 PUSH1 0x5 DUP2 MSTORE PUSH1 0x20 ADD PUSH5 0x15985B1A59 PUSH1 0xDA SHL DUP2 MSTORE POP SWAP4 POP SWAP4 POP POP POP JUMPDEST SWAP5 POP SWAP5 SWAP3 POP POP POP JUMP JUMPDEST PUSH2 0x8EB PUSH2 0xA05 JUMP JUMPDEST CALLER PUSH1 0x0 SWAP1 DUP2 MSTORE PUSH1 0x3 PUSH1 0x20 MSTORE PUSH1 0x40 SWAP1 KECCAK256 SLOAD PUSH1 0xFF AND PUSH2 0x332 JUMPI PUSH1 0x40 MLOAD PUSH3 0x461BCD PUSH1 0xE5 SHL DUP2 MSTORE PUSH1 0x20 PUSH1 0x4 DUP3 ADD MSTORE PUSH1 0x1A PUSH1 0x24 DUP3 ADD MSTORE PUSH32 0x4E6F7420617574686F72697A656420666163696C697461746F72000000000000 PUSH1 0x44 DUP3 ADD MSTORE PUSH1 0x64 ADD PUSH2 0x38B JUMP JUMPDEST PUSH2 0x952 PUSH2 0x988 JUMP JUMPDEST PUSH1 0x1 PUSH1 0x1 PUSH1 0xA0 SHL SUB DUP2 AND PUSH2 0x97C JUMPI PUSH1 0x40 MLOAD PUSH4 0x1E4FBDF7 PUSH1 0xE0 SHL DUP2 MSTORE PUSH1 0x0 PUSH1 0x4 DUP3 ADD MSTORE PUSH1 0x24 ADD PUSH2 0x38B JUMP JUMPDEST PUSH2 0x985 DUP2 PUSH2 0x9B5 JUMP JUMPDEST POP JUMP JUMPDEST PUSH1 0x0 SLOAD PUSH1 0x1 PUSH1 0x1 PUSH1 0xA0 SHL SUB AND CALLER EQ PUSH2 0x328 JUMPI PUSH1 0x40 MLOAD PUSH4 0x118CDAA7 PUSH1 0xE0 SHL DUP2 MSTORE CALLER PUSH1 0x4 DUP3 ADD MSTORE PUSH1 0x24 ADD PUSH2 0x38B JUMP JUMPDEST PUSH1 0x0 DUP1 SLOAD PUSH1 0x1 PUSH1 0x1 PUSH1 0xA0 SHL SUB DUP4 DUP2 AND PUSH1 0x1 PUSH1 0x1 PUSH1 0xA0 SHL SUB NOT DUP4 AND DUP2 OR DUP5 SSTORE PUSH1 0x40 MLOAD SWAP2 SWAP1 SWAP3 AND SWAP3 DUP4 SWAP2 PUSH32 0x8BE0079C531659141344CD1FD0A4F28419497F9722A3DAAFE3B4186F6B6457E0 SWAP2 SWAP1 LOG3 POP POP JUMP JUMPDEST PUSH2 0xA0D PUSH2 0xB43 JUMP JUMPDEST PUSH1 0x2 PUSH32 0x9B779B17422D0DF92223018B32B4D1FA46E071723D6817E2486D003BECC55F00 SSTORE JUMP JUMPDEST PUSH1 0x0 PUSH2 0xA42 PUSH1 0x20 DUP4 ADD DUP4 PUSH2 0xC6A JUMP JUMPDEST PUSH2 0xA52 PUSH1 0x40 DUP5 ADD PUSH1 0x20 DUP6 ADD PUSH2 0xC6A JUMP JUMPDEST PUSH1 0x40 DUP5 ADD CALLDATALOAD PUSH2 0xA67 PUSH1 0x80 DUP7 ADD PUSH1 0x60 DUP8 ADD PUSH2 0xD98 JUMP JUMPDEST PUSH2 0xA77 PUSH1 0xA0 DUP8 ADD PUSH1 0x80 DUP9 ADD PUSH2 0xD98 JUMP JUMPDEST PUSH1 0x40 DUP1 MLOAD PUSH1 0x1 PUSH1 0x1 PUSH1 0xA0 SHL SUB SWAP7 DUP8 AND PUSH1 0x20 DUP3 ADD MSTORE SWAP6 SWAP1 SWAP5 AND SWAP4 DUP6 ADD SWAP4 SWAP1 SWAP4 MSTORE PUSH1 0x60 DUP5 ADD SWAP2 SWAP1 SWAP2 MSTORE PUSH6 0xFFFFFFFFFFFF SWAP1 DUP2 AND PUSH1 0x80 DUP5 ADD MSTORE AND PUSH1 0xA0 DUP3 DUP2 ADD SWAP2 SWAP1 SWAP2 MSTORE DUP4 ADD CALLDATALOAD PUSH1 0xC0 DUP3 ADD MSTORE PUSH1 0xE0 ADD PUSH1 0x40 MLOAD PUSH1 0x20 DUP2 DUP4 SUB SUB DUP2 MSTORE SWAP1 PUSH1 0x40 MSTORE DUP1 MLOAD SWAP1 PUSH1 0x20 ADD KECCAK256 SWAP1 POP SWAP2 SWAP1 POP JUMP JUMPDEST PUSH1 0x40 MLOAD PUSH32 0x19457468657265756D205369676E6564204D6573736167653A0A333200000000 PUSH1 0x20 DUP3 ADD MSTORE PUSH1 0x3C DUP2 ADD DUP5 SWAP1 MSTORE PUSH1 0x0 SWAP1 DUP2 SWAP1 PUSH1 0x5C ADD PUSH1 0x40 MLOAD PUSH1 0x20 DUP2 DUP4 SUB SUB DUP2 MSTORE SWAP1 PUSH1 0x40 MSTORE DUP1 MLOAD SWAP1 PUSH1 0x20 ADD KECCAK256 SWAP1 POP PUSH2 0xB3A DUP2 DUP6 DUP6 PUSH2 0xB85 JUMP JUMPDEST SWAP6 SWAP5 POP POP POP POP POP JUMP JUMPDEST PUSH32 0x9B779B17422D0DF92223018B32B4D1FA46E071723D6817E2486D003BECC55F00 SLOAD PUSH1 0x2 SUB PUSH2 0x328 JUMPI PUSH1 0x40 MLOAD PUSH4 0x3EE5AEB5 PUSH1 0xE0 SHL DUP2 MSTORE PUSH1 0x4 ADD PUSH1 0x40 MLOAD DUP1 SWAP2 SUB SWAP1 REVERT JUMPDEST PUSH1 0x0 PUSH1 0x41 DUP3 EQ PUSH2 0xBD7 JUMPI PUSH1 0x40 MLOAD PUSH3 0x461BCD PUSH1 0xE5 SHL DUP2 MSTORE PUSH1 0x20 PUSH1 0x4 DUP3 ADD MSTORE PUSH1 0x18 PUSH1 0x24 DUP3 ADD MSTORE PUSH32 0x496E76616C6964207369676E6174757265206C656E6774680000000000000000 PUSH1 0x44 DUP3 ADD MSTORE PUSH1 0x64 ADD PUSH2 0x38B JUMP JUMPDEST PUSH1 0x40 DUP1 MLOAD PUSH1 0x0 DUP1 DUP3 MSTORE PUSH1 0x20 DUP1 DUP4 ADD DUP1 DUP6 MSTORE DUP9 SWAP1 MSTORE DUP7 DUP5 ADD CALLDATALOAD SWAP1 SWAP2 BYTE SWAP3 DUP3 ADD DUP4 SWAP1 MSTORE DUP6 CALLDATALOAD PUSH1 0x60 DUP4 ADD DUP2 SWAP1 MSTORE SWAP1 DUP7 ADD CALLDATALOAD PUSH1 0x80 DUP4 ADD DUP2 SWAP1 MSTORE SWAP1 SWAP3 SWAP1 SWAP2 PUSH1 0x1 SWAP1 PUSH1 0xA0 ADD PUSH1 0x20 PUSH1 0x40 MLOAD PUSH1 0x20 DUP2 SUB SWAP1 DUP1 DUP5 SUB SWAP1 DUP6 GAS STATICCALL ISZERO DUP1 ISZERO PUSH2 0xC38 JUMPI RETURNDATASIZE PUSH1 0x0 DUP1 RETURNDATACOPY RETURNDATASIZE PUSH1 0x0 REVERT JUMPDEST POP POP PUSH1 0x40 MLOAD PUSH1 0x1F NOT ADD MLOAD SWAP9 SWAP8 POP POP POP POP POP POP POP POP JUMP JUMPDEST DUP1 CALLDATALOAD PUSH1 0x1 PUSH1 0x1 PUSH1 0xA0 SHL SUB DUP2 AND DUP2 EQ PUSH2 0xC65 JUMPI PUSH1 0x0 DUP1 REVERT JUMPDEST SWAP2 SWAP1 POP JUMP JUMPDEST PUSH1 0x0 PUSH1 0x20 DUP3 DUP5 SUB SLT ISZERO PUSH2 0xC7C JUMPI PUSH1 0x0 DUP1 REVERT JUMPDEST PUSH2 0xC85 DUP3 PUSH2 0xC4E JUMP JUMPDEST SWAP4 SWAP3 POP POP POP JUMP JUMPDEST PUSH1 0x0 DUP1 PUSH1 0x0 DUP1 DUP5 DUP7 SUB PUSH2 0x100 DUP2 SLT ISZERO PUSH2 0xCA4 JUMPI PUSH1 0x0 DUP1 REVERT JUMPDEST PUSH2 0xCAD DUP7 PUSH2 0xC4E JUMP JUMPDEST SWAP5 POP PUSH1 0xC0 PUSH1 0x1F NOT DUP3 ADD SLT ISZERO PUSH2 0xCC1 JUMPI PUSH1 0x0 DUP1 REVERT JUMPDEST POP PUSH1 0x20 DUP6 ADD SWAP3 POP PUSH1 0xE0 DUP6 ADD CALLDATALOAD PUSH8 0xFFFFFFFFFFFFFFFF DUP1 DUP3 GT ISZERO PUSH2 0xCE3 JUMPI PUSH1 0x0 DUP1 REVERT JUMPDEST DUP2 DUP8 ADD SWAP2 POP DUP8 PUSH1 0x1F DUP4 ADD SLT PUSH2 0xCF7 JUMPI PUSH1 0x0 DUP1 REVERT JUMPDEST DUP2 CALLDATALOAD DUP2 DUP2 GT ISZERO PUSH2 0xD06 JUMPI PUSH1 0x0 DUP1 REVERT JUMPDEST DUP9 PUSH1 0x20 DUP3 DUP6 ADD ADD GT ISZERO PUSH2 0xD18 JUMPI PUSH1 0x0 DUP1 REVERT JUMPDEST SWAP6 SWAP9 SWAP5 SWAP8 POP POP PUSH1 0x20 ADD SWAP5 POP POP POP JUMP JUMPDEST DUP3 ISZERO ISZERO DUP2 MSTORE PUSH1 0x0 PUSH1 0x20 PUSH1 0x40 DUP2 DUP5 ADD MSTORE DUP4 MLOAD DUP1 PUSH1 0x40 DUP6 ADD MSTORE PUSH1 0x0 JUMPDEST DUP2 DUP2 LT ISZERO PUSH2 0xD5D JUMPI DUP6 DUP2 ADD DUP4 ADD MLOAD DUP6 DUP3 ADD PUSH1 0x60 ADD MSTORE DUP3 ADD PUSH2 0xD41 JUMP JUMPDEST POP PUSH1 0x0 PUSH1 0x60 DUP3 DUP7 ADD ADD MSTORE PUSH1 0x60 PUSH1 0x1F NOT PUSH1 0x1F DUP4 ADD AND DUP6 ADD ADD SWAP3 POP POP POP SWAP4 SWAP3 POP POP POP JUMP JUMPDEST PUSH1 0x0 PUSH1 0x20 DUP3 DUP5 SUB SLT ISZERO PUSH2 0xD91 JUMPI PUSH1 0x0 DUP1 REVERT JUMPDEST POP CALLDATALOAD SWAP2 SWAP1 POP JUMP JUMPDEST PUSH1 0x0 PUSH1 0x20 DUP3 DUP5 SUB SLT ISZERO PUSH2 0xDAA JUMPI PUSH1 0x0 DUP1 REVERT JUMPDEST DUP2 CALLDATALOAD PUSH6 0xFFFFFFFFFFFF DUP2 AND DUP2 EQ PUSH2 0xC85 JUMPI PUSH1 0x0 DUP1 REVERT JUMPDEST PUSH1 0x0 PUSH1 0x20 DUP3 DUP5 SUB SLT ISZERO PUSH2 0xDD2 JUMPI PUSH1 0x0 DUP1 REVERT JUMPDEST DUP2 MLOAD DUP1 ISZERO ISZERO DUP2 EQ PUSH2 0xC85 JUMPI PUSH1 0x0 DUP1 REVERT INVALID LOG2 PUSH5 0x6970667358 0x22 SLT KECCAK256 0xE6 GASPRICE 0xC8 DUP13 0xE1 0x5E XOR BLOCKHASH 0xC1 SWAP5 0xA7 BLOCKHASH MSTORE 0xEB PUSH23 0x3AE4C10C5C43D1FF1BA349B4686B8DAA5764736F6C6343 STOP ADDMOD EQ STOP CALLER "},"methodIdentifiers":{"acceptedTokens(address)":"82dc4a05","addAcceptedToken(address)":"3eee83f1","authorizeFacilitator(address)":"6f1d9d3a","authorizedFacilitators(address)":"c57beae4","deauthorizeFacilitator(address)":"65262fda","isPaymentValid(address,(address,address,uint256,uint48,uint48,bytes32),bytes)":"d9697296","owner()":"8da5cb5b","removeAcceptedToken(address)":"d8134a23","renounceOwnership()":"715018a6","settlePayment(address,(address,address,uint256,uint48,uint48,bytes32),bytes)":"9925a366","settlePaymentViaFacilitator(address,(address,address,uint256,uint48,uint48,bytes32),bytes)":"ecf7df59","transferOwnership(address)":"f2fde38b","usedNonces(bytes32)":"feb61724"}}}}}