{"contracts/XULSwapFactory.sol":{"XULSwapFactory":{"abi":[{"inputs":[],"stateMutability":"nonpayable","type":"constructor"},{"anonymous":false,"inputs":[{"indexed":true,"internalType":"address","name":"token0","type":"address"},{"indexed":true,"internalType":"address","name":"token1","type":"address"},{"indexed":false,"internalType":"address","name":"pair","type":"address"},{"indexed":false,"internalType":"uint256","name":"","type":"uint256"}],"name":"PairCreated","type":"event"},{"inputs":[{"internalType":"uint256","name":"","type":"uint256"}],"name":"allPairs","outputs":[{"internalType":"address","name":"","type":"address"}],"stateMutability":"view","type":"function"},{"inputs":[],"name":"allPairsLength","outputs":[{"internalType":"uint256","name":"","type":"uint256"}],"stateMutability":"view","type":"function"},{"inputs":[{"internalType":"address","name":"tokenA","type":"address"},{"internalType":"address","name":"tokenB","type":"address"}],"name":"createPair","outputs":[{"internalType":"address","name":"pair","type":"address"}],"stateMutability":"nonpayable","type":"function"},{"inputs":[],"name":"feeTo","outputs":[{"internalType":"address","name":"","type":"address"}],"stateMutability":"view","type":"function"},{"inputs":[],"name":"feeToSetter","outputs":[{"internalType":"address","name":"","type":"address"}],"stateMutability":"view","type":"function"},{"inputs":[{"internalType":"address","name":"","type":"address"},{"internalType":"address","name":"","type":"address"}],"name":"getPair","outputs":[{"internalType":"address","name":"","type":"address"}],"stateMutability":"view","type":"function"},{"inputs":[],"name":"owner","outputs":[{"internalType":"address","name":"","type":"address"}],"stateMutability":"view","type":"function"},{"inputs":[{"internalType":"address","name":"_feeTo","type":"address"}],"name":"setFeeTo","outputs":[],"stateMutability":"nonpayable","type":"function"},{"inputs":[{"internalType":"address","name":"_feeToSetter","type":"address"}],"name":"setFeeToSetter","outputs":[],"stateMutability":"nonpayable","type":"function"}],"evm":{"bytecode":{"linkReferences":{},"object":"608060405234801561001057600080fd5b5060028054336001600160a01b03199182168117909255600180549091169091179055611753806100426000396000f3fe608060405234801561001057600080fd5b50600436106100935760003560e01c80638da5cb5b116100665780638da5cb5b146100ff578063a2e74af614610112578063c9c6539614610127578063e6a439051461013a578063f46901ed1461016e57600080fd5b8063017e7e5814610098578063094b7415146100c85780631e3dd18b146100db578063574f2ba3146100ee575b600080fd5b6000546100ab906001600160a01b031681565b6040516001600160a01b0390911681526020015b60405180910390f35b6001546100ab906001600160a01b031681565b6100ab6100e9366004610593565b610181565b6004546040519081526020016100bf565b6002546100ab906001600160a01b031681565b6101256101203660046105c8565b6101ab565b005b6100ab6101353660046105ea565b610221565b6100ab6101483660046105ea565b60036020908152600092835260408084209091529082529020546001600160a01b031681565b61012561017c3660046105c8565b610515565b6004818154811061019157600080fd5b6000918252602090912001546001600160a01b0316905081565b6001546001600160a01b031633146101ff5760405162461bcd60e51b81526020600482015260126024820152712c2aa629bbb0b81d102327a92124a22222a760711b60448201526064015b60405180910390fd5b600180546001600160a01b0319166001600160a01b0392909216919091179055565b6000816001600160a01b0316836001600160a01b0316036102845760405162461bcd60e51b815260206004820152601c60248201527f58554c537761703a204944454e544943414c5f4144445245535345530000000060448201526064016101f6565b600080836001600160a01b0316856001600160a01b0316106102a75783856102aa565b84845b90925090506001600160a01b0382166102fd5760405162461bcd60e51b815260206004820152601560248201527458554c537761703a205a45524f5f4144445245535360581b60448201526064016101f6565b6001600160a01b038281166000908152600360209081526040808320858516845290915290205416156103695760405162461bcd60e51b815260206004820152601460248201527358554c537761703a20504149525f45584953545360601b60448201526064016101f6565b60006040518060200161037b90610586565b601f1982820381018352601f9091011660408190526bffffffffffffffffffffffff19606086811b8216602084015285901b166034820152909150600090604801604051602081830303815290604052805190602001209050808251602084016000f560405163485cc95560e01b81526001600160a01b03868116600483015285811660248301529196509086169063485cc95590604401600060405180830381600087803b15801561042d57600080fd5b505af1158015610441573d6000803e3d6000fd5b505050506001600160a01b0384811660008181526003602081815260408084208987168086529083528185208054978d166001600160a01b031998891681179091559383528185208686528352818520805488168517905560048054600181018255958190527f8a35acfbc15ff81a39ae7d344fd709f28e8600b4aa8c65c6b64bfe7fe36bd19b9095018054909716841790965592548351928352908201527f0d3648bd0f6ba80134a33ba9275ac585d9d315f0ad8355cddefde31afa28d0e9910160405180910390a35050505092915050565b6001546001600160a01b031633146105645760405162461bcd60e51b81526020600482015260126024820152712c2aa629bbb0b81d102327a92124a22222a760711b60448201526064016101f6565b600080546001600160a01b0319166001600160a01b0392909216919091179055565b6111008061061e83390190565b6000602082840312156105a557600080fd5b5035919050565b80356001600160a01b03811681146105c357600080fd5b919050565b6000602082840312156105da57600080fd5b6105e3826105ac565b9392505050565b600080604083850312156105fd57600080fd5b610606836105ac565b9150610614602084016105ac565b9050925092905056fe60806040526002805460ff1916601217905534801561001d57600080fd5b50600680546001600160a01b031916331790556110c18061003f6000396000f3fe608060405234801561001057600080fd5b50600436106100f55760003560e01c80636d9a640a11610097578063ba9a7a5611610066578063ba9a7a5614610238578063c45a015514610241578063d21220a714610254578063dd62ed3e1461026757600080fd5b80636d9a640a146101d557806370a08231146101e857806389afcb441461020857806395d89b411461023057600080fd5b806318160ddd116100d357806318160ddd14610177578063313ce5671461018e578063485cc955146101ad5780636a627842146101c257600080fd5b806306fdde03146100fa5780630902f1ac146101185780630dfe16811461014c575b600080fd5b610102610292565b60405161010f9190610eb7565b60405180910390f35b610120610320565b604080516001600160701b03948516815293909216602084015263ffffffff169082015260600161010f565b60075461015f906001600160a01b031681565b6040516001600160a01b03909116815260200161010f565b61018060035481565b60405190815260200161010f565b60025461019b9060ff1681565b60405160ff909116815260200161010f565b6101c06101bb366004610f01565b61034a565b005b6101806101d0366004610f34565b6103cc565b6101c06101e3366004610f4f565b610634565b6101806101f6366004610f34565b60046020526000908152604090205481565b61021b610216366004610f34565b6108f7565b6040805192835260208301919091520161010f565b610102610b3b565b6101806103e881565b60065461015f906001600160a01b031681565b60085461015f906001600160a01b031681565b610180610275366004610f01565b600560209081526000928352604080842090915290825290205481565b6000805461029f90610f84565b80601f01602080910402602001604051908101604052809291908181526020018280546102cb90610f84565b80156103185780601f106102ed57610100808354040283529160200191610318565b820191906000526020600020905b8154815290600101906020018083116102fb57829003601f168201915b505050505081565b6009546001600160701b0380821692600160701b830490911691600160e01b900463ffffffff1690565b6006546001600160a01b0316331461039e5760405162461bcd60e51b81526020600482015260126024820152712c2aa629bbb0b81d102327a92124a22222a760711b60448201526064015b60405180910390fd5b600780546001600160a01b039384166001600160a01b03199182161790915560088054929093169116179055565b60008060006103d9610320565b506007546040516370a0823160e01b81523060048201529294509092506000916001600160a01b03909116906370a0823190602401602060405180830381865afa15801561042b573d6000803e3d6000fd5b505050506040513d601f19601f8201168201806040525081019061044f9190610fb8565b6008546040516370a0823160e01b81523060048201529192506000916001600160a01b03909116906370a0823190602401602060405180830381865afa15801561049d573d6000803e3d6000fd5b505050506040513d601f19601f820116820180604052508101906104c19190610fb8565b905060006104d86001600160701b03861684610fe7565b905060006104ef6001600160701b03861684610fe7565b6003549091506000819003610531576103e861051361050e8486610ffa565b610b48565b61051d9190610fe7565b975061052c60006103e8610bb8565b610578565b6105756001600160701b0388166105488386610ffa565b6105529190611011565b6001600160701b0388166105668486610ffa565b6105709190611011565b610c44565b97505b600088116105d75760405162461bcd60e51b815260206004820152602660248201527f58554c537761703a20494e53554646494349454e545f4c49515549444954595f60448201526513525395115160d21b6064820152608401610395565b6105e18989610bb8565b6105ed85858989610c5e565b604080518481526020810184905233917f4c209b5fc8ad50758f13e2e1088ba56a560dff690a1c6fef26394f4c03821c4f910160405180910390a250505050505050919050565b60008311806106435750600082115b61069b5760405162461bcd60e51b815260206004820152602360248201527f58554c537761703a20494e53554646494349454e545f4f55545055545f414d4f60448201526215539560ea1b6064820152608401610395565b6000806106a6610320565b5091509150816001600160701b0316851080156106cb5750806001600160701b031684105b6107175760405162461bcd60e51b815260206004820152601f60248201527f58554c537761703a20494e53554646494349454e545f4c4951554944495459006044820152606401610395565b841561073457600754610734906001600160a01b03168487610cf4565b831561075157600854610751906001600160a01b03168486610cf4565b6007546040516370a0823160e01b81523060048201526000916001600160a01b0316906370a0823190602401602060405180830381865afa15801561079a573d6000803e3d6000fd5b505050506040513d601f19601f820116820180604052508101906107be9190610fb8565b6008546040516370a0823160e01b81523060048201529192506000916001600160a01b03909116906370a0823190602401602060405180830381865afa15801561080c573d6000803e3d6000fd5b505050506040513d601f19601f820116820180604052508101906108309190610fb8565b90506108486001600160701b03808516908616610ffa565b6108528284610ffa565b101561088d5760405162461bcd60e51b815260206004820152600a60248201526958554c537761703a204b60b01b6044820152606401610395565b61089982828686610c5e565b6040805160008082526020820152908101889052606081018790526001600160a01b0386169033907fd78ad95fa46c994b6551d0da85fc275fe613ce37657fb8d5e3d130840159d8229060800160405180910390a350505050505050565b600080600080610905610320565b50600754600854306000908152600460205260409020546003549496509294506001600160a01b0391821693911691906109486001600160701b03871683610ffa565b6109529190611011565b60035490975061096b6001600160701b03861683610ffa565b6109759190611011565b95506000871180156109875750600086115b6109e25760405162461bcd60e51b815260206004820152602660248201527f58554c537761703a20494e53554646494349454e545f4c49515549444954595f60448201526510955493915160d21b6064820152608401610395565b6109ec3082610e0f565b6109f7838989610cf4565b610a02828988610cf4565b6040516370a0823160e01b81523060048201526000906001600160a01b038516906370a0823190602401602060405180830381865afa158015610a49573d6000803e3d6000fd5b505050506040513d601f19601f82011682018060405250810190610a6d9190610fb8565b6040516370a0823160e01b81523060048201529091506000906001600160a01b038516906370a0823190602401602060405180830381865afa158015610ab7573d6000803e3d6000fd5b505050506040513d601f19601f82011682018060405250810190610adb9190610fb8565b9050610ae982828989610c5e565b604080518a8152602081018a90526001600160a01b038c169133917fdccd412f0b1252819cb1fd330b93224ca42612892bb3f4f789976e6d81936496910160405180910390a350505050505050915091565b6001805461029f90610f84565b60006003821115610ba95750806000610b62600283611011565b610b6d906001611033565b90505b81811015610ba357905080600281610b888186611011565b610b929190611033565b610b9c9190611011565b9050610b70565b50919050565b8115610bb3575060015b919050565b6001600160a01b03821660009081526004602052604081208054839290610be0908490611033565b925050819055508060036000828254610bf99190611033565b90915550506040518181526001600160a01b038316906000907fddf252ad1be2c89b69c2b068fc378daa952ba7f163c4a11628f55a4df523b3ef906020015b60405180910390a35050565b6000818310610c535781610c55565b825b90505b92915050565b6009805463ffffffff4216600160e01b026001600160e01b036001600160701b03878116600160701b9081026001600160e01b03199095168a83161794909417918216831794859055604080519382169282169290921783529290930490911660208201527f1c411e9a96e071241c2f21f7726b17ae89e3cab4c78be50e062b03a9fffbbad1910160405180910390a150505050565b604080516001600160a01b038481166024830152604480830185905283518084039091018152606490920183526020820180516001600160e01b031663a9059cbb60e01b1790529151600092839290871691610d509190611046565b6000604051808303816000865af19150503d8060008114610d8d576040519150601f19603f3d011682016040523d82523d6000602084013e610d92565b606091505b5091509150818015610dbc575080511580610dbc575080806020019051810190610dbc9190611062565b610e085760405162461bcd60e51b815260206004820152601860248201527f58554c537761703a205452414e534645525f4641494c454400000000000000006044820152606401610395565b5050505050565b6001600160a01b03821660009081526004602052604081208054839290610e37908490610fe7565b925050819055508060036000828254610e509190610fe7565b90915550506040518181526000906001600160a01b038416907fddf252ad1be2c89b69c2b068fc378daa952ba7f163c4a11628f55a4df523b3ef90602001610c38565b60005b83811015610eae578181015183820152602001610e96565b50506000910152565b6020815260008251806020840152610ed6816040850160208701610e93565b601f01601f19169190910160400192915050565b80356001600160a01b0381168114610bb357600080fd5b60008060408385031215610f1457600080fd5b610f1d83610eea565b9150610f2b60208401610eea565b90509250929050565b600060208284031215610f4657600080fd5b610c5582610eea565b600080600060608486031215610f6457600080fd5b8335925060208401359150610f7b60408501610eea565b90509250925092565b600181811c90821680610f9857607f821691505b602082108103610ba357634e487b7160e01b600052602260045260246000fd5b600060208284031215610fca57600080fd5b5051919050565b634e487b7160e01b600052601160045260246000fd5b81810381811115610c5857610c58610fd1565b8082028115828204841417610c5857610c58610fd1565b60008261102e57634e487b7160e01b600052601260045260246000fd5b500490565b80820180821115610c5857610c58610fd1565b60008251611058818460208701610e93565b9190910192915050565b60006020828403121561107457600080fd5b8151801515811461108457600080fd5b939250505056fea2646970667358221220ca58bb25e67af434f8f69d60483e409c12cc09461f4a588582346df76033975b64736f6c63430008140033a2646970667358221220e5f0f1c3792d979d4e0ff6bbc2a3a7b2bd942d2f7a635c89cd79ef72139c003464736f6c63430008140033","opcodes":"PUSH1 0x80 PUSH1 0x40 MSTORE CALLVALUE DUP1 ISZERO PUSH2 0x10 JUMPI PUSH1 0x0 DUP1 REVERT JUMPDEST POP PUSH1 0x2 DUP1 SLOAD CALLER PUSH1 0x1 PUSH1 0x1 PUSH1 0xA0 SHL SUB NOT SWAP2 DUP3 AND DUP2 OR SWAP1 SWAP3 SSTORE PUSH1 0x1 DUP1 SLOAD SWAP1 SWAP2 AND SWAP1 SWAP2 OR SWAP1 SSTORE PUSH2 0x1753 DUP1 PUSH2 0x42 PUSH1 0x0 CODECOPY PUSH1 0x0 RETURN INVALID PUSH1 0x80 PUSH1 0x40 MSTORE CALLVALUE DUP1 ISZERO PUSH2 0x10 JUMPI PUSH1 0x0 DUP1 REVERT JUMPDEST POP PUSH1 0x4 CALLDATASIZE LT PUSH2 0x93 JUMPI PUSH1 0x0 CALLDATALOAD PUSH1 0xE0 SHR DUP1 PUSH4 0x8DA5CB5B GT PUSH2 0x66 JUMPI DUP1 PUSH4 0x8DA5CB5B EQ PUSH2 0xFF JUMPI DUP1 PUSH4 0xA2E74AF6 EQ PUSH2 0x112 JUMPI DUP1 PUSH4 0xC9C65396 EQ PUSH2 0x127 JUMPI DUP1 PUSH4 0xE6A43905 EQ PUSH2 0x13A JUMPI DUP1 PUSH4 0xF46901ED EQ PUSH2 0x16E JUMPI PUSH1 0x0 DUP1 REVERT JUMPDEST DUP1 PUSH4 0x17E7E58 EQ PUSH2 0x98 JUMPI DUP1 PUSH4 0x94B7415 EQ PUSH2 0xC8 JUMPI DUP1 PUSH4 0x1E3DD18B EQ PUSH2 0xDB JUMPI DUP1 PUSH4 0x574F2BA3 EQ PUSH2 0xEE JUMPI JUMPDEST PUSH1 0x0 DUP1 REVERT JUMPDEST PUSH1 0x0 SLOAD PUSH2 0xAB SWAP1 PUSH1 0x1 PUSH1 0x1 PUSH1 0xA0 SHL SUB AND DUP2 JUMP JUMPDEST PUSH1 0x40 MLOAD PUSH1 0x1 PUSH1 0x1 PUSH1 0xA0 SHL SUB SWAP1 SWAP2 AND DUP2 MSTORE PUSH1 0x20 ADD JUMPDEST PUSH1 0x40 MLOAD DUP1 SWAP2 SUB SWAP1 RETURN JUMPDEST PUSH1 0x1 SLOAD PUSH2 0xAB SWAP1 PUSH1 0x1 PUSH1 0x1 PUSH1 0xA0 SHL SUB AND DUP2 JUMP JUMPDEST PUSH2 0xAB PUSH2 0xE9 CALLDATASIZE PUSH1 0x4 PUSH2 0x593 JUMP JUMPDEST PUSH2 0x181 JUMP JUMPDEST PUSH1 0x4 SLOAD PUSH1 0x40 MLOAD SWAP1 DUP2 MSTORE PUSH1 0x20 ADD PUSH2 0xBF JUMP JUMPDEST PUSH1 0x2 SLOAD PUSH2 0xAB SWAP1 PUSH1 0x1 PUSH1 0x1 PUSH1 0xA0 SHL SUB AND DUP2 JUMP JUMPDEST PUSH2 0x125 PUSH2 0x120 CALLDATASIZE PUSH1 0x4 PUSH2 0x5C8 JUMP JUMPDEST PUSH2 0x1AB JUMP JUMPDEST STOP JUMPDEST PUSH2 0xAB PUSH2 0x135 CALLDATASIZE PUSH1 0x4 PUSH2 0x5EA JUMP JUMPDEST PUSH2 0x221 JUMP JUMPDEST PUSH2 0xAB PUSH2 0x148 CALLDATASIZE PUSH1 0x4 PUSH2 0x5EA JUMP JUMPDEST PUSH1 0x3 PUSH1 0x20 SWAP1 DUP2 MSTORE PUSH1 0x0 SWAP3 DUP4 MSTORE PUSH1 0x40 DUP1 DUP5 KECCAK256 SWAP1 SWAP2 MSTORE SWAP1 DUP3 MSTORE SWAP1 KECCAK256 SLOAD PUSH1 0x1 PUSH1 0x1 PUSH1 0xA0 SHL SUB AND DUP2 JUMP JUMPDEST PUSH2 0x125 PUSH2 0x17C CALLDATASIZE PUSH1 0x4 PUSH2 0x5C8 JUMP JUMPDEST PUSH2 0x515 JUMP JUMPDEST PUSH1 0x4 DUP2 DUP2 SLOAD DUP2 LT PUSH2 0x191 JUMPI PUSH1 0x0 DUP1 REVERT JUMPDEST PUSH1 0x0 SWAP2 DUP3 MSTORE PUSH1 0x20 SWAP1 SWAP2 KECCAK256 ADD SLOAD PUSH1 0x1 PUSH1 0x1 PUSH1 0xA0 SHL SUB AND SWAP1 POP DUP2 JUMP JUMPDEST PUSH1 0x1 SLOAD PUSH1 0x1 PUSH1 0x1 PUSH1 0xA0 SHL SUB AND CALLER EQ PUSH2 0x1FF JUMPI PUSH1 0x40 MLOAD PUSH3 0x461BCD PUSH1 0xE5 SHL DUP2 MSTORE PUSH1 0x20 PUSH1 0x4 DUP3 ADD MSTORE PUSH1 0x12 PUSH1 0x24 DUP3 ADD MSTORE PUSH18 0x2C2AA629BBB0B81D102327A92124A22222A7 PUSH1 0x71 SHL PUSH1 0x44 DUP3 ADD MSTORE PUSH1 0x64 ADD JUMPDEST PUSH1 0x40 MLOAD DUP1 SWAP2 SUB SWAP1 REVERT JUMPDEST PUSH1 0x1 DUP1 SLOAD PUSH1 0x1 PUSH1 0x1 PUSH1 0xA0 SHL SUB NOT AND PUSH1 0x1 PUSH1 0x1 PUSH1 0xA0 SHL SUB SWAP3 SWAP1 SWAP3 AND SWAP2 SWAP1 SWAP2 OR SWAP1 SSTORE JUMP JUMPDEST PUSH1 0x0 DUP2 PUSH1 0x1 PUSH1 0x1 PUSH1 0xA0 SHL SUB AND DUP4 PUSH1 0x1 PUSH1 0x1 PUSH1 0xA0 SHL SUB AND SUB PUSH2 0x284 JUMPI PUSH1 0x40 MLOAD PUSH3 0x461BCD PUSH1 0xE5 SHL DUP2 MSTORE PUSH1 0x20 PUSH1 0x4 DUP3 ADD MSTORE PUSH1 0x1C PUSH1 0x24 DUP3 ADD MSTORE PUSH32 0x58554C537761703A204944454E544943414C5F41444452455353455300000000 PUSH1 0x44 DUP3 ADD MSTORE PUSH1 0x64 ADD PUSH2 0x1F6 JUMP JUMPDEST PUSH1 0x0 DUP1 DUP4 PUSH1 0x1 PUSH1 0x1 PUSH1 0xA0 SHL SUB AND DUP6 PUSH1 0x1 PUSH1 0x1 PUSH1 0xA0 SHL SUB AND LT PUSH2 0x2A7 JUMPI DUP4 DUP6 PUSH2 0x2AA JUMP JUMPDEST DUP5 DUP5 JUMPDEST SWAP1 SWAP3 POP SWAP1 POP PUSH1 0x1 PUSH1 0x1 PUSH1 0xA0 SHL SUB DUP3 AND PUSH2 0x2FD JUMPI PUSH1 0x40 MLOAD PUSH3 0x461BCD PUSH1 0xE5 SHL DUP2 MSTORE PUSH1 0x20 PUSH1 0x4 DUP3 ADD MSTORE PUSH1 0x15 PUSH1 0x24 DUP3 ADD MSTORE PUSH21 0x58554C537761703A205A45524F5F41444452455353 PUSH1 0x58 SHL PUSH1 0x44 DUP3 ADD MSTORE PUSH1 0x64 ADD PUSH2 0x1F6 JUMP JUMPDEST PUSH1 0x1 PUSH1 0x1 PUSH1 0xA0 SHL SUB DUP3 DUP2 AND PUSH1 0x0 SWAP1 DUP2 MSTORE PUSH1 0x3 PUSH1 0x20 SWAP1 DUP2 MSTORE PUSH1 0x40 DUP1 DUP4 KECCAK256 DUP6 DUP6 AND DUP5 MSTORE SWAP1 SWAP2 MSTORE SWAP1 KECCAK256 SLOAD AND ISZERO PUSH2 0x369 JUMPI PUSH1 0x40 MLOAD PUSH3 0x461BCD PUSH1 0xE5 SHL DUP2 MSTORE PUSH1 0x20 PUSH1 0x4 DUP3 ADD MSTORE PUSH1 0x14 PUSH1 0x24 DUP3 ADD MSTORE PUSH20 0x58554C537761703A20504149525F455849535453 PUSH1 0x60 SHL PUSH1 0x44 DUP3 ADD MSTORE PUSH1 0x64 ADD PUSH2 0x1F6 JUMP JUMPDEST PUSH1 0x0 PUSH1 0x40 MLOAD DUP1 PUSH1 0x20 ADD PUSH2 0x37B SWAP1 PUSH2 0x586 JUMP JUMPDEST PUSH1 0x1F NOT DUP3 DUP3 SUB DUP2 ADD DUP4 MSTORE PUSH1 0x1F SWAP1 SWAP2 ADD AND PUSH1 0x40 DUP2 SWAP1 MSTORE PUSH12 0xFFFFFFFFFFFFFFFFFFFFFFFF NOT PUSH1 0x60 DUP7 DUP2 SHL DUP3 AND PUSH1 0x20 DUP5 ADD MSTORE DUP6 SWAP1 SHL AND PUSH1 0x34 DUP3 ADD MSTORE SWAP1 SWAP2 POP PUSH1 0x0 SWAP1 PUSH1 0x48 ADD PUSH1 0x40 MLOAD PUSH1 0x20 DUP2 DUP4 SUB SUB DUP2 MSTORE SWAP1 PUSH1 0x40 MSTORE DUP1 MLOAD SWAP1 PUSH1 0x20 ADD KECCAK256 SWAP1 POP DUP1 DUP3 MLOAD PUSH1 0x20 DUP5 ADD PUSH1 0x0 CREATE2 PUSH1 0x40 MLOAD PUSH4 0x485CC955 PUSH1 0xE0 SHL DUP2 MSTORE PUSH1 0x1 PUSH1 0x1 PUSH1 0xA0 SHL SUB DUP7 DUP2 AND PUSH1 0x4 DUP4 ADD MSTORE DUP6 DUP2 AND PUSH1 0x24 DUP4 ADD MSTORE SWAP2 SWAP7 POP SWAP1 DUP7 AND SWAP1 PUSH4 0x485CC955 SWAP1 PUSH1 0x44 ADD PUSH1 0x0 PUSH1 0x40 MLOAD DUP1 DUP4 SUB DUP2 PUSH1 0x0 DUP8 DUP1 EXTCODESIZE ISZERO DUP1 ISZERO PUSH2 0x42D JUMPI PUSH1 0x0 DUP1 REVERT JUMPDEST POP GAS CALL ISZERO DUP1 ISZERO PUSH2 0x441 JUMPI RETURNDATASIZE PUSH1 0x0 DUP1 RETURNDATACOPY RETURNDATASIZE PUSH1 0x0 REVERT JUMPDEST POP POP POP POP PUSH1 0x1 PUSH1 0x1 PUSH1 0xA0 SHL SUB DUP5 DUP2 AND PUSH1 0x0 DUP2 DUP2 MSTORE PUSH1 0x3 PUSH1 0x20 DUP2 DUP2 MSTORE PUSH1 0x40 DUP1 DUP5 KECCAK256 DUP10 DUP8 AND DUP1 DUP7 MSTORE SWAP1 DUP4 MSTORE DUP2 DUP6 KECCAK256 DUP1 SLOAD SWAP8 DUP14 AND PUSH1 0x1 PUSH1 0x1 PUSH1 0xA0 SHL SUB NOT SWAP9 DUP10 AND DUP2 OR SWAP1 SWAP2 SSTORE SWAP4 DUP4 MSTORE DUP2 DUP6 KECCAK256 DUP7 DUP7 MSTORE DUP4 MSTORE DUP2 DUP6 KECCAK256 DUP1 SLOAD DUP9 AND DUP6 OR SWAP1 SSTORE PUSH1 0x4 DUP1 SLOAD PUSH1 0x1 DUP2 ADD DUP3 SSTORE SWAP6 DUP2 SWAP1 MSTORE PUSH32 0x8A35ACFBC15FF81A39AE7D344FD709F28E8600B4AA8C65C6B64BFE7FE36BD19B SWAP1 SWAP6 ADD DUP1 SLOAD SWAP1 SWAP8 AND DUP5 OR SWAP1 SWAP7 SSTORE SWAP3 SLOAD DUP4 MLOAD SWAP3 DUP4 MSTORE SWAP1 DUP3 ADD MSTORE PUSH32 0xD3648BD0F6BA80134A33BA9275AC585D9D315F0AD8355CDDEFDE31AFA28D0E9 SWAP2 ADD PUSH1 0x40 MLOAD DUP1 SWAP2 SUB SWAP1 LOG3 POP POP POP POP SWAP3 SWAP2 POP POP JUMP JUMPDEST PUSH1 0x1 SLOAD PUSH1 0x1 PUSH1 0x1 PUSH1 0xA0 SHL SUB AND CALLER EQ PUSH2 0x564 JUMPI PUSH1 0x40 MLOAD PUSH3 0x461BCD PUSH1 0xE5 SHL DUP2 MSTORE PUSH1 0x20 PUSH1 0x4 DUP3 ADD MSTORE PUSH1 0x12 PUSH1 0x24 DUP3 ADD MSTORE PUSH18 0x2C2AA629BBB0B81D102327A92124A22222A7 PUSH1 0x71 SHL PUSH1 0x44 DUP3 ADD MSTORE PUSH1 0x64 ADD PUSH2 0x1F6 JUMP JUMPDEST PUSH1 0x0 DUP1 SLOAD PUSH1 0x1 PUSH1 0x1 PUSH1 0xA0 SHL SUB NOT AND PUSH1 0x1 PUSH1 0x1 PUSH1 0xA0 SHL SUB SWAP3 SWAP1 SWAP3 AND SWAP2 SWAP1 SWAP2 OR SWAP1 SSTORE JUMP JUMPDEST PUSH2 0x1100 DUP1 PUSH2 0x61E DUP4 CODECOPY ADD SWAP1 JUMP JUMPDEST PUSH1 0x0 PUSH1 0x20 DUP3 DUP5 SUB SLT ISZERO PUSH2 0x5A5 JUMPI PUSH1 0x0 DUP1 REVERT JUMPDEST POP CALLDATALOAD SWAP2 SWAP1 POP JUMP JUMPDEST DUP1 CALLDATALOAD PUSH1 0x1 PUSH1 0x1 PUSH1 0xA0 SHL SUB DUP2 AND DUP2 EQ PUSH2 0x5C3 JUMPI PUSH1 0x0 DUP1 REVERT JUMPDEST SWAP2 SWAP1 POP JUMP JUMPDEST PUSH1 0x0 PUSH1 0x20 DUP3 DUP5 SUB SLT ISZERO PUSH2 0x5DA JUMPI PUSH1 0x0 DUP1 REVERT JUMPDEST PUSH2 0x5E3 DUP3 PUSH2 0x5AC JUMP JUMPDEST SWAP4 SWAP3 POP POP POP JUMP JUMPDEST PUSH1 0x0 DUP1 PUSH1 0x40 DUP4 DUP6 SUB SLT ISZERO PUSH2 0x5FD JUMPI PUSH1 0x0 DUP1 REVERT JUMPDEST PUSH2 0x606 DUP4 PUSH2 0x5AC JUMP JUMPDEST SWAP2 POP PUSH2 0x614 PUSH1 0x20 DUP5 ADD PUSH2 0x5AC JUMP JUMPDEST SWAP1 POP SWAP3 POP SWAP3 SWAP1 POP JUMP INVALID PUSH1 0x80 PUSH1 0x40 MSTORE PUSH1 0x2 DUP1 SLOAD PUSH1 0xFF NOT AND PUSH1 0x12 OR SWAP1 SSTORE CALLVALUE DUP1 ISZERO PUSH2 0x1D JUMPI PUSH1 0x0 DUP1 REVERT JUMPDEST POP PUSH1 0x6 DUP1 SLOAD PUSH1 0x1 PUSH1 0x1 PUSH1 0xA0 SHL SUB NOT AND CALLER OR SWAP1 SSTORE PUSH2 0x10C1 DUP1 PUSH2 0x3F PUSH1 0x0 CODECOPY PUSH1 0x0 RETURN INVALID PUSH1 0x80 PUSH1 0x40 MSTORE CALLVALUE DUP1 ISZERO PUSH2 0x10 JUMPI PUSH1 0x0 DUP1 REVERT JUMPDEST POP PUSH1 0x4 CALLDATASIZE LT PUSH2 0xF5 JUMPI PUSH1 0x0 CALLDATALOAD PUSH1 0xE0 SHR DUP1 PUSH4 0x6D9A640A GT PUSH2 0x97 JUMPI DUP1 PUSH4 0xBA9A7A56 GT PUSH2 0x66 JUMPI DUP1 PUSH4 0xBA9A7A56 EQ PUSH2 0x238 JUMPI DUP1 PUSH4 0xC45A0155 EQ PUSH2 0x241 JUMPI DUP1 PUSH4 0xD21220A7 EQ PUSH2 0x254 JUMPI DUP1 PUSH4 0xDD62ED3E EQ PUSH2 0x267 JUMPI PUSH1 0x0 DUP1 REVERT JUMPDEST DUP1 PUSH4 0x6D9A640A EQ PUSH2 0x1D5 JUMPI DUP1 PUSH4 0x70A08231 EQ PUSH2 0x1E8 JUMPI DUP1 PUSH4 0x89AFCB44 EQ PUSH2 0x208 JUMPI DUP1 PUSH4 0x95D89B41 EQ PUSH2 0x230 JUMPI PUSH1 0x0 DUP1 REVERT JUMPDEST DUP1 PUSH4 0x18160DDD GT PUSH2 0xD3 JUMPI DUP1 PUSH4 0x18160DDD EQ PUSH2 0x177 JUMPI DUP1 PUSH4 0x313CE567 EQ PUSH2 0x18E JUMPI DUP1 PUSH4 0x485CC955 EQ PUSH2 0x1AD JUMPI DUP1 PUSH4 0x6A627842 EQ PUSH2 0x1C2 JUMPI PUSH1 0x0 DUP1 REVERT JUMPDEST DUP1 PUSH4 0x6FDDE03 EQ PUSH2 0xFA JUMPI DUP1 PUSH4 0x902F1AC EQ PUSH2 0x118 JUMPI DUP1 PUSH4 0xDFE1681 EQ PUSH2 0x14C JUMPI JUMPDEST PUSH1 0x0 DUP1 REVERT JUMPDEST PUSH2 0x102 PUSH2 0x292 JUMP JUMPDEST PUSH1 0x40 MLOAD PUSH2 0x10F SWAP2 SWAP1 PUSH2 0xEB7 JUMP JUMPDEST PUSH1 0x40 MLOAD DUP1 SWAP2 SUB SWAP1 RETURN JUMPDEST PUSH2 0x120 PUSH2 0x320 JUMP JUMPDEST PUSH1 0x40 DUP1 MLOAD PUSH1 0x1 PUSH1 0x1 PUSH1 0x70 SHL SUB SWAP5 DUP6 AND DUP2 MSTORE SWAP4 SWAP1 SWAP3 AND PUSH1 0x20 DUP5 ADD MSTORE PUSH4 0xFFFFFFFF AND SWAP1 DUP3 ADD MSTORE PUSH1 0x60 ADD PUSH2 0x10F JUMP JUMPDEST PUSH1 0x7 SLOAD PUSH2 0x15F SWAP1 PUSH1 0x1 PUSH1 0x1 PUSH1 0xA0 SHL SUB AND DUP2 JUMP JUMPDEST PUSH1 0x40 MLOAD PUSH1 0x1 PUSH1 0x1 PUSH1 0xA0 SHL SUB SWAP1 SWAP2 AND DUP2 MSTORE PUSH1 0x20 ADD PUSH2 0x10F JUMP JUMPDEST PUSH2 0x180 PUSH1 0x3 SLOAD DUP2 JUMP JUMPDEST PUSH1 0x40 MLOAD SWAP1 DUP2 MSTORE PUSH1 0x20 ADD PUSH2 0x10F JUMP JUMPDEST PUSH1 0x2 SLOAD PUSH2 0x19B SWAP1 PUSH1 0xFF AND DUP2 JUMP JUMPDEST PUSH1 0x40 MLOAD PUSH1 0xFF SWAP1 SWAP2 AND DUP2 MSTORE PUSH1 0x20 ADD PUSH2 0x10F JUMP JUMPDEST PUSH2 0x1C0 PUSH2 0x1BB CALLDATASIZE PUSH1 0x4 PUSH2 0xF01 JUMP JUMPDEST PUSH2 0x34A JUMP JUMPDEST STOP JUMPDEST PUSH2 0x180 PUSH2 0x1D0 CALLDATASIZE PUSH1 0x4 PUSH2 0xF34 JUMP JUMPDEST PUSH2 0x3CC JUMP JUMPDEST PUSH2 0x1C0 PUSH2 0x1E3 CALLDATASIZE PUSH1 0x4 PUSH2 0xF4F JUMP JUMPDEST PUSH2 0x634 JUMP JUMPDEST PUSH2 0x180 PUSH2 0x1F6 CALLDATASIZE PUSH1 0x4 PUSH2 0xF34 JUMP JUMPDEST PUSH1 0x4 PUSH1 0x20 MSTORE PUSH1 0x0 SWAP1 DUP2 MSTORE PUSH1 0x40 SWAP1 KECCAK256 SLOAD DUP2 JUMP JUMPDEST PUSH2 0x21B PUSH2 0x216 CALLDATASIZE PUSH1 0x4 PUSH2 0xF34 JUMP JUMPDEST PUSH2 0x8F7 JUMP JUMPDEST PUSH1 0x40 DUP1 MLOAD SWAP3 DUP4 MSTORE PUSH1 0x20 DUP4 ADD SWAP2 SWAP1 SWAP2 MSTORE ADD PUSH2 0x10F JUMP JUMPDEST PUSH2 0x102 PUSH2 0xB3B JUMP JUMPDEST PUSH2 0x180 PUSH2 0x3E8 DUP2 JUMP JUMPDEST PUSH1 0x6 SLOAD PUSH2 0x15F SWAP1 PUSH1 0x1 PUSH1 0x1 PUSH1 0xA0 SHL SUB AND DUP2 JUMP JUMPDEST PUSH1 0x8 SLOAD PUSH2 0x15F SWAP1 PUSH1 0x1 PUSH1 0x1 PUSH1 0xA0 SHL SUB AND DUP2 JUMP JUMPDEST PUSH2 0x180 PUSH2 0x275 CALLDATASIZE PUSH1 0x4 PUSH2 0xF01 JUMP JUMPDEST PUSH1 0x5 PUSH1 0x20 SWAP1 DUP2 MSTORE PUSH1 0x0 SWAP3 DUP4 MSTORE PUSH1 0x40 DUP1 DUP5 KECCAK256 SWAP1 SWAP2 MSTORE SWAP1 DUP3 MSTORE SWAP1 KECCAK256 SLOAD DUP2 JUMP JUMPDEST PUSH1 0x0 DUP1 SLOAD PUSH2 0x29F SWAP1 PUSH2 0xF84 JUMP JUMPDEST DUP1 PUSH1 0x1F ADD PUSH1 0x20 DUP1 SWAP2 DIV MUL PUSH1 0x20 ADD PUSH1 0x40 MLOAD SWAP1 DUP2 ADD PUSH1 0x40 MSTORE DUP1 SWAP3 SWAP2 SWAP1 DUP2 DUP2 MSTORE PUSH1 0x20 ADD DUP3 DUP1 SLOAD PUSH2 0x2CB SWAP1 PUSH2 0xF84 JUMP JUMPDEST DUP1 ISZERO PUSH2 0x318 JUMPI DUP1 PUSH1 0x1F LT PUSH2 0x2ED JUMPI PUSH2 0x100 DUP1 DUP4 SLOAD DIV MUL DUP4 MSTORE SWAP2 PUSH1 0x20 ADD SWAP2 PUSH2 0x318 JUMP JUMPDEST DUP3 ADD SWAP2 SWAP1 PUSH1 0x0 MSTORE PUSH1 0x20 PUSH1 0x0 KECCAK256 SWAP1 JUMPDEST DUP2 SLOAD DUP2 MSTORE SWAP1 PUSH1 0x1 ADD SWAP1 PUSH1 0x20 ADD DUP1 DUP4 GT PUSH2 0x2FB JUMPI DUP3 SWAP1 SUB PUSH1 0x1F AND DUP3 ADD SWAP2 JUMPDEST POP POP POP POP POP DUP2 JUMP JUMPDEST PUSH1 0x9 SLOAD PUSH1 0x1 PUSH1 0x1 PUSH1 0x70 SHL SUB DUP1 DUP3 AND SWAP3 PUSH1 0x1 PUSH1 0x70 SHL DUP4 DIV SWAP1 SWAP2 AND SWAP2 PUSH1 0x1 PUSH1 0xE0 SHL SWAP1 DIV PUSH4 0xFFFFFFFF AND SWAP1 JUMP JUMPDEST PUSH1 0x6 SLOAD PUSH1 0x1 PUSH1 0x1 PUSH1 0xA0 SHL SUB AND CALLER EQ PUSH2 0x39E JUMPI PUSH1 0x40 MLOAD PUSH3 0x461BCD PUSH1 0xE5 SHL DUP2 MSTORE PUSH1 0x20 PUSH1 0x4 DUP3 ADD MSTORE PUSH1 0x12 PUSH1 0x24 DUP3 ADD MSTORE PUSH18 0x2C2AA629BBB0B81D102327A92124A22222A7 PUSH1 0x71 SHL PUSH1 0x44 DUP3 ADD MSTORE PUSH1 0x64 ADD JUMPDEST PUSH1 0x40 MLOAD DUP1 SWAP2 SUB SWAP1 REVERT JUMPDEST PUSH1 0x7 DUP1 SLOAD PUSH1 0x1 PUSH1 0x1 PUSH1 0xA0 SHL SUB SWAP4 DUP5 AND PUSH1 0x1 PUSH1 0x1 PUSH1 0xA0 SHL SUB NOT SWAP2 DUP3 AND OR SWAP1 SWAP2 SSTORE PUSH1 0x8 DUP1 SLOAD SWAP3 SWAP1 SWAP4 AND SWAP2 AND OR SWAP1 SSTORE JUMP JUMPDEST PUSH1 0x0 DUP1 PUSH1 0x0 PUSH2 0x3D9 PUSH2 0x320 JUMP JUMPDEST POP PUSH1 0x7 SLOAD PUSH1 0x40 MLOAD PUSH4 0x70A08231 PUSH1 0xE0 SHL DUP2 MSTORE ADDRESS PUSH1 0x4 DUP3 ADD MSTORE SWAP3 SWAP5 POP SWAP1 SWAP3 POP PUSH1 0x0 SWAP2 PUSH1 0x1 PUSH1 0x1 PUSH1 0xA0 SHL SUB SWAP1 SWAP2 AND SWAP1 PUSH4 0x70A08231 SWAP1 PUSH1 0x24 ADD PUSH1 0x20 PUSH1 0x40 MLOAD DUP1 DUP4 SUB DUP2 DUP7 GAS STATICCALL ISZERO DUP1 ISZERO PUSH2 0x42B JUMPI RETURNDATASIZE PUSH1 0x0 DUP1 RETURNDATACOPY RETURNDATASIZE PUSH1 0x0 REVERT JUMPDEST POP POP POP POP PUSH1 0x40 MLOAD RETURNDATASIZE PUSH1 0x1F NOT PUSH1 0x1F DUP3 ADD AND DUP3 ADD DUP1 PUSH1 0x40 MSTORE POP DUP2 ADD SWAP1 PUSH2 0x44F SWAP2 SWAP1 PUSH2 0xFB8 JUMP JUMPDEST PUSH1 0x8 SLOAD PUSH1 0x40 MLOAD PUSH4 0x70A08231 PUSH1 0xE0 SHL DUP2 MSTORE ADDRESS PUSH1 0x4 DUP3 ADD MSTORE SWAP2 SWAP3 POP PUSH1 0x0 SWAP2 PUSH1 0x1 PUSH1 0x1 PUSH1 0xA0 SHL SUB SWAP1 SWAP2 AND SWAP1 PUSH4 0x70A08231 SWAP1 PUSH1 0x24 ADD PUSH1 0x20 PUSH1 0x40 MLOAD DUP1 DUP4 SUB DUP2 DUP7 GAS STATICCALL ISZERO DUP1 ISZERO PUSH2 0x49D JUMPI RETURNDATASIZE PUSH1 0x0 DUP1 RETURNDATACOPY RETURNDATASIZE PUSH1 0x0 REVERT JUMPDEST POP POP POP POP PUSH1 0x40 MLOAD RETURNDATASIZE PUSH1 0x1F NOT PUSH1 0x1F DUP3 ADD AND DUP3 ADD DUP1 PUSH1 0x40 MSTORE POP DUP2 ADD SWAP1 PUSH2 0x4C1 SWAP2 SWAP1 PUSH2 0xFB8 JUMP JUMPDEST SWAP1 POP PUSH1 0x0 PUSH2 0x4D8 PUSH1 0x1 PUSH1 0x1 PUSH1 0x70 SHL SUB DUP7 AND DUP5 PUSH2 0xFE7 JUMP JUMPDEST SWAP1 POP PUSH1 0x0 PUSH2 0x4EF PUSH1 0x1 PUSH1 0x1 PUSH1 0x70 SHL SUB DUP7 AND DUP5 PUSH2 0xFE7 JUMP JUMPDEST PUSH1 0x3 SLOAD SWAP1 SWAP2 POP PUSH1 0x0 DUP2 SWAP1 SUB PUSH2 0x531 JUMPI PUSH2 0x3E8 PUSH2 0x513 PUSH2 0x50E DUP5 DUP7 PUSH2 0xFFA JUMP JUMPDEST PUSH2 0xB48 JUMP JUMPDEST PUSH2 0x51D SWAP2 SWAP1 PUSH2 0xFE7 JUMP JUMPDEST SWAP8 POP PUSH2 0x52C PUSH1 0x0 PUSH2 0x3E8 PUSH2 0xBB8 JUMP JUMPDEST PUSH2 0x578 JUMP JUMPDEST PUSH2 0x575 PUSH1 0x1 PUSH1 0x1 PUSH1 0x70 SHL SUB DUP9 AND PUSH2 0x548 DUP4 DUP7 PUSH2 0xFFA JUMP JUMPDEST PUSH2 0x552 SWAP2 SWAP1 PUSH2 0x1011 JUMP JUMPDEST PUSH1 0x1 PUSH1 0x1 PUSH1 0x70 SHL SUB DUP9 AND PUSH2 0x566 DUP5 DUP7 PUSH2 0xFFA JUMP JUMPDEST PUSH2 0x570 SWAP2 SWAP1 PUSH2 0x1011 JUMP JUMPDEST PUSH2 0xC44 JUMP JUMPDEST SWAP8 POP JUMPDEST PUSH1 0x0 DUP9 GT PUSH2 0x5D7 JUMPI PUSH1 0x40 MLOAD PUSH3 0x461BCD PUSH1 0xE5 SHL DUP2 MSTORE PUSH1 0x20 PUSH1 0x4 DUP3 ADD MSTORE PUSH1 0x26 PUSH1 0x24 DUP3 ADD MSTORE PUSH32 0x58554C537761703A20494E53554646494349454E545F4C49515549444954595F PUSH1 0x44 DUP3 ADD MSTORE PUSH6 0x135253951151 PUSH1 0xD2 SHL PUSH1 0x64 DUP3 ADD MSTORE PUSH1 0x84 ADD PUSH2 0x395 JUMP JUMPDEST PUSH2 0x5E1 DUP10 DUP10 PUSH2 0xBB8 JUMP JUMPDEST PUSH2 0x5ED DUP6 DUP6 DUP10 DUP10 PUSH2 0xC5E JUMP JUMPDEST PUSH1 0x40 DUP1 MLOAD DUP5 DUP2 MSTORE PUSH1 0x20 DUP2 ADD DUP5 SWAP1 MSTORE CALLER SWAP2 PUSH32 0x4C209B5FC8AD50758F13E2E1088BA56A560DFF690A1C6FEF26394F4C03821C4F SWAP2 ADD PUSH1 0x40 MLOAD DUP1 SWAP2 SUB SWAP1 LOG2 POP POP POP POP POP POP POP SWAP2 SWAP1 POP JUMP JUMPDEST PUSH1 0x0 DUP4 GT DUP1 PUSH2 0x643 JUMPI POP PUSH1 0x0 DUP3 GT JUMPDEST PUSH2 0x69B JUMPI PUSH1 0x40 MLOAD PUSH3 0x461BCD PUSH1 0xE5 SHL DUP2 MSTORE PUSH1 0x20 PUSH1 0x4 DUP3 ADD MSTORE PUSH1 0x23 PUSH1 0x24 DUP3 ADD MSTORE PUSH32 0x58554C537761703A20494E53554646494349454E545F4F55545055545F414D4F PUSH1 0x44 DUP3 ADD MSTORE PUSH3 0x155395 PUSH1 0xEA SHL PUSH1 0x64 DUP3 ADD MSTORE PUSH1 0x84 ADD PUSH2 0x395 JUMP JUMPDEST PUSH1 0x0 DUP1 PUSH2 0x6A6 PUSH2 0x320 JUMP JUMPDEST POP SWAP2 POP SWAP2 POP DUP2 PUSH1 0x1 PUSH1 0x1 PUSH1 0x70 SHL SUB AND DUP6 LT DUP1 ISZERO PUSH2 0x6CB JUMPI POP DUP1 PUSH1 0x1 PUSH1 0x1 PUSH1 0x70 SHL SUB AND DUP5 LT JUMPDEST PUSH2 0x717 JUMPI PUSH1 0x40 MLOAD PUSH3 0x461BCD PUSH1 0xE5 SHL DUP2 MSTORE PUSH1 0x20 PUSH1 0x4 DUP3 ADD MSTORE PUSH1 0x1F PUSH1 0x24 DUP3 ADD MSTORE PUSH32 0x58554C537761703A20494E53554646494349454E545F4C495155494449545900 PUSH1 0x44 DUP3 ADD MSTORE PUSH1 0x64 ADD PUSH2 0x395 JUMP JUMPDEST DUP5 ISZERO PUSH2 0x734 JUMPI PUSH1 0x7 SLOAD PUSH2 0x734 SWAP1 PUSH1 0x1 PUSH1 0x1 PUSH1 0xA0 SHL SUB AND DUP5 DUP8 PUSH2 0xCF4 JUMP JUMPDEST DUP4 ISZERO PUSH2 0x751 JUMPI PUSH1 0x8 SLOAD PUSH2 0x751 SWAP1 PUSH1 0x1 PUSH1 0x1 PUSH1 0xA0 SHL SUB AND DUP5 DUP7 PUSH2 0xCF4 JUMP JUMPDEST PUSH1 0x7 SLOAD PUSH1 0x40 MLOAD PUSH4 0x70A08231 PUSH1 0xE0 SHL DUP2 MSTORE ADDRESS PUSH1 0x4 DUP3 ADD MSTORE PUSH1 0x0 SWAP2 PUSH1 0x1 PUSH1 0x1 PUSH1 0xA0 SHL SUB AND SWAP1 PUSH4 0x70A08231 SWAP1 PUSH1 0x24 ADD PUSH1 0x20 PUSH1 0x40 MLOAD DUP1 DUP4 SUB DUP2 DUP7 GAS STATICCALL ISZERO DUP1 ISZERO PUSH2 0x79A JUMPI RETURNDATASIZE PUSH1 0x0 DUP1 RETURNDATACOPY RETURNDATASIZE PUSH1 0x0 REVERT JUMPDEST POP POP POP POP PUSH1 0x40 MLOAD RETURNDATASIZE PUSH1 0x1F NOT PUSH1 0x1F DUP3 ADD AND DUP3 ADD DUP1 PUSH1 0x40 MSTORE POP DUP2 ADD SWAP1 PUSH2 0x7BE SWAP2 SWAP1 PUSH2 0xFB8 JUMP JUMPDEST PUSH1 0x8 SLOAD PUSH1 0x40 MLOAD PUSH4 0x70A08231 PUSH1 0xE0 SHL DUP2 MSTORE ADDRESS PUSH1 0x4 DUP3 ADD MSTORE SWAP2 SWAP3 POP PUSH1 0x0 SWAP2 PUSH1 0x1 PUSH1 0x1 PUSH1 0xA0 SHL SUB SWAP1 SWAP2 AND SWAP1 PUSH4 0x70A08231 SWAP1 PUSH1 0x24 ADD PUSH1 0x20 PUSH1 0x40 MLOAD DUP1 DUP4 SUB DUP2 DUP7 GAS STATICCALL ISZERO DUP1 ISZERO PUSH2 0x80C JUMPI RETURNDATASIZE PUSH1 0x0 DUP1 RETURNDATACOPY RETURNDATASIZE PUSH1 0x0 REVERT JUMPDEST POP POP POP POP PUSH1 0x40 MLOAD RETURNDATASIZE PUSH1 0x1F NOT PUSH1 0x1F DUP3 ADD AND DUP3 ADD DUP1 PUSH1 0x40 MSTORE POP DUP2 ADD SWAP1 PUSH2 0x830 SWAP2 SWAP1 PUSH2 0xFB8 JUMP JUMPDEST SWAP1 POP PUSH2 0x848 PUSH1 0x1 PUSH1 0x1 PUSH1 0x70 SHL SUB DUP1 DUP6 AND SWAP1 DUP7 AND PUSH2 0xFFA JUMP JUMPDEST PUSH2 0x852 DUP3 DUP5 PUSH2 0xFFA JUMP JUMPDEST LT ISZERO PUSH2 0x88D JUMPI PUSH1 0x40 MLOAD PUSH3 0x461BCD PUSH1 0xE5 SHL DUP2 MSTORE PUSH1 0x20 PUSH1 0x4 DUP3 ADD MSTORE PUSH1 0xA PUSH1 0x24 DUP3 ADD MSTORE PUSH10 0x58554C537761703A204B PUSH1 0xB0 SHL PUSH1 0x44 DUP3 ADD MSTORE PUSH1 0x64 ADD PUSH2 0x395 JUMP JUMPDEST PUSH2 0x899 DUP3 DUP3 DUP7 DUP7 PUSH2 0xC5E JUMP JUMPDEST PUSH1 0x40 DUP1 MLOAD PUSH1 0x0 DUP1 DUP3 MSTORE PUSH1 0x20 DUP3 ADD MSTORE SWAP1 DUP2 ADD DUP9 SWAP1 MSTORE PUSH1 0x60 DUP2 ADD DUP8 SWAP1 MSTORE PUSH1 0x1 PUSH1 0x1 PUSH1 0xA0 SHL SUB DUP7 AND SWAP1 CALLER SWAP1 PUSH32 0xD78AD95FA46C994B6551D0DA85FC275FE613CE37657FB8D5E3D130840159D822 SWAP1 PUSH1 0x80 ADD PUSH1 0x40 MLOAD DUP1 SWAP2 SUB SWAP1 LOG3 POP POP POP POP POP POP POP JUMP JUMPDEST PUSH1 0x0 DUP1 PUSH1 0x0 DUP1 PUSH2 0x905 PUSH2 0x320 JUMP JUMPDEST POP PUSH1 0x7 SLOAD PUSH1 0x8 SLOAD ADDRESS PUSH1 0x0 SWAP1 DUP2 MSTORE PUSH1 0x4 PUSH1 0x20 MSTORE PUSH1 0x40 SWAP1 KECCAK256 SLOAD PUSH1 0x3 SLOAD SWAP5 SWAP7 POP SWAP3 SWAP5 POP PUSH1 0x1 PUSH1 0x1 PUSH1 0xA0 SHL SUB SWAP2 DUP3 AND SWAP4 SWAP2 AND SWAP2 SWAP1 PUSH2 0x948 PUSH1 0x1 PUSH1 0x1 PUSH1 0x70 SHL SUB DUP8 AND DUP4 PUSH2 0xFFA JUMP JUMPDEST PUSH2 0x952 SWAP2 SWAP1 PUSH2 0x1011 JUMP JUMPDEST PUSH1 0x3 SLOAD SWAP1 SWAP8 POP PUSH2 0x96B PUSH1 0x1 PUSH1 0x1 PUSH1 0x70 SHL SUB DUP7 AND DUP4 PUSH2 0xFFA JUMP JUMPDEST PUSH2 0x975 SWAP2 SWAP1 PUSH2 0x1011 JUMP JUMPDEST SWAP6 POP PUSH1 0x0 DUP8 GT DUP1 ISZERO PUSH2 0x987 JUMPI POP PUSH1 0x0 DUP7 GT JUMPDEST PUSH2 0x9E2 JUMPI PUSH1 0x40 MLOAD PUSH3 0x461BCD PUSH1 0xE5 SHL DUP2 MSTORE PUSH1 0x20 PUSH1 0x4 DUP3 ADD MSTORE PUSH1 0x26 PUSH1 0x24 DUP3 ADD MSTORE PUSH32 0x58554C537761703A20494E53554646494349454E545F4C49515549444954595F PUSH1 0x44 DUP3 ADD MSTORE PUSH6 0x109554939151 PUSH1 0xD2 SHL PUSH1 0x64 DUP3 ADD MSTORE PUSH1 0x84 ADD PUSH2 0x395 JUMP JUMPDEST PUSH2 0x9EC ADDRESS DUP3 PUSH2 0xE0F JUMP JUMPDEST PUSH2 0x9F7 DUP4 DUP10 DUP10 PUSH2 0xCF4 JUMP JUMPDEST PUSH2 0xA02 DUP3 DUP10 DUP9 PUSH2 0xCF4 JUMP JUMPDEST PUSH1 0x40 MLOAD PUSH4 0x70A08231 PUSH1 0xE0 SHL DUP2 MSTORE ADDRESS PUSH1 0x4 DUP3 ADD MSTORE PUSH1 0x0 SWAP1 PUSH1 0x1 PUSH1 0x1 PUSH1 0xA0 SHL SUB DUP6 AND SWAP1 PUSH4 0x70A08231 SWAP1 PUSH1 0x24 ADD PUSH1 0x20 PUSH1 0x40 MLOAD DUP1 DUP4 SUB DUP2 DUP7 GAS STATICCALL ISZERO DUP1 ISZERO PUSH2 0xA49 JUMPI RETURNDATASIZE PUSH1 0x0 DUP1 RETURNDATACOPY RETURNDATASIZE PUSH1 0x0 REVERT JUMPDEST POP POP POP POP PUSH1 0x40 MLOAD RETURNDATASIZE PUSH1 0x1F NOT PUSH1 0x1F DUP3 ADD AND DUP3 ADD DUP1 PUSH1 0x40 MSTORE POP DUP2 ADD SWAP1 PUSH2 0xA6D SWAP2 SWAP1 PUSH2 0xFB8 JUMP JUMPDEST PUSH1 0x40 MLOAD PUSH4 0x70A08231 PUSH1 0xE0 SHL DUP2 MSTORE ADDRESS PUSH1 0x4 DUP3 ADD MSTORE SWAP1 SWAP2 POP PUSH1 0x0 SWAP1 PUSH1 0x1 PUSH1 0x1 PUSH1 0xA0 SHL SUB DUP6 AND SWAP1 PUSH4 0x70A08231 SWAP1 PUSH1 0x24 ADD PUSH1 0x20 PUSH1 0x40 MLOAD DUP1 DUP4 SUB DUP2 DUP7 GAS STATICCALL ISZERO DUP1 ISZERO PUSH2 0xAB7 JUMPI RETURNDATASIZE PUSH1 0x0 DUP1 RETURNDATACOPY RETURNDATASIZE PUSH1 0x0 REVERT JUMPDEST POP POP POP POP PUSH1 0x40 MLOAD RETURNDATASIZE PUSH1 0x1F NOT PUSH1 0x1F DUP3 ADD AND DUP3 ADD DUP1 PUSH1 0x40 MSTORE POP DUP2 ADD SWAP1 PUSH2 0xADB SWAP2 SWAP1 PUSH2 0xFB8 JUMP JUMPDEST SWAP1 POP PUSH2 0xAE9 DUP3 DUP3 DUP10 DUP10 PUSH2 0xC5E JUMP JUMPDEST PUSH1 0x40 DUP1 MLOAD DUP11 DUP2 MSTORE PUSH1 0x20 DUP2 ADD DUP11 SWAP1 MSTORE PUSH1 0x1 PUSH1 0x1 PUSH1 0xA0 SHL SUB DUP13 AND SWAP2 CALLER SWAP2 PUSH32 0xDCCD412F0B1252819CB1FD330B93224CA42612892BB3F4F789976E6D81936496 SWAP2 ADD PUSH1 0x40 MLOAD DUP1 SWAP2 SUB SWAP1 LOG3 POP POP POP POP POP POP POP SWAP2 POP SWAP2 JUMP JUMPDEST PUSH1 0x1 DUP1 SLOAD PUSH2 0x29F SWAP1 PUSH2 0xF84 JUMP JUMPDEST PUSH1 0x0 PUSH1 0x3 DUP3 GT ISZERO PUSH2 0xBA9 JUMPI POP DUP1 PUSH1 0x0 PUSH2 0xB62 PUSH1 0x2 DUP4 PUSH2 0x1011 JUMP JUMPDEST PUSH2 0xB6D SWAP1 PUSH1 0x1 PUSH2 0x1033 JUMP JUMPDEST SWAP1 POP JUMPDEST DUP2 DUP2 LT ISZERO PUSH2 0xBA3 JUMPI SWAP1 POP DUP1 PUSH1 0x2 DUP2 PUSH2 0xB88 DUP2 DUP7 PUSH2 0x1011 JUMP JUMPDEST PUSH2 0xB92 SWAP2 SWAP1 PUSH2 0x1033 JUMP JUMPDEST PUSH2 0xB9C SWAP2 SWAP1 PUSH2 0x1011 JUMP JUMPDEST SWAP1 POP PUSH2 0xB70 JUMP JUMPDEST POP SWAP2 SWAP1 POP JUMP JUMPDEST DUP2 ISZERO PUSH2 0xBB3 JUMPI POP PUSH1 0x1 JUMPDEST SWAP2 SWAP1 POP JUMP JUMPDEST PUSH1 0x1 PUSH1 0x1 PUSH1 0xA0 SHL SUB DUP3 AND PUSH1 0x0 SWAP1 DUP2 MSTORE PUSH1 0x4 PUSH1 0x20 MSTORE PUSH1 0x40 DUP2 KECCAK256 DUP1 SLOAD DUP4 SWAP3 SWAP1 PUSH2 0xBE0 SWAP1 DUP5 SWAP1 PUSH2 0x1033 JUMP JUMPDEST SWAP3 POP POP DUP2 SWAP1 SSTORE POP DUP1 PUSH1 0x3 PUSH1 0x0 DUP3 DUP3 SLOAD PUSH2 0xBF9 SWAP2 SWAP1 PUSH2 0x1033 JUMP JUMPDEST SWAP1 SWAP2 SSTORE POP POP PUSH1 0x40 MLOAD DUP2 DUP2 MSTORE PUSH1 0x1 PUSH1 0x1 PUSH1 0xA0 SHL SUB DUP4 AND SWAP1 PUSH1 0x0 SWAP1 PUSH32 0xDDF252AD1BE2C89B69C2B068FC378DAA952BA7F163C4A11628F55A4DF523B3EF SWAP1 PUSH1 0x20 ADD JUMPDEST PUSH1 0x40 MLOAD DUP1 SWAP2 SUB SWAP1 LOG3 POP POP JUMP JUMPDEST PUSH1 0x0 DUP2 DUP4 LT PUSH2 0xC53 JUMPI DUP2 PUSH2 0xC55 JUMP JUMPDEST DUP3 JUMPDEST SWAP1 POP JUMPDEST SWAP3 SWAP2 POP POP JUMP JUMPDEST PUSH1 0x9 DUP1 SLOAD PUSH4 0xFFFFFFFF TIMESTAMP AND PUSH1 0x1 PUSH1 0xE0 SHL MUL PUSH1 0x1 PUSH1 0x1 PUSH1 0xE0 SHL SUB PUSH1 0x1 PUSH1 0x1 PUSH1 0x70 SHL SUB DUP8 DUP2 AND PUSH1 0x1 PUSH1 0x70 SHL SWAP1 DUP2 MUL PUSH1 0x1 PUSH1 0x1 PUSH1 0xE0 SHL SUB NOT SWAP1 SWAP6 AND DUP11 DUP4 AND OR SWAP5 SWAP1 SWAP5 OR SWAP2 DUP3 AND DUP4 OR SWAP5 DUP6 SWAP1 SSTORE PUSH1 0x40 DUP1 MLOAD SWAP4 DUP3 AND SWAP3 DUP3 AND SWAP3 SWAP1 SWAP3 OR DUP4 MSTORE SWAP3 SWAP1 SWAP4 DIV SWAP1 SWAP2 AND PUSH1 0x20 DUP3 ADD MSTORE PUSH32 0x1C411E9A96E071241C2F21F7726B17AE89E3CAB4C78BE50E062B03A9FFFBBAD1 SWAP2 ADD PUSH1 0x40 MLOAD DUP1 SWAP2 SUB SWAP1 LOG1 POP POP POP POP JUMP JUMPDEST PUSH1 0x40 DUP1 MLOAD PUSH1 0x1 PUSH1 0x1 PUSH1 0xA0 SHL SUB DUP5 DUP2 AND PUSH1 0x24 DUP4 ADD MSTORE PUSH1 0x44 DUP1 DUP4 ADD DUP6 SWAP1 MSTORE DUP4 MLOAD DUP1 DUP5 SUB SWAP1 SWAP2 ADD DUP2 MSTORE PUSH1 0x64 SWAP1 SWAP3 ADD DUP4 MSTORE PUSH1 0x20 DUP3 ADD DUP1 MLOAD PUSH1 0x1 PUSH1 0x1 PUSH1 0xE0 SHL SUB AND PUSH4 0xA9059CBB PUSH1 0xE0 SHL OR SWAP1 MSTORE SWAP2 MLOAD PUSH1 0x0 SWAP3 DUP4 SWAP3 SWAP1 DUP8 AND SWAP2 PUSH2 0xD50 SWAP2 SWAP1 PUSH2 0x1046 JUMP JUMPDEST PUSH1 0x0 PUSH1 0x40 MLOAD DUP1 DUP4 SUB DUP2 PUSH1 0x0 DUP7 GAS CALL SWAP2 POP POP RETURNDATASIZE DUP1 PUSH1 0x0 DUP2 EQ PUSH2 0xD8D JUMPI PUSH1 0x40 MLOAD SWAP2 POP PUSH1 0x1F NOT PUSH1 0x3F RETURNDATASIZE ADD AND DUP3 ADD PUSH1 0x40 MSTORE RETURNDATASIZE DUP3 MSTORE RETURNDATASIZE PUSH1 0x0 PUSH1 0x20 DUP5 ADD RETURNDATACOPY PUSH2 0xD92 JUMP JUMPDEST PUSH1 0x60 SWAP2 POP JUMPDEST POP SWAP2 POP SWAP2 POP DUP2 DUP1 ISZERO PUSH2 0xDBC JUMPI POP DUP1 MLOAD ISZERO DUP1 PUSH2 0xDBC JUMPI POP DUP1 DUP1 PUSH1 0x20 ADD SWAP1 MLOAD DUP2 ADD SWAP1 PUSH2 0xDBC SWAP2 SWAP1 PUSH2 0x1062 JUMP JUMPDEST PUSH2 0xE08 JUMPI PUSH1 0x40 MLOAD PUSH3 0x461BCD PUSH1 0xE5 SHL DUP2 MSTORE PUSH1 0x20 PUSH1 0x4 DUP3 ADD MSTORE PUSH1 0x18 PUSH1 0x24 DUP3 ADD MSTORE PUSH32 0x58554C537761703A205452414E534645525F4641494C45440000000000000000 PUSH1 0x44 DUP3 ADD MSTORE PUSH1 0x64 ADD PUSH2 0x395 JUMP JUMPDEST POP POP POP POP POP JUMP JUMPDEST PUSH1 0x1 PUSH1 0x1 PUSH1 0xA0 SHL SUB DUP3 AND PUSH1 0x0 SWAP1 DUP2 MSTORE PUSH1 0x4 PUSH1 0x20 MSTORE PUSH1 0x40 DUP2 KECCAK256 DUP1 SLOAD DUP4 SWAP3 SWAP1 PUSH2 0xE37 SWAP1 DUP5 SWAP1 PUSH2 0xFE7 JUMP JUMPDEST SWAP3 POP POP DUP2 SWAP1 SSTORE POP DUP1 PUSH1 0x3 PUSH1 0x0 DUP3 DUP3 SLOAD PUSH2 0xE50 SWAP2 SWAP1 PUSH2 0xFE7 JUMP JUMPDEST SWAP1 SWAP2 SSTORE POP POP PUSH1 0x40 MLOAD DUP2 DUP2 MSTORE PUSH1 0x0 SWAP1 PUSH1 0x1 PUSH1 0x1 PUSH1 0xA0 SHL SUB DUP5 AND SWAP1 PUSH32 0xDDF252AD1BE2C89B69C2B068FC378DAA952BA7F163C4A11628F55A4DF523B3EF SWAP1 PUSH1 0x20 ADD PUSH2 0xC38 JUMP JUMPDEST PUSH1 0x0 JUMPDEST DUP4 DUP2 LT ISZERO PUSH2 0xEAE JUMPI DUP2 DUP2 ADD MLOAD DUP4 DUP3 ADD MSTORE PUSH1 0x20 ADD PUSH2 0xE96 JUMP JUMPDEST POP POP PUSH1 0x0 SWAP2 ADD MSTORE JUMP JUMPDEST PUSH1 0x20 DUP2 MSTORE PUSH1 0x0 DUP3 MLOAD DUP1 PUSH1 0x20 DUP5 ADD MSTORE PUSH2 0xED6 DUP2 PUSH1 0x40 DUP6 ADD PUSH1 0x20 DUP8 ADD PUSH2 0xE93 JUMP JUMPDEST PUSH1 0x1F ADD PUSH1 0x1F NOT AND SWAP2 SWAP1 SWAP2 ADD PUSH1 0x40 ADD SWAP3 SWAP2 POP POP JUMP JUMPDEST DUP1 CALLDATALOAD PUSH1 0x1 PUSH1 0x1 PUSH1 0xA0 SHL SUB DUP2 AND DUP2 EQ PUSH2 0xBB3 JUMPI PUSH1 0x0 DUP1 REVERT JUMPDEST PUSH1 0x0 DUP1 PUSH1 0x40 DUP4 DUP6 SUB SLT ISZERO PUSH2 0xF14 JUMPI PUSH1 0x0 DUP1 REVERT JUMPDEST PUSH2 0xF1D DUP4 PUSH2 0xEEA JUMP JUMPDEST SWAP2 POP PUSH2 0xF2B PUSH1 0x20 DUP5 ADD PUSH2 0xEEA JUMP JUMPDEST SWAP1 POP SWAP3 POP SWAP3 SWAP1 POP JUMP JUMPDEST PUSH1 0x0 PUSH1 0x20 DUP3 DUP5 SUB SLT ISZERO PUSH2 0xF46 JUMPI PUSH1 0x0 DUP1 REVERT JUMPDEST PUSH2 0xC55 DUP3 PUSH2 0xEEA JUMP JUMPDEST PUSH1 0x0 DUP1 PUSH1 0x0 PUSH1 0x60 DUP5 DUP7 SUB SLT ISZERO PUSH2 0xF64 JUMPI PUSH1 0x0 DUP1 REVERT JUMPDEST DUP4 CALLDATALOAD SWAP3 POP PUSH1 0x20 DUP5 ADD CALLDATALOAD SWAP2 POP PUSH2 0xF7B PUSH1 0x40 DUP6 ADD PUSH2 0xEEA JUMP JUMPDEST SWAP1 POP SWAP3 POP SWAP3 POP SWAP3 JUMP JUMPDEST PUSH1 0x1 DUP2 DUP2 SHR SWAP1 DUP3 AND DUP1 PUSH2 0xF98 JUMPI PUSH1 0x7F DUP3 AND SWAP2 POP JUMPDEST PUSH1 0x20 DUP3 LT DUP2 SUB PUSH2 0xBA3 JUMPI PUSH4 0x4E487B71 PUSH1 0xE0 SHL PUSH1 0x0 MSTORE PUSH1 0x22 PUSH1 0x4 MSTORE PUSH1 0x24 PUSH1 0x0 REVERT JUMPDEST PUSH1 0x0 PUSH1 0x20 DUP3 DUP5 SUB SLT ISZERO PUSH2 0xFCA JUMPI PUSH1 0x0 DUP1 REVERT JUMPDEST POP MLOAD SWAP2 SWAP1 POP JUMP JUMPDEST PUSH4 0x4E487B71 PUSH1 0xE0 SHL PUSH1 0x0 MSTORE PUSH1 0x11 PUSH1 0x4 MSTORE PUSH1 0x24 PUSH1 0x0 REVERT JUMPDEST DUP2 DUP2 SUB DUP2 DUP2 GT ISZERO PUSH2 0xC58 JUMPI PUSH2 0xC58 PUSH2 0xFD1 JUMP JUMPDEST DUP1 DUP3 MUL DUP2 ISZERO DUP3 DUP3 DIV DUP5 EQ OR PUSH2 0xC58 JUMPI PUSH2 0xC58 PUSH2 0xFD1 JUMP JUMPDEST PUSH1 0x0 DUP3 PUSH2 0x102E JUMPI PUSH4 0x4E487B71 PUSH1 0xE0 SHL PUSH1 0x0 MSTORE PUSH1 0x12 PUSH1 0x4 MSTORE PUSH1 0x24 PUSH1 0x0 REVERT JUMPDEST POP DIV SWAP1 JUMP JUMPDEST DUP1 DUP3 ADD DUP1 DUP3 GT ISZERO PUSH2 0xC58 JUMPI PUSH2 0xC58 PUSH2 0xFD1 JUMP JUMPDEST PUSH1 0x0 DUP3 MLOAD PUSH2 0x1058 DUP2 DUP5 PUSH1 0x20 DUP8 ADD PUSH2 0xE93 JUMP JUMPDEST SWAP2 SWAP1 SWAP2 ADD SWAP3 SWAP2 POP POP JUMP JUMPDEST PUSH1 0x0 PUSH1 0x20 DUP3 DUP5 SUB SLT ISZERO PUSH2 0x1074 JUMPI PUSH1 0x0 DUP1 REVERT JUMPDEST DUP2 MLOAD DUP1 ISZERO ISZERO DUP2 EQ PUSH2 0x1084 JUMPI PUSH1 0x0 DUP1 REVERT JUMPDEST SWAP4 SWAP3 POP POP POP JUMP INVALID LOG2 PUSH5 0x6970667358 0x22 SLT KECCAK256 0xCA PC 0xBB 0x25 0xE6 PUSH27 0xF434F8F69D60483E409C12CC09461F4A588582346DF76033975B64 PUSH20 0x6F6C63430008140033A2646970667358221220E5 CREATE CALL 0xC3 PUSH26 0x2D979D4E0FF6BBC2A3A7B2BD942D2F7A635C89CD79EF72139C00 CALLVALUE PUSH5 0x736F6C6343 STOP ADDMOD EQ STOP CALLER "},"methodIdentifiers":{"allPairs(uint256)":"1e3dd18b","allPairsLength()":"574f2ba3","createPair(address,address)":"c9c65396","feeTo()":"017e7e58","feeToSetter()":"094b7415","getPair(address,address)":"e6a43905","owner()":"8da5cb5b","setFeeTo(address)":"f46901ed","setFeeToSetter(address)":"a2e74af6"}}}}}