{"contracts/XULSwapRouter.sol":{"XULSwapRouter":{"abi":[{"inputs":[{"internalType":"address","name":"_factory","type":"address"},{"internalType":"address","name":"_WXUL","type":"address"}],"stateMutability":"nonpayable","type":"constructor"},{"inputs":[],"name":"WXUL","outputs":[{"internalType":"address","name":"","type":"address"}],"stateMutability":"view","type":"function"},{"inputs":[{"internalType":"address","name":"tokenA","type":"address"},{"internalType":"address","name":"tokenB","type":"address"},{"internalType":"uint256","name":"amountADesired","type":"uint256"},{"internalType":"uint256","name":"amountBDesired","type":"uint256"},{"internalType":"uint256","name":"amountAMin","type":"uint256"},{"internalType":"uint256","name":"amountBMin","type":"uint256"},{"internalType":"address","name":"to","type":"address"},{"internalType":"uint256","name":"deadline","type":"uint256"}],"name":"addLiquidity","outputs":[{"internalType":"uint256","name":"amountA","type":"uint256"},{"internalType":"uint256","name":"amountB","type":"uint256"},{"internalType":"uint256","name":"liquidity","type":"uint256"}],"stateMutability":"nonpayable","type":"function"},{"inputs":[],"name":"factory","outputs":[{"internalType":"address","name":"","type":"address"}],"stateMutability":"view","type":"function"},{"inputs":[{"internalType":"uint256","name":"amountIn","type":"uint256"},{"internalType":"address","name":"pair","type":"address"}],"name":"getAmountOut","outputs":[{"internalType":"uint256","name":"","type":"uint256"}],"stateMutability":"view","type":"function"},{"inputs":[{"internalType":"uint256","name":"amountIn","type":"uint256"},{"internalType":"address[]","name":"path","type":"address[]"}],"name":"getAmountsOut","outputs":[{"internalType":"uint256[]","name":"","type":"uint256[]"}],"stateMutability":"view","type":"function"},{"inputs":[{"internalType":"address","name":"tokenA","type":"address"},{"internalType":"address","name":"tokenB","type":"address"},{"internalType":"uint256","name":"liquidity","type":"uint256"},{"internalType":"uint256","name":"amountAMin","type":"uint256"},{"internalType":"uint256","name":"amountBMin","type":"uint256"},{"internalType":"address","name":"to","type":"address"},{"internalType":"uint256","name":"deadline","type":"uint256"}],"name":"removeLiquidity","outputs":[{"internalType":"uint256","name":"amountA","type":"uint256"},{"internalType":"uint256","name":"amountB","type":"uint256"}],"stateMutability":"nonpayable","type":"function"},{"inputs":[{"internalType":"uint256","name":"amountIn","type":"uint256"},{"internalType":"uint256","name":"amountOutMin","type":"uint256"},{"internalType":"address[]","name":"path","type":"address[]"},{"internalType":"address","name":"to","type":"address"},{"internalType":"uint256","name":"deadline","type":"uint256"}],"name":"swapExactTokensForTokens","outputs":[{"internalType":"uint256[]","name":"amounts","type":"uint256[]"}],"stateMutability":"nonpayable","type":"function"}],"evm":{"bytecode":{"linkReferences":{},"object":"608060405234801561001057600080fd5b5060405161120938038061120983398101604081905261002f9161007c565b600080546001600160a01b039384166001600160a01b031991821617909155600180549290931691161790556100af565b80516001600160a01b038116811461007757600080fd5b919050565b6000806040838503121561008f57600080fd5b61009883610060565b91506100a660208401610060565b90509250929050565b61114b806100be6000396000f3fe608060405234801561001057600080fd5b506004361061007d5760003560e01c8063d06ca61f1161005b578063d06ca61f146100fe578063e8e3370014610111578063f140a35a1461013f578063f1efe19a1461016057600080fd5b806338ed173914610082578063baa2abde146100ab578063c45a0155146100d3575b600080fd5b610095610090366004610c5b565b610173565b6040516100a29190610cfd565b60405180910390f35b6100be6100b9366004610d41565b610487565b604080519283526020830191909152016100a2565b6000546100e6906001600160a01b031681565b6040516001600160a01b0390911681526020016100a2565b61009561010c366004610dc9565b610622565b61012461011f366004610e9a565b6107f9565b604080519384526020840192909252908201526060016100a2565b61015261014d366004610f16565b610b0d565b6040519081526020016100a2565b6001546100e6906001600160a01b031681565b60608367ffffffffffffffff81111561018e5761018e610db3565b6040519080825280602002602001820160405280156101b7578160200160208202803683370190505b50905086816000815181106101ce576101ce610f46565b60200260200101818152505060005b6101e8600186610f72565b81101561047c5760008087878481811061020457610204610f46565b90506020020160208101906102199190610f85565b8888610226866001610fa9565b81811061023557610235610f46565b905060200201602081019061024a9190610f85565b915091506000816001600160a01b0316836001600160a01b031610610270578183610273565b82825b506000805460405163e6a4390560e01b81526001600160a01b03808516600483015286811660248301529394509192169063e6a4390590604401602060405180830381865afa1580156102ca573d6000803e3d6000fd5b505050506040513d601f19601f820116820180604052508101906102ee9190610fbc565b9050600061031587878151811061030757610307610f46565b602002602001015183610b0d565b90508087610324886001610fa9565b8151811061033457610334610f46565b602002602001018181525050600080846001600160a01b0316876001600160a01b03161461036457826000610368565b6000835b91509150866001600160a01b03166323b872dd33868c8c8151811061038f5761038f610f46565b60200260200101516040518463ffffffff1660e01b81526004016103b593929190610fd9565b6020604051808303816000875af11580156103d4573d6000803e3d6000fd5b505050506040513d601f19601f820116820180604052508101906103f89190610ffd565b506040516336cd320560e11b815260048101839052602481018290526001600160a01b038c81166044830152851690636d9a640a90606401600060405180830381600087803b15801561044a57600080fd5b505af115801561045e573d6000803e3d6000fd5b505050505050505050505080806104749061101f565b9150506101dd565b509695505050505050565b600080600080896001600160a01b03168b6001600160a01b0316106104ad57898b6104b0565b8a8a5b6000805460405163e6a4390560e01b81526001600160a01b03808616600483015280851660248301529496509294509092169063e6a4390590604401602060405180830381865afa158015610509573d6000803e3d6000fd5b505050506040513d601f19601f8201168201806040525081019061052d9190610fbc565b6040516323b872dd60e01b81529091506001600160a01b038216906323b872dd9061056090339085908f90600401610fd9565b6020604051808303816000875af115801561057f573d6000803e3d6000fd5b505050506040513d601f19601f820116820180604052508101906105a39190610ffd565b5060405163226bf2d160e21b81526001600160a01b0388811660048301528216906389afcb449060240160408051808303816000875af11580156105eb573d6000803e3d6000fd5b505050506040513d601f19601f8201168201806040525081019061060f9190611038565b909d909c509a5050505050505050505050565b60606000825167ffffffffffffffff81111561064057610640610db3565b604051908082528060200260200182016040528015610669578160200160208202803683370190505b509050838160008151811061068057610680610f46565b60200260200101818152505060005b6001845161069d9190610f72565b8110156107ef576000808583815181106106b9576106b9610f46565b6020026020010151868460016106cf9190610fa9565b815181106106df576106df610f46565b6020026020010151915091506000816001600160a01b0316836001600160a01b03161061070d578183610710565b82825b506000805460405163e6a4390560e01b81526001600160a01b03808516600483015286811660248301529394509192169063e6a4390590604401602060405180830381865afa158015610767573d6000803e3d6000fd5b505050506040513d601f19601f8201168201806040525081019061078b9190610fbc565b90506107b08686815181106107a2576107a2610f46565b602002602001015182610b0d565b866107bc876001610fa9565b815181106107cc576107cc610f46565b6020026020010181815250505050505080806107e79061101f565b91505061068f565b5090505b92915050565b60008060008060008b6001600160a01b03168d6001600160a01b031610610821578b8d610824565b8c8c5b6000805460405163e6a4390560e01b81526001600160a01b03808616600483015280851660248301529496509294509092169063e6a4390590604401602060405180830381865afa15801561087d573d6000803e3d6000fd5b505050506040513d601f19601f820116820180604052508101906108a19190610fbc565b90506001600160a01b0381166109a3576000546040516364e329cb60e11b81526001600160a01b03858116600483015284811660248301529091169063c9c65396906044016020604051808303816000875af1158015610905573d6000803e3d6000fd5b505050506040513d601f19601f820116820180604052508101906109299190610fbc565b5060005460405163e6a4390560e01b81526001600160a01b03858116600483015284811660248301529091169063e6a4390590604401602060405180830381865afa15801561097c573d6000803e3d6000fd5b505050506040513d601f19601f820116820180604052508101906109a09190610fbc565b90505b8d6001600160a01b03166323b872dd33838f6040518463ffffffff1660e01b81526004016109d393929190610fd9565b6020604051808303816000875af11580156109f2573d6000803e3d6000fd5b505050506040513d601f19601f82011682018060405250810190610a169190610ffd565b508c6001600160a01b03166323b872dd33838e6040518463ffffffff1660e01b8152600401610a4793929190610fd9565b6020604051808303816000875af1158015610a66573d6000803e3d6000fd5b505050506040513d601f19601f82011682018060405250810190610a8a9190610ffd565b506040516335313c2160e11b81526001600160a01b038981166004830152821690636a627842906024016020604051808303816000875af1158015610ad3573d6000803e3d6000fd5b505050506040513d601f19601f82011682018060405250810190610af7919061105c565b9b9e9a9d509a9b50989950505050505050505050565b6000806000836001600160a01b0316630902f1ac6040518163ffffffff1660e01b8152600401606060405180830381865afa158015610b50573d6000803e3d6000fd5b505050506040513d601f19601f82011682018060405250810190610b74919061108c565b506001600160701b031691506001600160701b03169150600082118015610b9b5750600081115b610be45760405162461bcd60e51b8152602060048201526016602482015275494e53554646494349454e545f4c495155494449545960501b604482015260640160405180910390fd5b6000610bf2866103e56110dc565b90506000610c0083836110dc565b9050600082610c11866103e86110dc565b610c1b9190610fa9565b9050610c2781836110f3565b98975050505050505050565b6001600160a01b0381168114610c4857600080fd5b50565b8035610c5681610c33565b919050565b60008060008060008060a08789031215610c7457600080fd5b8635955060208701359450604087013567ffffffffffffffff80821115610c9a57600080fd5b818901915089601f830112610cae57600080fd5b813581811115610cbd57600080fd5b8a60208260051b8501011115610cd257600080fd5b602083019650809550505050610cea60608801610c4b565b9150608087013590509295509295509295565b6020808252825182820181905260009190848201906040850190845b81811015610d3557835183529284019291840191600101610d19565b50909695505050505050565b600080600080600080600060e0888a031215610d5c57600080fd5b8735610d6781610c33565b96506020880135610d7781610c33565b955060408801359450606088013593506080880135925060a0880135610d9c81610c33565b8092505060c0880135905092959891949750929550565b634e487b7160e01b600052604160045260246000fd5b60008060408385031215610ddc57600080fd5b8235915060208084013567ffffffffffffffff80821115610dfc57600080fd5b818601915086601f830112610e1057600080fd5b813581811115610e2257610e22610db3565b8060051b604051601f19603f83011681018181108582111715610e4757610e47610db3565b604052918252848201925083810185019189831115610e6557600080fd5b938501935b82851015610e8a57610e7b85610c4b565b84529385019392850192610e6a565b8096505050505050509250929050565b600080600080600080600080610100898b031215610eb757600080fd5b8835610ec281610c33565b97506020890135610ed281610c33565b965060408901359550606089013594506080890135935060a0890135925060c0890135610efe81610c33565b8092505060e089013590509295985092959890939650565b60008060408385031215610f2957600080fd5b823591506020830135610f3b81610c33565b809150509250929050565b634e487b7160e01b600052603260045260246000fd5b634e487b7160e01b600052601160045260246000fd5b818103818111156107f3576107f3610f5c565b600060208284031215610f9757600080fd5b8135610fa281610c33565b9392505050565b808201808211156107f3576107f3610f5c565b600060208284031215610fce57600080fd5b8151610fa281610c33565b6001600160a01b039384168152919092166020820152604081019190915260600190565b60006020828403121561100f57600080fd5b81518015158114610fa257600080fd5b60006001820161103157611031610f5c565b5060010190565b6000806040838503121561104b57600080fd5b505080516020909101519092909150565b60006020828403121561106e57600080fd5b5051919050565b80516001600160701b0381168114610c5657600080fd5b6000806000606084860312156110a157600080fd5b6110aa84611075565b92506110b860208501611075565b9150604084015163ffffffff811681146110d157600080fd5b809150509250925092565b80820281158282048414176107f3576107f3610f5c565b60008261111057634e487b7160e01b600052601260045260246000fd5b50049056fea26469706673582212205950173ae9dab688ce9025240537c40989db49a1959fd3791e05b665f2e046c364736f6c63430008140033","opcodes":"PUSH1 0x80 PUSH1 0x40 MSTORE CALLVALUE DUP1 ISZERO PUSH2 0x10 JUMPI PUSH1 0x0 DUP1 REVERT JUMPDEST POP PUSH1 0x40 MLOAD PUSH2 0x1209 CODESIZE SUB DUP1 PUSH2 0x1209 DUP4 CODECOPY DUP2 ADD PUSH1 0x40 DUP2 SWAP1 MSTORE PUSH2 0x2F SWAP2 PUSH2 0x7C JUMP JUMPDEST PUSH1 0x0 DUP1 SLOAD PUSH1 0x1 PUSH1 0x1 PUSH1 0xA0 SHL SUB SWAP4 DUP5 AND PUSH1 0x1 PUSH1 0x1 PUSH1 0xA0 SHL SUB NOT SWAP2 DUP3 AND OR SWAP1 SWAP2 SSTORE PUSH1 0x1 DUP1 SLOAD SWAP3 SWAP1 SWAP4 AND SWAP2 AND OR SWAP1 SSTORE PUSH2 0xAF JUMP JUMPDEST DUP1 MLOAD PUSH1 0x1 PUSH1 0x1 PUSH1 0xA0 SHL SUB DUP2 AND DUP2 EQ PUSH2 0x77 JUMPI PUSH1 0x0 DUP1 REVERT JUMPDEST SWAP2 SWAP1 POP JUMP JUMPDEST PUSH1 0x0 DUP1 PUSH1 0x40 DUP4 DUP6 SUB SLT ISZERO PUSH2 0x8F JUMPI PUSH1 0x0 DUP1 REVERT JUMPDEST PUSH2 0x98 DUP4 PUSH2 0x60 JUMP JUMPDEST SWAP2 POP PUSH2 0xA6 PUSH1 0x20 DUP5 ADD PUSH2 0x60 JUMP JUMPDEST SWAP1 POP SWAP3 POP SWAP3 SWAP1 POP JUMP JUMPDEST PUSH2 0x114B DUP1 PUSH2 0xBE PUSH1 0x0 CODECOPY PUSH1 0x0 RETURN INVALID PUSH1 0x80 PUSH1 0x40 MSTORE CALLVALUE DUP1 ISZERO PUSH2 0x10 JUMPI PUSH1 0x0 DUP1 REVERT JUMPDEST POP PUSH1 0x4 CALLDATASIZE LT PUSH2 0x7D JUMPI PUSH1 0x0 CALLDATALOAD PUSH1 0xE0 SHR DUP1 PUSH4 0xD06CA61F GT PUSH2 0x5B JUMPI DUP1 PUSH4 0xD06CA61F EQ PUSH2 0xFE JUMPI DUP1 PUSH4 0xE8E33700 EQ PUSH2 0x111 JUMPI DUP1 PUSH4 0xF140A35A EQ PUSH2 0x13F JUMPI DUP1 PUSH4 0xF1EFE19A EQ PUSH2 0x160 JUMPI PUSH1 0x0 DUP1 REVERT JUMPDEST DUP1 PUSH4 0x38ED1739 EQ PUSH2 0x82 JUMPI DUP1 PUSH4 0xBAA2ABDE EQ PUSH2 0xAB JUMPI DUP1 PUSH4 0xC45A0155 EQ PUSH2 0xD3 JUMPI JUMPDEST PUSH1 0x0 DUP1 REVERT JUMPDEST PUSH2 0x95 PUSH2 0x90 CALLDATASIZE PUSH1 0x4 PUSH2 0xC5B JUMP JUMPDEST PUSH2 0x173 JUMP JUMPDEST PUSH1 0x40 MLOAD PUSH2 0xA2 SWAP2 SWAP1 PUSH2 0xCFD JUMP JUMPDEST PUSH1 0x40 MLOAD DUP1 SWAP2 SUB SWAP1 RETURN JUMPDEST PUSH2 0xBE PUSH2 0xB9 CALLDATASIZE PUSH1 0x4 PUSH2 0xD41 JUMP JUMPDEST PUSH2 0x487 JUMP JUMPDEST PUSH1 0x40 DUP1 MLOAD SWAP3 DUP4 MSTORE PUSH1 0x20 DUP4 ADD SWAP2 SWAP1 SWAP2 MSTORE ADD PUSH2 0xA2 JUMP JUMPDEST PUSH1 0x0 SLOAD PUSH2 0xE6 SWAP1 PUSH1 0x1 PUSH1 0x1 PUSH1 0xA0 SHL SUB AND DUP2 JUMP JUMPDEST PUSH1 0x40 MLOAD PUSH1 0x1 PUSH1 0x1 PUSH1 0xA0 SHL SUB SWAP1 SWAP2 AND DUP2 MSTORE PUSH1 0x20 ADD PUSH2 0xA2 JUMP JUMPDEST PUSH2 0x95 PUSH2 0x10C CALLDATASIZE PUSH1 0x4 PUSH2 0xDC9 JUMP JUMPDEST PUSH2 0x622 JUMP JUMPDEST PUSH2 0x124 PUSH2 0x11F CALLDATASIZE PUSH1 0x4 PUSH2 0xE9A JUMP JUMPDEST PUSH2 0x7F9 JUMP JUMPDEST PUSH1 0x40 DUP1 MLOAD SWAP4 DUP5 MSTORE PUSH1 0x20 DUP5 ADD SWAP3 SWAP1 SWAP3 MSTORE SWAP1 DUP3 ADD MSTORE PUSH1 0x60 ADD PUSH2 0xA2 JUMP JUMPDEST PUSH2 0x152 PUSH2 0x14D CALLDATASIZE PUSH1 0x4 PUSH2 0xF16 JUMP JUMPDEST PUSH2 0xB0D JUMP JUMPDEST PUSH1 0x40 MLOAD SWAP1 DUP2 MSTORE PUSH1 0x20 ADD PUSH2 0xA2 JUMP JUMPDEST PUSH1 0x1 SLOAD PUSH2 0xE6 SWAP1 PUSH1 0x1 PUSH1 0x1 PUSH1 0xA0 SHL SUB AND DUP2 JUMP JUMPDEST PUSH1 0x60 DUP4 PUSH8 0xFFFFFFFFFFFFFFFF DUP2 GT ISZERO PUSH2 0x18E JUMPI PUSH2 0x18E PUSH2 0xDB3 JUMP JUMPDEST PUSH1 0x40 MLOAD SWAP1 DUP1 DUP3 MSTORE DUP1 PUSH1 0x20 MUL PUSH1 0x20 ADD DUP3 ADD PUSH1 0x40 MSTORE DUP1 ISZERO PUSH2 0x1B7 JUMPI DUP2 PUSH1 0x20 ADD PUSH1 0x20 DUP3 MUL DUP1 CALLDATASIZE DUP4 CALLDATACOPY ADD SWAP1 POP JUMPDEST POP SWAP1 POP DUP7 DUP2 PUSH1 0x0 DUP2 MLOAD DUP2 LT PUSH2 0x1CE JUMPI PUSH2 0x1CE PUSH2 0xF46 JUMP JUMPDEST PUSH1 0x20 MUL PUSH1 0x20 ADD ADD DUP2 DUP2 MSTORE POP POP PUSH1 0x0 JUMPDEST PUSH2 0x1E8 PUSH1 0x1 DUP7 PUSH2 0xF72 JUMP JUMPDEST DUP2 LT ISZERO PUSH2 0x47C JUMPI PUSH1 0x0 DUP1 DUP8 DUP8 DUP5 DUP2 DUP2 LT PUSH2 0x204 JUMPI PUSH2 0x204 PUSH2 0xF46 JUMP JUMPDEST SWAP1 POP PUSH1 0x20 MUL ADD PUSH1 0x20 DUP2 ADD SWAP1 PUSH2 0x219 SWAP2 SWAP1 PUSH2 0xF85 JUMP JUMPDEST DUP9 DUP9 PUSH2 0x226 DUP7 PUSH1 0x1 PUSH2 0xFA9 JUMP JUMPDEST DUP2 DUP2 LT PUSH2 0x235 JUMPI PUSH2 0x235 PUSH2 0xF46 JUMP JUMPDEST SWAP1 POP PUSH1 0x20 MUL ADD PUSH1 0x20 DUP2 ADD SWAP1 PUSH2 0x24A SWAP2 SWAP1 PUSH2 0xF85 JUMP JUMPDEST SWAP2 POP SWAP2 POP PUSH1 0x0 DUP2 PUSH1 0x1 PUSH1 0x1 PUSH1 0xA0 SHL SUB AND DUP4 PUSH1 0x1 PUSH1 0x1 PUSH1 0xA0 SHL SUB AND LT PUSH2 0x270 JUMPI DUP2 DUP4 PUSH2 0x273 JUMP JUMPDEST DUP3 DUP3 JUMPDEST POP PUSH1 0x0 DUP1 SLOAD PUSH1 0x40 MLOAD PUSH4 0xE6A43905 PUSH1 0xE0 SHL DUP2 MSTORE PUSH1 0x1 PUSH1 0x1 PUSH1 0xA0 SHL SUB DUP1 DUP6 AND PUSH1 0x4 DUP4 ADD MSTORE DUP7 DUP2 AND PUSH1 0x24 DUP4 ADD MSTORE SWAP4 SWAP5 POP SWAP2 SWAP3 AND SWAP1 PUSH4 0xE6A43905 SWAP1 PUSH1 0x44 ADD PUSH1 0x20 PUSH1 0x40 MLOAD DUP1 DUP4 SUB DUP2 DUP7 GAS STATICCALL ISZERO DUP1 ISZERO PUSH2 0x2CA JUMPI RETURNDATASIZE PUSH1 0x0 DUP1 RETURNDATACOPY RETURNDATASIZE PUSH1 0x0 REVERT JUMPDEST POP POP POP POP PUSH1 0x40 MLOAD RETURNDATASIZE PUSH1 0x1F NOT PUSH1 0x1F DUP3 ADD AND DUP3 ADD DUP1 PUSH1 0x40 MSTORE POP DUP2 ADD SWAP1 PUSH2 0x2EE SWAP2 SWAP1 PUSH2 0xFBC JUMP JUMPDEST SWAP1 POP PUSH1 0x0 PUSH2 0x315 DUP8 DUP8 DUP2 MLOAD DUP2 LT PUSH2 0x307 JUMPI PUSH2 0x307 PUSH2 0xF46 JUMP JUMPDEST PUSH1 0x20 MUL PUSH1 0x20 ADD ADD MLOAD DUP4 PUSH2 0xB0D JUMP JUMPDEST SWAP1 POP DUP1 DUP8 PUSH2 0x324 DUP9 PUSH1 0x1 PUSH2 0xFA9 JUMP JUMPDEST DUP2 MLOAD DUP2 LT PUSH2 0x334 JUMPI PUSH2 0x334 PUSH2 0xF46 JUMP JUMPDEST PUSH1 0x20 MUL PUSH1 0x20 ADD ADD DUP2 DUP2 MSTORE POP POP PUSH1 0x0 DUP1 DUP5 PUSH1 0x1 PUSH1 0x1 PUSH1 0xA0 SHL SUB AND DUP8 PUSH1 0x1 PUSH1 0x1 PUSH1 0xA0 SHL SUB AND EQ PUSH2 0x364 JUMPI DUP3 PUSH1 0x0 PUSH2 0x368 JUMP JUMPDEST PUSH1 0x0 DUP4 JUMPDEST SWAP2 POP SWAP2 POP DUP7 PUSH1 0x1 PUSH1 0x1 PUSH1 0xA0 SHL SUB AND PUSH4 0x23B872DD CALLER DUP7 DUP13 DUP13 DUP2 MLOAD DUP2 LT PUSH2 0x38F JUMPI PUSH2 0x38F PUSH2 0xF46 JUMP JUMPDEST PUSH1 0x20 MUL PUSH1 0x20 ADD ADD MLOAD PUSH1 0x40 MLOAD DUP5 PUSH4 0xFFFFFFFF AND PUSH1 0xE0 SHL DUP2 MSTORE PUSH1 0x4 ADD PUSH2 0x3B5 SWAP4 SWAP3 SWAP2 SWAP1 PUSH2 0xFD9 JUMP JUMPDEST PUSH1 0x20 PUSH1 0x40 MLOAD DUP1 DUP4 SUB DUP2 PUSH1 0x0 DUP8 GAS CALL ISZERO DUP1 ISZERO PUSH2 0x3D4 JUMPI RETURNDATASIZE PUSH1 0x0 DUP1 RETURNDATACOPY RETURNDATASIZE PUSH1 0x0 REVERT JUMPDEST POP POP POP POP PUSH1 0x40 MLOAD RETURNDATASIZE PUSH1 0x1F NOT PUSH1 0x1F DUP3 ADD AND DUP3 ADD DUP1 PUSH1 0x40 MSTORE POP DUP2 ADD SWAP1 PUSH2 0x3F8 SWAP2 SWAP1 PUSH2 0xFFD JUMP JUMPDEST POP PUSH1 0x40 MLOAD PUSH4 0x36CD3205 PUSH1 0xE1 SHL DUP2 MSTORE PUSH1 0x4 DUP2 ADD DUP4 SWAP1 MSTORE PUSH1 0x24 DUP2 ADD DUP3 SWAP1 MSTORE PUSH1 0x1 PUSH1 0x1 PUSH1 0xA0 SHL SUB DUP13 DUP2 AND PUSH1 0x44 DUP4 ADD MSTORE DUP6 AND SWAP1 PUSH4 0x6D9A640A SWAP1 PUSH1 0x64 ADD PUSH1 0x0 PUSH1 0x40 MLOAD DUP1 DUP4 SUB DUP2 PUSH1 0x0 DUP8 DUP1 EXTCODESIZE ISZERO DUP1 ISZERO PUSH2 0x44A JUMPI PUSH1 0x0 DUP1 REVERT JUMPDEST POP GAS CALL ISZERO DUP1 ISZERO PUSH2 0x45E JUMPI RETURNDATASIZE PUSH1 0x0 DUP1 RETURNDATACOPY RETURNDATASIZE PUSH1 0x0 REVERT JUMPDEST POP POP POP POP POP POP POP POP POP POP POP DUP1 DUP1 PUSH2 0x474 SWAP1 PUSH2 0x101F JUMP JUMPDEST SWAP2 POP POP PUSH2 0x1DD JUMP JUMPDEST POP SWAP7 SWAP6 POP POP POP POP POP POP JUMP JUMPDEST PUSH1 0x0 DUP1 PUSH1 0x0 DUP1 DUP10 PUSH1 0x1 PUSH1 0x1 PUSH1 0xA0 SHL SUB AND DUP12 PUSH1 0x1 PUSH1 0x1 PUSH1 0xA0 SHL SUB AND LT PUSH2 0x4AD JUMPI DUP10 DUP12 PUSH2 0x4B0 JUMP JUMPDEST DUP11 DUP11 JUMPDEST PUSH1 0x0 DUP1 SLOAD PUSH1 0x40 MLOAD PUSH4 0xE6A43905 PUSH1 0xE0 SHL DUP2 MSTORE PUSH1 0x1 PUSH1 0x1 PUSH1 0xA0 SHL SUB DUP1 DUP7 AND PUSH1 0x4 DUP4 ADD MSTORE DUP1 DUP6 AND PUSH1 0x24 DUP4 ADD MSTORE SWAP5 SWAP7 POP SWAP3 SWAP5 POP SWAP1 SWAP3 AND SWAP1 PUSH4 0xE6A43905 SWAP1 PUSH1 0x44 ADD PUSH1 0x20 PUSH1 0x40 MLOAD DUP1 DUP4 SUB DUP2 DUP7 GAS STATICCALL ISZERO DUP1 ISZERO PUSH2 0x509 JUMPI RETURNDATASIZE PUSH1 0x0 DUP1 RETURNDATACOPY RETURNDATASIZE PUSH1 0x0 REVERT JUMPDEST POP POP POP POP PUSH1 0x40 MLOAD RETURNDATASIZE PUSH1 0x1F NOT PUSH1 0x1F DUP3 ADD AND DUP3 ADD DUP1 PUSH1 0x40 MSTORE POP DUP2 ADD SWAP1 PUSH2 0x52D SWAP2 SWAP1 PUSH2 0xFBC JUMP JUMPDEST PUSH1 0x40 MLOAD PUSH4 0x23B872DD PUSH1 0xE0 SHL DUP2 MSTORE SWAP1 SWAP2 POP PUSH1 0x1 PUSH1 0x1 PUSH1 0xA0 SHL SUB DUP3 AND SWAP1 PUSH4 0x23B872DD SWAP1 PUSH2 0x560 SWAP1 CALLER SWAP1 DUP6 SWAP1 DUP16 SWAP1 PUSH1 0x4 ADD PUSH2 0xFD9 JUMP JUMPDEST PUSH1 0x20 PUSH1 0x40 MLOAD DUP1 DUP4 SUB DUP2 PUSH1 0x0 DUP8 GAS CALL ISZERO DUP1 ISZERO PUSH2 0x57F JUMPI RETURNDATASIZE PUSH1 0x0 DUP1 RETURNDATACOPY RETURNDATASIZE PUSH1 0x0 REVERT JUMPDEST POP POP POP POP PUSH1 0x40 MLOAD RETURNDATASIZE PUSH1 0x1F NOT PUSH1 0x1F DUP3 ADD AND DUP3 ADD DUP1 PUSH1 0x40 MSTORE POP DUP2 ADD SWAP1 PUSH2 0x5A3 SWAP2 SWAP1 PUSH2 0xFFD JUMP JUMPDEST POP PUSH1 0x40 MLOAD PUSH4 0x226BF2D1 PUSH1 0xE2 SHL DUP2 MSTORE PUSH1 0x1 PUSH1 0x1 PUSH1 0xA0 SHL SUB DUP9 DUP2 AND PUSH1 0x4 DUP4 ADD MSTORE DUP3 AND SWAP1 PUSH4 0x89AFCB44 SWAP1 PUSH1 0x24 ADD PUSH1 0x40 DUP1 MLOAD DUP1 DUP4 SUB DUP2 PUSH1 0x0 DUP8 GAS CALL ISZERO DUP1 ISZERO PUSH2 0x5EB JUMPI RETURNDATASIZE PUSH1 0x0 DUP1 RETURNDATACOPY RETURNDATASIZE PUSH1 0x0 REVERT JUMPDEST POP POP POP POP PUSH1 0x40 MLOAD RETURNDATASIZE PUSH1 0x1F NOT PUSH1 0x1F DUP3 ADD AND DUP3 ADD DUP1 PUSH1 0x40 MSTORE POP DUP2 ADD SWAP1 PUSH2 0x60F SWAP2 SWAP1 PUSH2 0x1038 JUMP JUMPDEST SWAP1 SWAP14 SWAP1 SWAP13 POP SWAP11 POP POP POP POP POP POP POP POP POP POP POP JUMP JUMPDEST PUSH1 0x60 PUSH1 0x0 DUP3 MLOAD PUSH8 0xFFFFFFFFFFFFFFFF DUP2 GT ISZERO PUSH2 0x640 JUMPI PUSH2 0x640 PUSH2 0xDB3 JUMP JUMPDEST PUSH1 0x40 MLOAD SWAP1 DUP1 DUP3 MSTORE DUP1 PUSH1 0x20 MUL PUSH1 0x20 ADD DUP3 ADD PUSH1 0x40 MSTORE DUP1 ISZERO PUSH2 0x669 JUMPI DUP2 PUSH1 0x20 ADD PUSH1 0x20 DUP3 MUL DUP1 CALLDATASIZE DUP4 CALLDATACOPY ADD SWAP1 POP JUMPDEST POP SWAP1 POP DUP4 DUP2 PUSH1 0x0 DUP2 MLOAD DUP2 LT PUSH2 0x680 JUMPI PUSH2 0x680 PUSH2 0xF46 JUMP JUMPDEST PUSH1 0x20 MUL PUSH1 0x20 ADD ADD DUP2 DUP2 MSTORE POP POP PUSH1 0x0 JUMPDEST PUSH1 0x1 DUP5 MLOAD PUSH2 0x69D SWAP2 SWAP1 PUSH2 0xF72 JUMP JUMPDEST DUP2 LT ISZERO PUSH2 0x7EF JUMPI PUSH1 0x0 DUP1 DUP6 DUP4 DUP2 MLOAD DUP2 LT PUSH2 0x6B9 JUMPI PUSH2 0x6B9 PUSH2 0xF46 JUMP JUMPDEST PUSH1 0x20 MUL PUSH1 0x20 ADD ADD MLOAD DUP7 DUP5 PUSH1 0x1 PUSH2 0x6CF SWAP2 SWAP1 PUSH2 0xFA9 JUMP JUMPDEST DUP2 MLOAD DUP2 LT PUSH2 0x6DF JUMPI PUSH2 0x6DF PUSH2 0xF46 JUMP JUMPDEST PUSH1 0x20 MUL PUSH1 0x20 ADD ADD MLOAD SWAP2 POP SWAP2 POP PUSH1 0x0 DUP2 PUSH1 0x1 PUSH1 0x1 PUSH1 0xA0 SHL SUB AND DUP4 PUSH1 0x1 PUSH1 0x1 PUSH1 0xA0 SHL SUB AND LT PUSH2 0x70D JUMPI DUP2 DUP4 PUSH2 0x710 JUMP JUMPDEST DUP3 DUP3 JUMPDEST POP PUSH1 0x0 DUP1 SLOAD PUSH1 0x40 MLOAD PUSH4 0xE6A43905 PUSH1 0xE0 SHL DUP2 MSTORE PUSH1 0x1 PUSH1 0x1 PUSH1 0xA0 SHL SUB DUP1 DUP6 AND PUSH1 0x4 DUP4 ADD MSTORE DUP7 DUP2 AND PUSH1 0x24 DUP4 ADD MSTORE SWAP4 SWAP5 POP SWAP2 SWAP3 AND SWAP1 PUSH4 0xE6A43905 SWAP1 PUSH1 0x44 ADD PUSH1 0x20 PUSH1 0x40 MLOAD DUP1 DUP4 SUB DUP2 DUP7 GAS STATICCALL ISZERO DUP1 ISZERO PUSH2 0x767 JUMPI RETURNDATASIZE PUSH1 0x0 DUP1 RETURNDATACOPY RETURNDATASIZE PUSH1 0x0 REVERT JUMPDEST POP POP POP POP PUSH1 0x40 MLOAD RETURNDATASIZE PUSH1 0x1F NOT PUSH1 0x1F DUP3 ADD AND DUP3 ADD DUP1 PUSH1 0x40 MSTORE POP DUP2 ADD SWAP1 PUSH2 0x78B SWAP2 SWAP1 PUSH2 0xFBC JUMP JUMPDEST SWAP1 POP PUSH2 0x7B0 DUP7 DUP7 DUP2 MLOAD DUP2 LT PUSH2 0x7A2 JUMPI PUSH2 0x7A2 PUSH2 0xF46 JUMP JUMPDEST PUSH1 0x20 MUL PUSH1 0x20 ADD ADD MLOAD DUP3 PUSH2 0xB0D JUMP JUMPDEST DUP7 PUSH2 0x7BC DUP8 PUSH1 0x1 PUSH2 0xFA9 JUMP JUMPDEST DUP2 MLOAD DUP2 LT PUSH2 0x7CC JUMPI PUSH2 0x7CC PUSH2 0xF46 JUMP JUMPDEST PUSH1 0x20 MUL PUSH1 0x20 ADD ADD DUP2 DUP2 MSTORE POP POP POP POP POP POP DUP1 DUP1 PUSH2 0x7E7 SWAP1 PUSH2 0x101F JUMP JUMPDEST SWAP2 POP POP PUSH2 0x68F JUMP JUMPDEST POP SWAP1 POP JUMPDEST SWAP3 SWAP2 POP POP JUMP JUMPDEST PUSH1 0x0 DUP1 PUSH1 0x0 DUP1 PUSH1 0x0 DUP12 PUSH1 0x1 PUSH1 0x1 PUSH1 0xA0 SHL SUB AND DUP14 PUSH1 0x1 PUSH1 0x1 PUSH1 0xA0 SHL SUB AND LT PUSH2 0x821 JUMPI DUP12 DUP14 PUSH2 0x824 JUMP JUMPDEST DUP13 DUP13 JUMPDEST PUSH1 0x0 DUP1 SLOAD PUSH1 0x40 MLOAD PUSH4 0xE6A43905 PUSH1 0xE0 SHL DUP2 MSTORE PUSH1 0x1 PUSH1 0x1 PUSH1 0xA0 SHL SUB DUP1 DUP7 AND PUSH1 0x4 DUP4 ADD MSTORE DUP1 DUP6 AND PUSH1 0x24 DUP4 ADD MSTORE SWAP5 SWAP7 POP SWAP3 SWAP5 POP SWAP1 SWAP3 AND SWAP1 PUSH4 0xE6A43905 SWAP1 PUSH1 0x44 ADD PUSH1 0x20 PUSH1 0x40 MLOAD DUP1 DUP4 SUB DUP2 DUP7 GAS STATICCALL ISZERO DUP1 ISZERO PUSH2 0x87D JUMPI RETURNDATASIZE PUSH1 0x0 DUP1 RETURNDATACOPY RETURNDATASIZE PUSH1 0x0 REVERT JUMPDEST POP POP POP POP PUSH1 0x40 MLOAD RETURNDATASIZE PUSH1 0x1F NOT PUSH1 0x1F DUP3 ADD AND DUP3 ADD DUP1 PUSH1 0x40 MSTORE POP DUP2 ADD SWAP1 PUSH2 0x8A1 SWAP2 SWAP1 PUSH2 0xFBC JUMP JUMPDEST SWAP1 POP PUSH1 0x1 PUSH1 0x1 PUSH1 0xA0 SHL SUB DUP2 AND PUSH2 0x9A3 JUMPI PUSH1 0x0 SLOAD PUSH1 0x40 MLOAD PUSH4 0x64E329CB PUSH1 0xE1 SHL DUP2 MSTORE PUSH1 0x1 PUSH1 0x1 PUSH1 0xA0 SHL SUB DUP6 DUP2 AND PUSH1 0x4 DUP4 ADD MSTORE DUP5 DUP2 AND PUSH1 0x24 DUP4 ADD MSTORE SWAP1 SWAP2 AND SWAP1 PUSH4 0xC9C65396 SWAP1 PUSH1 0x44 ADD PUSH1 0x20 PUSH1 0x40 MLOAD DUP1 DUP4 SUB DUP2 PUSH1 0x0 DUP8 GAS CALL ISZERO DUP1 ISZERO PUSH2 0x905 JUMPI RETURNDATASIZE PUSH1 0x0 DUP1 RETURNDATACOPY RETURNDATASIZE PUSH1 0x0 REVERT JUMPDEST POP POP POP POP PUSH1 0x40 MLOAD RETURNDATASIZE PUSH1 0x1F NOT PUSH1 0x1F DUP3 ADD AND DUP3 ADD DUP1 PUSH1 0x40 MSTORE POP DUP2 ADD SWAP1 PUSH2 0x929 SWAP2 SWAP1 PUSH2 0xFBC JUMP JUMPDEST POP PUSH1 0x0 SLOAD PUSH1 0x40 MLOAD PUSH4 0xE6A43905 PUSH1 0xE0 SHL DUP2 MSTORE PUSH1 0x1 PUSH1 0x1 PUSH1 0xA0 SHL SUB DUP6 DUP2 AND PUSH1 0x4 DUP4 ADD MSTORE DUP5 DUP2 AND PUSH1 0x24 DUP4 ADD MSTORE SWAP1 SWAP2 AND SWAP1 PUSH4 0xE6A43905 SWAP1 PUSH1 0x44 ADD PUSH1 0x20 PUSH1 0x40 MLOAD DUP1 DUP4 SUB DUP2 DUP7 GAS STATICCALL ISZERO DUP1 ISZERO PUSH2 0x97C JUMPI RETURNDATASIZE PUSH1 0x0 DUP1 RETURNDATACOPY RETURNDATASIZE PUSH1 0x0 REVERT JUMPDEST POP POP POP POP PUSH1 0x40 MLOAD RETURNDATASIZE PUSH1 0x1F NOT PUSH1 0x1F DUP3 ADD AND DUP3 ADD DUP1 PUSH1 0x40 MSTORE POP DUP2 ADD SWAP1 PUSH2 0x9A0 SWAP2 SWAP1 PUSH2 0xFBC JUMP JUMPDEST SWAP1 POP JUMPDEST DUP14 PUSH1 0x1 PUSH1 0x1 PUSH1 0xA0 SHL SUB AND PUSH4 0x23B872DD CALLER DUP4 DUP16 PUSH1 0x40 MLOAD DUP5 PUSH4 0xFFFFFFFF AND PUSH1 0xE0 SHL DUP2 MSTORE PUSH1 0x4 ADD PUSH2 0x9D3 SWAP4 SWAP3 SWAP2 SWAP1 PUSH2 0xFD9 JUMP JUMPDEST PUSH1 0x20 PUSH1 0x40 MLOAD DUP1 DUP4 SUB DUP2 PUSH1 0x0 DUP8 GAS CALL ISZERO DUP1 ISZERO PUSH2 0x9F2 JUMPI RETURNDATASIZE PUSH1 0x0 DUP1 RETURNDATACOPY RETURNDATASIZE PUSH1 0x0 REVERT JUMPDEST POP POP POP POP PUSH1 0x40 MLOAD RETURNDATASIZE PUSH1 0x1F NOT PUSH1 0x1F DUP3 ADD AND DUP3 ADD DUP1 PUSH1 0x40 MSTORE POP DUP2 ADD SWAP1 PUSH2 0xA16 SWAP2 SWAP1 PUSH2 0xFFD JUMP JUMPDEST POP DUP13 PUSH1 0x1 PUSH1 0x1 PUSH1 0xA0 SHL SUB AND PUSH4 0x23B872DD CALLER DUP4 DUP15 PUSH1 0x40 MLOAD DUP5 PUSH4 0xFFFFFFFF AND PUSH1 0xE0 SHL DUP2 MSTORE PUSH1 0x4 ADD PUSH2 0xA47 SWAP4 SWAP3 SWAP2 SWAP1 PUSH2 0xFD9 JUMP JUMPDEST PUSH1 0x20 PUSH1 0x40 MLOAD DUP1 DUP4 SUB DUP2 PUSH1 0x0 DUP8 GAS CALL ISZERO DUP1 ISZERO PUSH2 0xA66 JUMPI RETURNDATASIZE PUSH1 0x0 DUP1 RETURNDATACOPY RETURNDATASIZE PUSH1 0x0 REVERT JUMPDEST POP POP POP POP PUSH1 0x40 MLOAD RETURNDATASIZE PUSH1 0x1F NOT PUSH1 0x1F DUP3 ADD AND DUP3 ADD DUP1 PUSH1 0x40 MSTORE POP DUP2 ADD SWAP1 PUSH2 0xA8A SWAP2 SWAP1 PUSH2 0xFFD JUMP JUMPDEST POP PUSH1 0x40 MLOAD PUSH4 0x35313C21 PUSH1 0xE1 SHL DUP2 MSTORE PUSH1 0x1 PUSH1 0x1 PUSH1 0xA0 SHL SUB DUP10 DUP2 AND PUSH1 0x4 DUP4 ADD MSTORE DUP3 AND SWAP1 PUSH4 0x6A627842 SWAP1 PUSH1 0x24 ADD PUSH1 0x20 PUSH1 0x40 MLOAD DUP1 DUP4 SUB DUP2 PUSH1 0x0 DUP8 GAS CALL ISZERO DUP1 ISZERO PUSH2 0xAD3 JUMPI RETURNDATASIZE PUSH1 0x0 DUP1 RETURNDATACOPY RETURNDATASIZE PUSH1 0x0 REVERT JUMPDEST POP POP POP POP PUSH1 0x40 MLOAD RETURNDATASIZE PUSH1 0x1F NOT PUSH1 0x1F DUP3 ADD AND DUP3 ADD DUP1 PUSH1 0x40 MSTORE POP DUP2 ADD SWAP1 PUSH2 0xAF7 SWAP2 SWAP1 PUSH2 0x105C JUMP JUMPDEST SWAP12 SWAP15 SWAP11 SWAP14 POP SWAP11 SWAP12 POP SWAP9 SWAP10 POP POP POP POP POP POP POP POP POP POP JUMP JUMPDEST PUSH1 0x0 DUP1 PUSH1 0x0 DUP4 PUSH1 0x1 PUSH1 0x1 PUSH1 0xA0 SHL SUB AND PUSH4 0x902F1AC PUSH1 0x40 MLOAD DUP2 PUSH4 0xFFFFFFFF AND PUSH1 0xE0 SHL DUP2 MSTORE PUSH1 0x4 ADD PUSH1 0x60 PUSH1 0x40 MLOAD DUP1 DUP4 SUB DUP2 DUP7 GAS STATICCALL ISZERO DUP1 ISZERO PUSH2 0xB50 JUMPI RETURNDATASIZE PUSH1 0x0 DUP1 RETURNDATACOPY RETURNDATASIZE PUSH1 0x0 REVERT JUMPDEST POP POP POP POP PUSH1 0x40 MLOAD RETURNDATASIZE PUSH1 0x1F NOT PUSH1 0x1F DUP3 ADD AND DUP3 ADD DUP1 PUSH1 0x40 MSTORE POP DUP2 ADD SWAP1 PUSH2 0xB74 SWAP2 SWAP1 PUSH2 0x108C JUMP JUMPDEST POP PUSH1 0x1 PUSH1 0x1 PUSH1 0x70 SHL SUB AND SWAP2 POP PUSH1 0x1 PUSH1 0x1 PUSH1 0x70 SHL SUB AND SWAP2 POP PUSH1 0x0 DUP3 GT DUP1 ISZERO PUSH2 0xB9B JUMPI POP PUSH1 0x0 DUP2 GT JUMPDEST PUSH2 0xBE4 JUMPI PUSH1 0x40 MLOAD PUSH3 0x461BCD PUSH1 0xE5 SHL DUP2 MSTORE PUSH1 0x20 PUSH1 0x4 DUP3 ADD MSTORE PUSH1 0x16 PUSH1 0x24 DUP3 ADD MSTORE PUSH22 0x494E53554646494349454E545F4C4951554944495459 PUSH1 0x50 SHL PUSH1 0x44 DUP3 ADD MSTORE PUSH1 0x64 ADD PUSH1 0x40 MLOAD DUP1 SWAP2 SUB SWAP1 REVERT JUMPDEST PUSH1 0x0 PUSH2 0xBF2 DUP7 PUSH2 0x3E5 PUSH2 0x10DC JUMP JUMPDEST SWAP1 POP PUSH1 0x0 PUSH2 0xC00 DUP4 DUP4 PUSH2 0x10DC JUMP JUMPDEST SWAP1 POP PUSH1 0x0 DUP3 PUSH2 0xC11 DUP7 PUSH2 0x3E8 PUSH2 0x10DC JUMP JUMPDEST PUSH2 0xC1B SWAP2 SWAP1 PUSH2 0xFA9 JUMP JUMPDEST SWAP1 POP PUSH2 0xC27 DUP2 DUP4 PUSH2 0x10F3 JUMP JUMPDEST SWAP9 SWAP8 POP POP POP POP POP POP POP POP JUMP JUMPDEST PUSH1 0x1 PUSH1 0x1 PUSH1 0xA0 SHL SUB DUP2 AND DUP2 EQ PUSH2 0xC48 JUMPI PUSH1 0x0 DUP1 REVERT JUMPDEST POP JUMP JUMPDEST DUP1 CALLDATALOAD PUSH2 0xC56 DUP2 PUSH2 0xC33 JUMP JUMPDEST SWAP2 SWAP1 POP JUMP JUMPDEST PUSH1 0x0 DUP1 PUSH1 0x0 DUP1 PUSH1 0x0 DUP1 PUSH1 0xA0 DUP8 DUP10 SUB SLT ISZERO PUSH2 0xC74 JUMPI PUSH1 0x0 DUP1 REVERT JUMPDEST DUP7 CALLDATALOAD SWAP6 POP PUSH1 0x20 DUP8 ADD CALLDATALOAD SWAP5 POP PUSH1 0x40 DUP8 ADD CALLDATALOAD PUSH8 0xFFFFFFFFFFFFFFFF DUP1 DUP3 GT ISZERO PUSH2 0xC9A JUMPI PUSH1 0x0 DUP1 REVERT JUMPDEST DUP2 DUP10 ADD SWAP2 POP DUP10 PUSH1 0x1F DUP4 ADD SLT PUSH2 0xCAE JUMPI PUSH1 0x0 DUP1 REVERT JUMPDEST DUP2 CALLDATALOAD DUP2 DUP2 GT ISZERO PUSH2 0xCBD JUMPI PUSH1 0x0 DUP1 REVERT JUMPDEST DUP11 PUSH1 0x20 DUP3 PUSH1 0x5 SHL DUP6 ADD ADD GT ISZERO PUSH2 0xCD2 JUMPI PUSH1 0x0 DUP1 REVERT JUMPDEST PUSH1 0x20 DUP4 ADD SWAP7 POP DUP1 SWAP6 POP POP POP POP PUSH2 0xCEA PUSH1 0x60 DUP9 ADD PUSH2 0xC4B JUMP JUMPDEST SWAP2 POP PUSH1 0x80 DUP8 ADD CALLDATALOAD SWAP1 POP SWAP3 SWAP6 POP SWAP3 SWAP6 POP SWAP3 SWAP6 JUMP JUMPDEST PUSH1 0x20 DUP1 DUP3 MSTORE DUP3 MLOAD DUP3 DUP3 ADD DUP2 SWAP1 MSTORE PUSH1 0x0 SWAP2 SWAP1 DUP5 DUP3 ADD SWAP1 PUSH1 0x40 DUP6 ADD SWAP1 DUP5 JUMPDEST DUP2 DUP2 LT ISZERO PUSH2 0xD35 JUMPI DUP4 MLOAD DUP4 MSTORE SWAP3 DUP5 ADD SWAP3 SWAP2 DUP5 ADD SWAP2 PUSH1 0x1 ADD PUSH2 0xD19 JUMP JUMPDEST POP SWAP1 SWAP7 SWAP6 POP POP POP POP POP POP JUMP JUMPDEST PUSH1 0x0 DUP1 PUSH1 0x0 DUP1 PUSH1 0x0 DUP1 PUSH1 0x0 PUSH1 0xE0 DUP9 DUP11 SUB SLT ISZERO PUSH2 0xD5C JUMPI PUSH1 0x0 DUP1 REVERT JUMPDEST DUP8 CALLDATALOAD PUSH2 0xD67 DUP2 PUSH2 0xC33 JUMP JUMPDEST SWAP7 POP PUSH1 0x20 DUP9 ADD CALLDATALOAD PUSH2 0xD77 DUP2 PUSH2 0xC33 JUMP JUMPDEST SWAP6 POP PUSH1 0x40 DUP9 ADD CALLDATALOAD SWAP5 POP PUSH1 0x60 DUP9 ADD CALLDATALOAD SWAP4 POP PUSH1 0x80 DUP9 ADD CALLDATALOAD SWAP3 POP PUSH1 0xA0 DUP9 ADD CALLDATALOAD PUSH2 0xD9C DUP2 PUSH2 0xC33 JUMP JUMPDEST DUP1 SWAP3 POP POP PUSH1 0xC0 DUP9 ADD CALLDATALOAD SWAP1 POP SWAP3 SWAP6 SWAP9 SWAP2 SWAP5 SWAP8 POP SWAP3 SWAP6 POP JUMP JUMPDEST PUSH4 0x4E487B71 PUSH1 0xE0 SHL PUSH1 0x0 MSTORE PUSH1 0x41 PUSH1 0x4 MSTORE PUSH1 0x24 PUSH1 0x0 REVERT JUMPDEST PUSH1 0x0 DUP1 PUSH1 0x40 DUP4 DUP6 SUB SLT ISZERO PUSH2 0xDDC JUMPI PUSH1 0x0 DUP1 REVERT JUMPDEST DUP3 CALLDATALOAD SWAP2 POP PUSH1 0x20 DUP1 DUP5 ADD CALLDATALOAD PUSH8 0xFFFFFFFFFFFFFFFF DUP1 DUP3 GT ISZERO PUSH2 0xDFC JUMPI PUSH1 0x0 DUP1 REVERT JUMPDEST DUP2 DUP7 ADD SWAP2 POP DUP7 PUSH1 0x1F DUP4 ADD SLT PUSH2 0xE10 JUMPI PUSH1 0x0 DUP1 REVERT JUMPDEST DUP2 CALLDATALOAD DUP2 DUP2 GT ISZERO PUSH2 0xE22 JUMPI PUSH2 0xE22 PUSH2 0xDB3 JUMP JUMPDEST DUP1 PUSH1 0x5 SHL PUSH1 0x40 MLOAD PUSH1 0x1F NOT PUSH1 0x3F DUP4 ADD AND DUP2 ADD DUP2 DUP2 LT DUP6 DUP3 GT OR ISZERO PUSH2 0xE47 JUMPI PUSH2 0xE47 PUSH2 0xDB3 JUMP JUMPDEST PUSH1 0x40 MSTORE SWAP2 DUP3 MSTORE DUP5 DUP3 ADD SWAP3 POP DUP4 DUP2 ADD DUP6 ADD SWAP2 DUP10 DUP4 GT ISZERO PUSH2 0xE65 JUMPI PUSH1 0x0 DUP1 REVERT JUMPDEST SWAP4 DUP6 ADD SWAP4 JUMPDEST DUP3 DUP6 LT ISZERO PUSH2 0xE8A JUMPI PUSH2 0xE7B DUP6 PUSH2 0xC4B JUMP JUMPDEST DUP5 MSTORE SWAP4 DUP6 ADD SWAP4 SWAP3 DUP6 ADD SWAP3 PUSH2 0xE6A JUMP JUMPDEST DUP1 SWAP7 POP POP POP POP POP POP POP SWAP3 POP SWAP3 SWAP1 POP JUMP JUMPDEST PUSH1 0x0 DUP1 PUSH1 0x0 DUP1 PUSH1 0x0 DUP1 PUSH1 0x0 DUP1 PUSH2 0x100 DUP10 DUP12 SUB SLT ISZERO PUSH2 0xEB7 JUMPI PUSH1 0x0 DUP1 REVERT JUMPDEST DUP9 CALLDATALOAD PUSH2 0xEC2 DUP2 PUSH2 0xC33 JUMP JUMPDEST SWAP8 POP PUSH1 0x20 DUP10 ADD CALLDATALOAD PUSH2 0xED2 DUP2 PUSH2 0xC33 JUMP JUMPDEST SWAP7 POP PUSH1 0x40 DUP10 ADD CALLDATALOAD SWAP6 POP PUSH1 0x60 DUP10 ADD CALLDATALOAD SWAP5 POP PUSH1 0x80 DUP10 ADD CALLDATALOAD SWAP4 POP PUSH1 0xA0 DUP10 ADD CALLDATALOAD SWAP3 POP PUSH1 0xC0 DUP10 ADD CALLDATALOAD PUSH2 0xEFE DUP2 PUSH2 0xC33 JUMP JUMPDEST DUP1 SWAP3 POP POP PUSH1 0xE0 DUP10 ADD CALLDATALOAD SWAP1 POP SWAP3 SWAP6 SWAP9 POP SWAP3 SWAP6 SWAP9 SWAP1 SWAP4 SWAP7 POP JUMP JUMPDEST PUSH1 0x0 DUP1 PUSH1 0x40 DUP4 DUP6 SUB SLT ISZERO PUSH2 0xF29 JUMPI PUSH1 0x0 DUP1 REVERT JUMPDEST DUP3 CALLDATALOAD SWAP2 POP PUSH1 0x20 DUP4 ADD CALLDATALOAD PUSH2 0xF3B DUP2 PUSH2 0xC33 JUMP JUMPDEST DUP1 SWAP2 POP POP SWAP3 POP SWAP3 SWAP1 POP JUMP JUMPDEST PUSH4 0x4E487B71 PUSH1 0xE0 SHL PUSH1 0x0 MSTORE PUSH1 0x32 PUSH1 0x4 MSTORE PUSH1 0x24 PUSH1 0x0 REVERT JUMPDEST PUSH4 0x4E487B71 PUSH1 0xE0 SHL PUSH1 0x0 MSTORE PUSH1 0x11 PUSH1 0x4 MSTORE PUSH1 0x24 PUSH1 0x0 REVERT JUMPDEST DUP2 DUP2 SUB DUP2 DUP2 GT ISZERO PUSH2 0x7F3 JUMPI PUSH2 0x7F3 PUSH2 0xF5C JUMP JUMPDEST PUSH1 0x0 PUSH1 0x20 DUP3 DUP5 SUB SLT ISZERO PUSH2 0xF97 JUMPI PUSH1 0x0 DUP1 REVERT JUMPDEST DUP2 CALLDATALOAD PUSH2 0xFA2 DUP2 PUSH2 0xC33 JUMP JUMPDEST SWAP4 SWAP3 POP POP POP JUMP JUMPDEST DUP1 DUP3 ADD DUP1 DUP3 GT ISZERO PUSH2 0x7F3 JUMPI PUSH2 0x7F3 PUSH2 0xF5C JUMP JUMPDEST PUSH1 0x0 PUSH1 0x20 DUP3 DUP5 SUB SLT ISZERO PUSH2 0xFCE JUMPI PUSH1 0x0 DUP1 REVERT JUMPDEST DUP2 MLOAD PUSH2 0xFA2 DUP2 PUSH2 0xC33 JUMP JUMPDEST PUSH1 0x1 PUSH1 0x1 PUSH1 0xA0 SHL SUB SWAP4 DUP5 AND DUP2 MSTORE SWAP2 SWAP1 SWAP3 AND PUSH1 0x20 DUP3 ADD MSTORE PUSH1 0x40 DUP2 ADD SWAP2 SWAP1 SWAP2 MSTORE PUSH1 0x60 ADD SWAP1 JUMP JUMPDEST PUSH1 0x0 PUSH1 0x20 DUP3 DUP5 SUB SLT ISZERO PUSH2 0x100F JUMPI PUSH1 0x0 DUP1 REVERT JUMPDEST DUP2 MLOAD DUP1 ISZERO ISZERO DUP2 EQ PUSH2 0xFA2 JUMPI PUSH1 0x0 DUP1 REVERT JUMPDEST PUSH1 0x0 PUSH1 0x1 DUP3 ADD PUSH2 0x1031 JUMPI PUSH2 0x1031 PUSH2 0xF5C JUMP JUMPDEST POP PUSH1 0x1 ADD SWAP1 JUMP JUMPDEST PUSH1 0x0 DUP1 PUSH1 0x40 DUP4 DUP6 SUB SLT ISZERO PUSH2 0x104B JUMPI PUSH1 0x0 DUP1 REVERT JUMPDEST POP POP DUP1 MLOAD PUSH1 0x20 SWAP1 SWAP2 ADD MLOAD SWAP1 SWAP3 SWAP1 SWAP2 POP JUMP JUMPDEST PUSH1 0x0 PUSH1 0x20 DUP3 DUP5 SUB SLT ISZERO PUSH2 0x106E JUMPI PUSH1 0x0 DUP1 REVERT JUMPDEST POP MLOAD SWAP2 SWAP1 POP JUMP JUMPDEST DUP1 MLOAD PUSH1 0x1 PUSH1 0x1 PUSH1 0x70 SHL SUB DUP2 AND DUP2 EQ PUSH2 0xC56 JUMPI PUSH1 0x0 DUP1 REVERT JUMPDEST PUSH1 0x0 DUP1 PUSH1 0x0 PUSH1 0x60 DUP5 DUP7 SUB SLT ISZERO PUSH2 0x10A1 JUMPI PUSH1 0x0 DUP1 REVERT JUMPDEST PUSH2 0x10AA DUP5 PUSH2 0x1075 JUMP JUMPDEST SWAP3 POP PUSH2 0x10B8 PUSH1 0x20 DUP6 ADD PUSH2 0x1075 JUMP JUMPDEST SWAP2 POP PUSH1 0x40 DUP5 ADD MLOAD PUSH4 0xFFFFFFFF DUP2 AND DUP2 EQ PUSH2 0x10D1 JUMPI PUSH1 0x0 DUP1 REVERT JUMPDEST DUP1 SWAP2 POP POP SWAP3 POP SWAP3 POP SWAP3 JUMP JUMPDEST DUP1 DUP3 MUL DUP2 ISZERO DUP3 DUP3 DIV DUP5 EQ OR PUSH2 0x7F3 JUMPI PUSH2 0x7F3 PUSH2 0xF5C JUMP JUMPDEST PUSH1 0x0 DUP3 PUSH2 0x1110 JUMPI PUSH4 0x4E487B71 PUSH1 0xE0 SHL PUSH1 0x0 MSTORE PUSH1 0x12 PUSH1 0x4 MSTORE PUSH1 0x24 PUSH1 0x0 REVERT JUMPDEST POP DIV SWAP1 JUMP INVALID LOG2 PUSH5 0x6970667358 0x22 SLT KECCAK256 MSIZE POP OR GASPRICE 0xE9 0xDA 0xB6 DUP9 0xCE SWAP1 0x25 0x24 SDIV CALLDATACOPY 0xC4 MULMOD DUP10 0xDB 0x49 LOG1 SWAP6 SWAP16 0xD3 PUSH26 0x1E05B665F2E046C364736F6C6343000814003300000000000000 "},"methodIdentifiers":{"WXUL()":"f1efe19a","addLiquidity(address,address,uint256,uint256,uint256,uint256,address,uint256)":"e8e33700","factory()":"c45a0155","getAmountOut(uint256,address)":"f140a35a","getAmountsOut(uint256,address[])":"d06ca61f","removeLiquidity(address,address,uint256,uint256,uint256,address,uint256)":"baa2abde","swapExactTokensForTokens(uint256,uint256,address[],address,uint256)":"38ed1739"}}}}}