{
  "_format": "hh-sol-artifact-1",
  "contractName": "XULAIAgentRegistry",
  "sourceName": "contracts/XULAdvanced.sol",
  "abi": [
    {
      "inputs": [],
      "stateMutability": "nonpayable",
      "type": "constructor"
    },
    {
      "anonymous": false,
      "inputs": [
        {
          "indexed": true,
          "internalType": "uint256",
          "name": "agentId",
          "type": "uint256"
        },
        {
          "indexed": false,
          "internalType": "bytes32",
          "name": "zkProof",
          "type": "bytes32"
        }
      ],
      "name": "ActionRecorded",
      "type": "event"
    },
    {
      "anonymous": false,
      "inputs": [
        {
          "indexed": true,
          "internalType": "uint256",
          "name": "id",
          "type": "uint256"
        },
        {
          "indexed": false,
          "internalType": "string",
          "name": "name",
          "type": "string"
        }
      ],
      "name": "AgentCreated",
      "type": "event"
    },
    {
      "anonymous": false,
      "inputs": [
        {
          "indexed": true,
          "internalType": "address",
          "name": "owner",
          "type": "address"
        },
        {
          "indexed": true,
          "internalType": "address",
          "name": "approved",
          "type": "address"
        },
        {
          "indexed": true,
          "internalType": "uint256",
          "name": "tokenId",
          "type": "uint256"
        }
      ],
      "name": "Approval",
      "type": "event"
    },
    {
      "anonymous": false,
      "inputs": [
        {
          "indexed": true,
          "internalType": "address",
          "name": "owner",
          "type": "address"
        },
        {
          "indexed": true,
          "internalType": "address",
          "name": "operator",
          "type": "address"
        },
        {
          "indexed": false,
          "internalType": "bool",
          "name": "approved",
          "type": "bool"
        }
      ],
      "name": "ApprovalForAll",
      "type": "event"
    },
    {
      "anonymous": false,
      "inputs": [
        {
          "indexed": false,
          "internalType": "uint256",
          "name": "_fromTokenId",
          "type": "uint256"
        },
        {
          "indexed": false,
          "internalType": "uint256",
          "name": "_toTokenId",
          "type": "uint256"
        }
      ],
      "name": "BatchMetadataUpdate",
      "type": "event"
    },
    {
      "anonymous": false,
      "inputs": [
        {
          "indexed": false,
          "internalType": "uint256",
          "name": "_tokenId",
          "type": "uint256"
        }
      ],
      "name": "MetadataUpdate",
      "type": "event"
    },
    {
      "anonymous": false,
      "inputs": [
        {
          "indexed": true,
          "internalType": "address",
          "name": "previousOwner",
          "type": "address"
        },
        {
          "indexed": true,
          "internalType": "address",
          "name": "newOwner",
          "type": "address"
        }
      ],
      "name": "OwnershipTransferred",
      "type": "event"
    },
    {
      "anonymous": false,
      "inputs": [
        {
          "indexed": true,
          "internalType": "address",
          "name": "from",
          "type": "address"
        },
        {
          "indexed": true,
          "internalType": "address",
          "name": "to",
          "type": "address"
        },
        {
          "indexed": true,
          "internalType": "uint256",
          "name": "tokenId",
          "type": "uint256"
        }
      ],
      "name": "Transfer",
      "type": "event"
    },
    {
      "inputs": [
        {
          "internalType": "uint256",
          "name": "",
          "type": "uint256"
        },
        {
          "internalType": "uint256",
          "name": "",
          "type": "uint256"
        }
      ],
      "name": "agentActions",
      "outputs": [
        {
          "internalType": "string",
          "name": "actionType",
          "type": "string"
        },
        {
          "internalType": "bytes32",
          "name": "zkProof",
          "type": "bytes32"
        },
        {
          "internalType": "uint256",
          "name": "timestamp",
          "type": "uint256"
        }
      ],
      "stateMutability": "view",
      "type": "function"
    },
    {
      "inputs": [
        {
          "internalType": "uint256",
          "name": "",
          "type": "uint256"
        }
      ],
      "name": "agents",
      "outputs": [
        {
          "internalType": "string",
          "name": "name",
          "type": "string"
        },
        {
          "internalType": "string",
          "name": "modelType",
          "type": "string"
        },
        {
          "internalType": "uint256",
          "name": "reputation",
          "type": "uint256"
        },
        {
          "internalType": "bool",
          "name": "isActive",
          "type": "bool"
        }
      ],
      "stateMutability": "view",
      "type": "function"
    },
    {
      "inputs": [
        {
          "internalType": "address",
          "name": "to",
          "type": "address"
        },
        {
          "internalType": "uint256",
          "name": "tokenId",
          "type": "uint256"
        }
      ],
      "name": "approve",
      "outputs": [],
      "stateMutability": "nonpayable",
      "type": "function"
    },
    {
      "inputs": [
        {
          "internalType": "address",
          "name": "owner",
          "type": "address"
        }
      ],
      "name": "balanceOf",
      "outputs": [
        {
          "internalType": "uint256",
          "name": "",
          "type": "uint256"
        }
      ],
      "stateMutability": "view",
      "type": "function"
    },
    {
      "inputs": [
        {
          "internalType": "string",
          "name": "name",
          "type": "string"
        },
        {
          "internalType": "string",
          "name": "modelType",
          "type": "string"
        },
        {
          "internalType": "string",
          "name": "configHash",
          "type": "string"
        }
      ],
      "name": "createAgent",
      "outputs": [
        {
          "internalType": "uint256",
          "name": "",
          "type": "uint256"
        }
      ],
      "stateMutability": "nonpayable",
      "type": "function"
    },
    {
      "inputs": [
        {
          "internalType": "uint256",
          "name": "tokenId",
          "type": "uint256"
        }
      ],
      "name": "getApproved",
      "outputs": [
        {
          "internalType": "address",
          "name": "",
          "type": "address"
        }
      ],
      "stateMutability": "view",
      "type": "function"
    },
    {
      "inputs": [
        {
          "internalType": "address",
          "name": "owner",
          "type": "address"
        },
        {
          "internalType": "address",
          "name": "operator",
          "type": "address"
        }
      ],
      "name": "isApprovedForAll",
      "outputs": [
        {
          "internalType": "bool",
          "name": "",
          "type": "bool"
        }
      ],
      "stateMutability": "view",
      "type": "function"
    },
    {
      "inputs": [],
      "name": "name",
      "outputs": [
        {
          "internalType": "string",
          "name": "",
          "type": "string"
        }
      ],
      "stateMutability": "view",
      "type": "function"
    },
    {
      "inputs": [],
      "name": "owner",
      "outputs": [
        {
          "internalType": "address",
          "name": "",
          "type": "address"
        }
      ],
      "stateMutability": "view",
      "type": "function"
    },
    {
      "inputs": [
        {
          "internalType": "uint256",
          "name": "tokenId",
          "type": "uint256"
        }
      ],
      "name": "ownerOf",
      "outputs": [
        {
          "internalType": "address",
          "name": "",
          "type": "address"
        }
      ],
      "stateMutability": "view",
      "type": "function"
    },
    {
      "inputs": [
        {
          "internalType": "uint256",
          "name": "agentId",
          "type": "uint256"
        },
        {
          "internalType": "string",
          "name": "actionType",
          "type": "string"
        },
        {
          "internalType": "bytes32",
          "name": "zkProof",
          "type": "bytes32"
        }
      ],
      "name": "recordAction",
      "outputs": [
        {
          "internalType": "uint256",
          "name": "",
          "type": "uint256"
        }
      ],
      "stateMutability": "nonpayable",
      "type": "function"
    },
    {
      "inputs": [],
      "name": "renounceOwnership",
      "outputs": [],
      "stateMutability": "nonpayable",
      "type": "function"
    },
    {
      "inputs": [
        {
          "internalType": "address",
          "name": "from",
          "type": "address"
        },
        {
          "internalType": "address",
          "name": "to",
          "type": "address"
        },
        {
          "internalType": "uint256",
          "name": "tokenId",
          "type": "uint256"
        }
      ],
      "name": "safeTransferFrom",
      "outputs": [],
      "stateMutability": "nonpayable",
      "type": "function"
    },
    {
      "inputs": [
        {
          "internalType": "address",
          "name": "from",
          "type": "address"
        },
        {
          "internalType": "address",
          "name": "to",
          "type": "address"
        },
        {
          "internalType": "uint256",
          "name": "tokenId",
          "type": "uint256"
        },
        {
          "internalType": "bytes",
          "name": "data",
          "type": "bytes"
        }
      ],
      "name": "safeTransferFrom",
      "outputs": [],
      "stateMutability": "nonpayable",
      "type": "function"
    },
    {
      "inputs": [
        {
          "internalType": "address",
          "name": "operator",
          "type": "address"
        },
        {
          "internalType": "bool",
          "name": "approved",
          "type": "bool"
        }
      ],
      "name": "setApprovalForAll",
      "outputs": [],
      "stateMutability": "nonpayable",
      "type": "function"
    },
    {
      "inputs": [
        {
          "internalType": "bytes4",
          "name": "interfaceId",
          "type": "bytes4"
        }
      ],
      "name": "supportsInterface",
      "outputs": [
        {
          "internalType": "bool",
          "name": "",
          "type": "bool"
        }
      ],
      "stateMutability": "view",
      "type": "function"
    },
    {
      "inputs": [],
      "name": "symbol",
      "outputs": [
        {
          "internalType": "string",
          "name": "",
          "type": "string"
        }
      ],
      "stateMutability": "view",
      "type": "function"
    },
    {
      "inputs": [
        {
          "internalType": "uint256",
          "name": "tokenId",
          "type": "uint256"
        }
      ],
      "name": "tokenURI",
      "outputs": [
        {
          "internalType": "string",
          "name": "",
          "type": "string"
        }
      ],
      "stateMutability": "view",
      "type": "function"
    },
    {
      "inputs": [
        {
          "internalType": "address",
          "name": "from",
          "type": "address"
        },
        {
          "internalType": "address",
          "name": "to",
          "type": "address"
        },
        {
          "internalType": "uint256",
          "name": "tokenId",
          "type": "uint256"
        }
      ],
      "name": "transferFrom",
      "outputs": [],
      "stateMutability": "nonpayable",
      "type": "function"
    },
    {
      "inputs": [
        {
          "internalType": "address",
          "name": "newOwner",
          "type": "address"
        }
      ],
      "name": "transferOwnership",
      "outputs": [],
      "stateMutability": "nonpayable",
      "type": "function"
    }
  ],
  "bytecode": "0x608060405234801561001057600080fd5b506040518060400160405280600c81526020016b161553081052481059d95b9d60a21b8152506040518060400160405280600581526020016458554c414960d81b81525081600090816100639190610183565b5060016100708282610183565b50505061008961008461008e60201b60201c565b610092565b610241565b3390565b600780546001600160a01b038381166001600160a01b0319831681179093556040519116919082907f8be0079c531659141344cd1fd0a4f28419497f9722a3daafe3b4186f6b6457e090600090a35050565b634e487b7160e01b600052604160045260246000fd5b600181811c9082168061010e57607f821691505b60208210810361012e57634e487b7160e01b600052602260045260246000fd5b50919050565b601f82111561017e57806000526020600020601f840160051c8101602085101561015b5750805b601f840160051c820191505b8181101561017b5760008155600101610167565b50505b505050565b81516001600160401b0381111561019c5761019c6100e4565b6101b0816101aa84546100fa565b84610134565b6020601f8211600181146101e457600083156101cc5750848201515b600019600385901b1c1916600184901b17845561017b565b600084815260208120601f198516915b8281101561021457878501518255602094850194600190920191016101f4565b50848210156102325786840151600019600387901b60f8161c191681555b50505050600190811b01905550565b611f58806102506000396000f3fe608060405234801561001057600080fd5b506004361061012c5760003560e01c8063715018a6116100ad578063c87b56dd11610071578063c87b56dd14610285578063c909d7f914610298578063e985e9c5146102ab578063f2fde38b146102be578063f3021f63146102d157600080fd5b8063715018a61461023e5780638da5cb5b1461024657806395d89b4114610257578063a22cb4651461025f578063b88d4fde1461027257600080fd5b806342842e0e116100f457806342842e0e146101c15780634744509c146101d4578063513856c8146101f55780636352211e1461021857806370a082311461022b57600080fd5b806301ffc9a71461013157806306fdde0314610159578063081812fc1461016e578063095ea7b31461019957806323b872dd146101ae575b600080fd5b61014461013f366004611783565b6102f3565b60405190151581526020015b60405180910390f35b610161610304565b60405161015091906117f0565b61018161017c366004611803565b610396565b6040516001600160a01b039091168152602001610150565b6101ac6101a7366004611838565b6103bd565b005b6101ac6101bc366004611862565b6104d7565b6101ac6101cf366004611862565b610508565b6101e76101e23660046118e8565b610523565b604051908152602001610150565b610208610203366004611803565b61069f565b604051610150949392919061193b565b610181610226366004611803565b6107db565b6101e7610239366004611979565b61083b565b6101ac6108c1565b6007546001600160a01b0316610181565b6101616108d5565b6101ac61026d366004611994565b6108e4565b6101ac6102803660046119e6565b6108f3565b610161610293366004611803565b61092b565b6101e76102a6366004611aca565b610936565b6101446102b9366004611b70565b610abe565b6101ac6102cc366004611979565b610aec565b6102e46102df366004611ba3565b610b65565b60405161015093929190611bc5565b60006102fe82610c34565b92915050565b60606000805461031390611bea565b80601f016020809104026020016040519081016040528092919081815260200182805461033f90611bea565b801561038c5780601f106103615761010080835404028352916020019161038c565b820191906000526020600020905b81548152906001019060200180831161036f57829003601f168201915b5050505050905090565b60006103a182610c59565b506000908152600460205260409020546001600160a01b031690565b60006103c8826107db565b9050806001600160a01b0316836001600160a01b03160361043a5760405162461bcd60e51b815260206004820152602160248201527f4552433732313a20617070726f76616c20746f2063757272656e74206f776e656044820152603960f91b60648201526084015b60405180910390fd5b336001600160a01b038216148061045657506104568133610abe565b6104c85760405162461bcd60e51b815260206004820152603d60248201527f4552433732313a20617070726f76652063616c6c6572206973206e6f7420746f60448201527f6b656e206f776e6572206f7220617070726f76656420666f7220616c6c0000006064820152608401610431565b6104d28383610cb8565b505050565b6104e13382610d26565b6104fd5760405162461bcd60e51b815260040161043190611c24565b6104d2838383610d84565b6104d2838383604051806020016040528060008152506108f3565b60003361052f866107db565b6001600160a01b0316146105715760405162461bcd60e51b81526020600482015260096024820152682737ba1037bbb732b960b91b6044820152606401610431565b600a6000868152602001908152602001600020604051806060016040528086868080601f016020809104026020016040519081016040528093929190818152602001838380828437600092018290525093855250505060208083018790524260409093019290925283546001810185559381522081519192600302019081906105fa9082611cbf565b5060208201516001820155604090910151600290910155811561063f5760008581526009602052604081206002018054600a9290610639908490611d94565b90915550505b847fec24d3581cc2c44a5f29d4c4c9527725706b0ae180463e657cbf4ba9f43a9e3e8360405161067191815260200190565b60405180910390a26000858152600a602052604090205461069490600190611da7565b90505b949350505050565b6009602052600090815260409020805481906106ba90611bea565b80601f01602080910402602001604051908101604052809291908181526020018280546106e690611bea565b80156107335780601f1061070857610100808354040283529160200191610733565b820191906000526020600020905b81548152906001019060200180831161071657829003601f168201915b50505050509080600101805461074890611bea565b80601f016020809104026020016040519081016040528092919081815260200182805461077490611bea565b80156107c15780601f10610796576101008083540402835291602001916107c1565b820191906000526020600020905b8154815290600101906020018083116107a457829003601f168201915b50505050600283015460039093015491929160ff16905084565b6000818152600260205260408120546001600160a01b0316806102fe5760405162461bcd60e51b8152602060048201526018602482015277115490cdcc8c4e881a5b9d985b1a59081d1bdad95b88125160421b6044820152606401610431565b60006001600160a01b0382166108a55760405162461bcd60e51b815260206004820152602960248201527f4552433732313a2061646472657373207a65726f206973206e6f7420612076616044820152683634b21037bbb732b960b91b6064820152608401610431565b506001600160a01b031660009081526003602052604090205490565b6108c9610ee8565b6108d36000610f42565b565b60606001805461031390611bea565b6108ef338383610f94565b5050565b6108fd3383610d26565b6109195760405162461bcd60e51b815260040161043190611c24565b61092584848484611062565b50505050565b60606102fe82611095565b600880546000918291908261094a83611dba565b91905055905061095a338261119d565b61099a8185858080601f0160208091040260200160405190810160405280939291908181526020018383808284376000920191909152506111b792505050565b604051806080016040528089898080601f016020809104026020016040519081016040528093929190818152602001838380828437600092019190915250505090825250604080516020601f8a0181900481028201810190925288815291810191908990899081908401838280828437600092018290525093855250505060208083018290526001604093840152848252600990522081518190610a3e9082611cbf565b5060208201516001820190610a539082611cbf565b5060408281015160028301556060909201516003909101805460ff19169115159190911790555181907ff05f0d9a285b3c98aa7f02c7f5f9e89cac939877acef26cc9006b4aa1ad0e88590610aab908b908b90611dd3565b60405180910390a2979650505050505050565b6001600160a01b03918216600090815260056020908152604080832093909416825291909152205460ff1690565b610af4610ee8565b6001600160a01b038116610b595760405162461bcd60e51b815260206004820152602660248201527f4f776e61626c653a206e6577206f776e657220697320746865207a65726f206160448201526564647265737360d01b6064820152608401610431565b610b6281610f42565b50565b600a6020528160005260406000208181548110610b8157600080fd5b906000526020600020906003020160009150915050806000018054610ba590611bea565b80601f0160208091040260200160405190810160405280929190818152602001828054610bd190611bea565b8015610c1e5780601f10610bf357610100808354040283529160200191610c1e565b820191906000526020600020905b815481529060010190602001808311610c0157829003601f168201915b5050505050908060010154908060020154905083565b60006001600160e01b03198216632483248360e11b14806102fe57506102fe82611282565b6000818152600260205260409020546001600160a01b0316610b625760405162461bcd60e51b8152602060048201526018602482015277115490cdcc8c4e881a5b9d985b1a59081d1bdad95b88125160421b6044820152606401610431565b600081815260046020526040902080546001600160a01b0319166001600160a01b0384169081179091558190610ced826107db565b6001600160a01b03167f8c5be1e5ebec7d5bd14f71427d1e84f3dd0314c0f7b2291e5b200ac8c7c3b92560405160405180910390a45050565b600080610d32836107db565b9050806001600160a01b0316846001600160a01b03161480610d595750610d598185610abe565b806106975750836001600160a01b0316610d7284610396565b6001600160a01b031614949350505050565b826001600160a01b0316610d97826107db565b6001600160a01b031614610dbd5760405162461bcd60e51b815260040161043190611e02565b6001600160a01b038216610e1f5760405162461bcd60e51b8152602060048201526024808201527f4552433732313a207472616e7366657220746f20746865207a65726f206164646044820152637265737360e01b6064820152608401610431565b826001600160a01b0316610e32826107db565b6001600160a01b031614610e585760405162461bcd60e51b815260040161043190611e02565b600081815260046020908152604080832080546001600160a01b03199081169091556001600160a01b0387811680865260038552838620805460001901905590871680865283862080546001019055868652600290945282852080549092168417909155905184937fddf252ad1be2c89b69c2b068fc378daa952ba7f163c4a11628f55a4df523b3ef91a4505050565b6007546001600160a01b031633146108d35760405162461bcd60e51b815260206004820181905260248201527f4f776e61626c653a2063616c6c6572206973206e6f7420746865206f776e65726044820152606401610431565b600780546001600160a01b038381166001600160a01b0319831681179093556040519116919082907f8be0079c531659141344cd1fd0a4f28419497f9722a3daafe3b4186f6b6457e090600090a35050565b816001600160a01b0316836001600160a01b031603610ff55760405162461bcd60e51b815260206004820152601960248201527f4552433732313a20617070726f766520746f2063616c6c6572000000000000006044820152606401610431565b6001600160a01b03838116600081815260056020908152604080832094871680845294825291829020805460ff191686151590811790915591519182527f17307eab39ab6107e8899845ad3d59bd9653f200f220920489ca2b5937696c31910160405180910390a3505050565b61106d848484610d84565b611079848484846112d2565b6109255760405162461bcd60e51b815260040161043190611e47565b60606110a082610c59565b600082815260066020526040812080546110b990611bea565b80601f01602080910402602001604051908101604052809291908181526020018280546110e590611bea565b80156111325780601f1061110757610100808354040283529160200191611132565b820191906000526020600020905b81548152906001019060200180831161111557829003601f168201915b50505050509050600061115060408051602081019091526000815290565b90508051600003611162575092915050565b81511561119457808260405160200161117c929190611e99565b60405160208183030381529060405292505050919050565b610697846113d0565b6108ef828260405180602001604052806000815250611444565b6000828152600260205260409020546001600160a01b03166112325760405162461bcd60e51b815260206004820152602e60248201527f45524337323155524953746f726167653a2055524920736574206f66206e6f6e60448201526d32bc34b9ba32b73a103a37b5b2b760911b6064820152608401610431565b600082815260066020526040902061124a8282611cbf565b506040518281527ff8e1a15aba9398e019f0b49df1a4fde98ee17ae345cb5f6b5e2c27f5033e8ce79060200160405180910390a15050565b60006001600160e01b031982166380ac58cd60e01b14806112b357506001600160e01b03198216635b5e139f60e01b145b806102fe57506301ffc9a760e01b6001600160e01b03198316146102fe565b60006001600160a01b0384163b156113c857604051630a85bd0160e11b81526001600160a01b0385169063150b7a0290611316903390899088908890600401611ec8565b6020604051808303816000875af1925050508015611351575060408051601f3d908101601f1916820190925261134e91810190611f05565b60015b6113ae573d80801561137f576040519150601f19603f3d011682016040523d82523d6000602084013e611384565b606091505b5080516000036113a65760405162461bcd60e51b815260040161043190611e47565b805181602001fd5b6001600160e01b031916630a85bd0160e11b149050610697565b506001610697565b60606113db82610c59565b60006113f260408051602081019091526000815290565b90506000815111611412576040518060200160405280600081525061143d565b8061141c84611477565b60405160200161142d929190611e99565b6040516020818303038152906040525b9392505050565b61144e838361150a565b61145b60008484846112d2565b6104d25760405162461bcd60e51b815260040161043190611e47565b6060600061148483611695565b600101905060008167ffffffffffffffff8111156114a4576114a46119d0565b6040519080825280601f01601f1916602001820160405280156114ce576020820181803683370190505b5090508181016020015b600019016f181899199a1a9b1b9c1cb0b131b232b360811b600a86061a8153600a85049450846114d857509392505050565b6001600160a01b0382166115605760405162461bcd60e51b815260206004820181905260248201527f4552433732313a206d696e7420746f20746865207a65726f20616464726573736044820152606401610431565b6000818152600260205260409020546001600160a01b0316156115c55760405162461bcd60e51b815260206004820152601c60248201527f4552433732313a20746f6b656e20616c7265616479206d696e746564000000006044820152606401610431565b6000818152600260205260409020546001600160a01b03161561162a5760405162461bcd60e51b815260206004820152601c60248201527f4552433732313a20746f6b656e20616c7265616479206d696e746564000000006044820152606401610431565b6001600160a01b038216600081815260036020908152604080832080546001019055848352600290915280822080546001600160a01b0319168417905551839291907fddf252ad1be2c89b69c2b068fc378daa952ba7f163c4a11628f55a4df523b3ef908290a45050565b60008072184f03e93ff9f4daa797ed6e38ed64bf6a1f0160401b83106116d45772184f03e93ff9f4daa797ed6e38ed64bf6a1f0160401b830492506040015b6d04ee2d6d415b85acef81000000008310611700576d04ee2d6d415b85acef8100000000830492506020015b662386f26fc10000831061171e57662386f26fc10000830492506010015b6305f5e1008310611736576305f5e100830492506008015b612710831061174a57612710830492506004015b6064831061175c576064830492506002015b600a83106102fe5760010192915050565b6001600160e01b031981168114610b6257600080fd5b60006020828403121561179557600080fd5b813561143d8161176d565b60005b838110156117bb5781810151838201526020016117a3565b50506000910152565b600081518084526117dc8160208601602086016117a0565b601f01601f19169290920160200192915050565b60208152600061143d60208301846117c4565b60006020828403121561181557600080fd5b5035919050565b80356001600160a01b038116811461183357600080fd5b919050565b6000806040838503121561184b57600080fd5b6118548361181c565b946020939093013593505050565b60008060006060848603121561187757600080fd5b6118808461181c565b925061188e6020850161181c565b929592945050506040919091013590565b60008083601f8401126118b157600080fd5b50813567ffffffffffffffff8111156118c957600080fd5b6020830191508360208285010111156118e157600080fd5b9250929050565b600080600080606085870312156118fe57600080fd5b84359350602085013567ffffffffffffffff81111561191c57600080fd5b6119288782880161189f565b9598909750949560400135949350505050565b60808152600061194e60808301876117c4565b828103602084015261196081876117c4565b6040840195909552505090151560609091015292915050565b60006020828403121561198b57600080fd5b61143d8261181c565b600080604083850312156119a757600080fd5b6119b08361181c565b9150602083013580151581146119c557600080fd5b809150509250929050565b634e487b7160e01b600052604160045260246000fd5b600080600080608085870312156119fc57600080fd5b611a058561181c565b9350611a136020860161181c565b925060408501359150606085013567ffffffffffffffff811115611a3657600080fd5b8501601f81018713611a4757600080fd5b803567ffffffffffffffff811115611a6157611a616119d0565b604051601f8201601f19908116603f0116810167ffffffffffffffff81118282101715611a9057611a906119d0565b604052818152828201602001891015611aa857600080fd5b8160208401602083013760006020838301015280935050505092959194509250565b60008060008060008060608789031215611ae357600080fd5b863567ffffffffffffffff811115611afa57600080fd5b611b0689828a0161189f565b909750955050602087013567ffffffffffffffff811115611b2657600080fd5b611b3289828a0161189f565b909550935050604087013567ffffffffffffffff811115611b5257600080fd5b611b5e89828a0161189f565b979a9699509497509295939492505050565b60008060408385031215611b8357600080fd5b611b8c8361181c565b9150611b9a6020840161181c565b90509250929050565b60008060408385031215611bb657600080fd5b50508035926020909101359150565b606081526000611bd860608301866117c4565b60208301949094525060400152919050565b600181811c90821680611bfe57607f821691505b602082108103611c1e57634e487b7160e01b600052602260045260246000fd5b50919050565b6020808252602d908201527f4552433732313a2063616c6c6572206973206e6f7420746f6b656e206f776e6560408201526c1c881bdc88185c1c1c9bdd9959609a1b606082015260800190565b601f8211156104d257806000526020600020601f840160051c81016020851015611c985750805b601f840160051c820191505b81811015611cb85760008155600101611ca4565b5050505050565b815167ffffffffffffffff811115611cd957611cd96119d0565b611ced81611ce78454611bea565b84611c71565b6020601f821160018114611d215760008315611d095750848201515b600019600385901b1c1916600184901b178455611cb8565b600084815260208120601f198516915b82811015611d515787850151825560209485019460019092019101611d31565b5084821015611d6f5786840151600019600387901b60f8161c191681555b50505050600190811b01905550565b634e487b7160e01b600052601160045260246000fd5b808201808211156102fe576102fe611d7e565b818103818111156102fe576102fe611d7e565b600060018201611dcc57611dcc611d7e565b5060010190565b60208152816020820152818360408301376000818301604090810191909152601f909201601f19160101919050565b60208082526025908201527f4552433732313a207472616e736665722066726f6d20696e636f72726563742060408201526437bbb732b960d91b606082015260800190565b60208082526032908201527f4552433732313a207472616e7366657220746f206e6f6e20455243373231526560408201527131b2b4bb32b91034b6b83632b6b2b73a32b960711b606082015260800190565b60008351611eab8184602088016117a0565b835190830190611ebf8183602088016117a0565b01949350505050565b6001600160a01b0385811682528416602082015260408101839052608060608201819052600090611efb908301846117c4565b9695505050505050565b600060208284031215611f1757600080fd5b815161143d8161176d56fea26469706673582212205002b29c09e64d0c3880cd3d83ae081910518545e2e9ea208367dc4d17d9047564736f6c634300081c0033",
  "linkReferences": {},
  "deployedLinkReferences": {}
}