{
  "_format": "hh-sol-artifact-1",
  "contractName": "XULDePIN",
  "sourceName": "contracts/XULAdvanced.sol",
  "abi": [
    {
      "inputs": [
        {
          "internalType": "address",
          "name": "_rewardToken",
          "type": "address"
        }
      ],
      "stateMutability": "nonpayable",
      "type": "constructor"
    },
    {
      "anonymous": false,
      "inputs": [
        {
          "indexed": true,
          "internalType": "uint256",
          "name": "id",
          "type": "uint256"
        },
        {
          "indexed": false,
          "internalType": "enum XULDePIN.DeviceType",
          "name": "deviceType",
          "type": "uint8"
        }
      ],
      "name": "DeviceRegistered",
      "type": "event"
    },
    {
      "anonymous": false,
      "inputs": [
        {
          "indexed": true,
          "internalType": "address",
          "name": "previousOwner",
          "type": "address"
        },
        {
          "indexed": true,
          "internalType": "address",
          "name": "newOwner",
          "type": "address"
        }
      ],
      "name": "OwnershipTransferred",
      "type": "event"
    },
    {
      "anonymous": false,
      "inputs": [
        {
          "indexed": true,
          "internalType": "uint256",
          "name": "taskId",
          "type": "uint256"
        },
        {
          "indexed": true,
          "internalType": "uint256",
          "name": "deviceId",
          "type": "uint256"
        }
      ],
      "name": "TaskCompleted",
      "type": "event"
    },
    {
      "anonymous": false,
      "inputs": [
        {
          "indexed": true,
          "internalType": "uint256",
          "name": "id",
          "type": "uint256"
        },
        {
          "indexed": false,
          "internalType": "uint256",
          "name": "reward",
          "type": "uint256"
        }
      ],
      "name": "TaskCreated",
      "type": "event"
    },
    {
      "inputs": [
        {
          "internalType": "uint256",
          "name": "taskId",
          "type": "uint256"
        },
        {
          "internalType": "uint256",
          "name": "deviceId",
          "type": "uint256"
        }
      ],
      "name": "assignTask",
      "outputs": [],
      "stateMutability": "nonpayable",
      "type": "function"
    },
    {
      "inputs": [
        {
          "internalType": "uint256",
          "name": "taskId",
          "type": "uint256"
        }
      ],
      "name": "completeTask",
      "outputs": [],
      "stateMutability": "nonpayable",
      "type": "function"
    },
    {
      "inputs": [
        {
          "internalType": "uint256",
          "name": "reward",
          "type": "uint256"
        }
      ],
      "name": "createTask",
      "outputs": [
        {
          "internalType": "uint256",
          "name": "",
          "type": "uint256"
        }
      ],
      "stateMutability": "nonpayable",
      "type": "function"
    },
    {
      "inputs": [
        {
          "internalType": "uint256",
          "name": "",
          "type": "uint256"
        }
      ],
      "name": "devices",
      "outputs": [
        {
          "internalType": "uint256",
          "name": "id",
          "type": "uint256"
        },
        {
          "internalType": "address",
          "name": "owner",
          "type": "address"
        },
        {
          "internalType": "enum XULDePIN.DeviceType",
          "name": "deviceType",
          "type": "uint8"
        },
        {
          "internalType": "enum XULDePIN.DeviceStatus",
          "name": "status",
          "type": "uint8"
        },
        {
          "internalType": "uint256",
          "name": "computePower",
          "type": "uint256"
        },
        {
          "internalType": "uint256",
          "name": "reputation",
          "type": "uint256"
        },
        {
          "internalType": "uint256",
          "name": "totalEarnings",
          "type": "uint256"
        }
      ],
      "stateMutability": "view",
      "type": "function"
    },
    {
      "inputs": [
        {
          "internalType": "address",
          "name": "owner",
          "type": "address"
        }
      ],
      "name": "getDevicesByOwner",
      "outputs": [
        {
          "components": [
            {
              "internalType": "uint256",
              "name": "id",
              "type": "uint256"
            },
            {
              "internalType": "address",
              "name": "owner",
              "type": "address"
            },
            {
              "internalType": "enum XULDePIN.DeviceType",
              "name": "deviceType",
              "type": "uint8"
            },
            {
              "internalType": "enum XULDePIN.DeviceStatus",
              "name": "status",
              "type": "uint8"
            },
            {
              "internalType": "uint256",
              "name": "computePower",
              "type": "uint256"
            },
            {
              "internalType": "uint256",
              "name": "reputation",
              "type": "uint256"
            },
            {
              "internalType": "uint256",
              "name": "totalEarnings",
              "type": "uint256"
            }
          ],
          "internalType": "struct XULDePIN.Device[]",
          "name": "",
          "type": "tuple[]"
        }
      ],
      "stateMutability": "view",
      "type": "function"
    },
    {
      "inputs": [],
      "name": "owner",
      "outputs": [
        {
          "internalType": "address",
          "name": "",
          "type": "address"
        }
      ],
      "stateMutability": "view",
      "type": "function"
    },
    {
      "inputs": [
        {
          "internalType": "address",
          "name": "",
          "type": "address"
        },
        {
          "internalType": "uint256",
          "name": "",
          "type": "uint256"
        }
      ],
      "name": "ownerDevices",
      "outputs": [
        {
          "internalType": "uint256",
          "name": "",
          "type": "uint256"
        }
      ],
      "stateMutability": "view",
      "type": "function"
    },
    {
      "inputs": [
        {
          "internalType": "enum XULDePIN.DeviceType",
          "name": "deviceType",
          "type": "uint8"
        },
        {
          "internalType": "uint256",
          "name": "computePower",
          "type": "uint256"
        }
      ],
      "name": "registerDevice",
      "outputs": [
        {
          "internalType": "uint256",
          "name": "",
          "type": "uint256"
        }
      ],
      "stateMutability": "nonpayable",
      "type": "function"
    },
    {
      "inputs": [],
      "name": "renounceOwnership",
      "outputs": [],
      "stateMutability": "nonpayable",
      "type": "function"
    },
    {
      "inputs": [],
      "name": "rewardToken",
      "outputs": [
        {
          "internalType": "contract IERC20",
          "name": "",
          "type": "address"
        }
      ],
      "stateMutability": "view",
      "type": "function"
    },
    {
      "inputs": [
        {
          "internalType": "uint256",
          "name": "",
          "type": "uint256"
        }
      ],
      "name": "tasks",
      "outputs": [
        {
          "internalType": "uint256",
          "name": "id",
          "type": "uint256"
        },
        {
          "internalType": "address",
          "name": "requester",
          "type": "address"
        },
        {
          "internalType": "uint256",
          "name": "reward",
          "type": "uint256"
        },
        {
          "internalType": "uint256",
          "name": "assignedDevice",
          "type": "uint256"
        },
        {
          "internalType": "enum XULDePIN.TaskStatus",
          "name": "status",
          "type": "uint8"
        }
      ],
      "stateMutability": "view",
      "type": "function"
    },
    {
      "inputs": [
        {
          "internalType": "address",
          "name": "newOwner",
          "type": "address"
        }
      ],
      "name": "transferOwnership",
      "outputs": [],
      "stateMutability": "nonpayable",
      "type": "function"
    }
  ],
  "bytecode": "0x60a060405234801561001057600080fd5b50604051610e14380380610e1483398101604081905261002f91610099565b61003833610049565b6001600160a01b03166080526100c9565b600080546001600160a01b038381166001600160a01b0319831681178455604051919092169283917f8be0079c531659141344cd1fd0a4f28419497f9722a3daafe3b4186f6b6457e09190a35050565b6000602082840312156100ab57600080fd5b81516001600160a01b03811681146100c257600080fd5b9392505050565b608051610d306100e4600039600061025b0152610d306000f3fe608060405234801561001057600080fd5b50600436106100b45760003560e01c80638d977672116100715780638d9776721461019d5780638da5cb5b146101f8578063e1e295581461021d578063e46b478614610230578063f2fde38b14610243578063f7c618c11461025657600080fd5b806301612c40146100b9578063096b8d38146100ce57806310ff8e31146100f457806331d669341461016257806351b0e98714610175578063715018a614610195575b600080fd5b6100cc6100c7366004610a4a565b61027d565b005b6100e16100dc366004610a6c565b61032d565b6040519081526020015b60405180910390f35b61014f610102366004610a9c565b60036020819052600091825260409091208054600182015460028301549383015460049093015491936001600160a01b0382169360ff600160a01b8404811694600160a81b909404169287565b6040516100eb9796959493929190610aef565b6100e1610170366004610a9c565b6104ab565b610188610183366004610b59565b6105d2565b6040516100eb9190610b7b565b6100cc6107e3565b6101e76101ab366004610a9c565b6005602052600090815260409020805460018201546002830154600384015460049094015492936001600160a01b039092169290919060ff1685565b6040516100eb959493929190610c1e565b6000546001600160a01b03165b6040516001600160a01b0390911681526020016100eb565b6100cc61022b366004610a9c565b6107f7565b6100e161023e366004610c62565b6108f6565b6100cc610251366004610b59565b610927565b6102057f000000000000000000000000000000000000000000000000000000000000000081565b60008281526005602052604081206004015460ff1660038111156102a3576102a3610ab5565b146102e35760405162461bcd60e51b815260206004820152600b60248201526a4e6f742070656e64696e6760a81b60448201526064015b60405180910390fd5b6000918252600560209081526040808420600380820185905560049091018054600160ff19909116811790915593855290915290912001805460ff60a81b1916600160a91b179055565b600180546000918291908261034183610c94565b909155506040805160e081018252828152336020820152919250810185600481111561036f5761036f610ab5565b8152602001600181526020808201869052606460408084019190915260006060909301839052848352600382529182902083518155908301516001820180546001600160a01b039092166001600160a01b031983168117825593850151929390916001600160a81b03191617600160a01b8360048111156103f2576103f2610ab5565b0217905550606082015160018201805460ff60a81b1916600160a81b83600281111561042057610420610ab5565b02179055506080820151600282015560a0820151600382015560c090910151600491820155336000908152602091825260408082208054600181018255908352929091209091018290555181907f84ba8328c74cffa15532363c705ec72b6cac31fd67ef021795cdfd8c8dd59bb79061049a908790610cad565b60405180910390a290505b92915050565b60028054600091829190826104bf83610c94565b9190505590506040518060a00160405280828152602001336001600160a01b03168152602001848152602001600081526020016000600381111561050557610505610ab5565b815250600560008381526020019081526020016000206000820151816000015560208201518160010160006101000a8154816001600160a01b0302191690836001600160a01b03160217905550604082015181600201556060820151816003015560808201518160040160006101000a81548160ff0219169083600381111561059057610590610ab5565b0217905550506040518481528291507f554eecb442b1ba28cd7de5776942c613219c455bc5cb87f92e137bc9d42649c79060200160405180910390a292915050565b6001600160a01b038116600090815260046020908152604080832080548251818502810185019093528083526060949383018282801561063157602002820191906000526020600020905b81548152602001906001019080831161061d575b505050505090506000815167ffffffffffffffff81111561065457610654610cbb565b6040519080825280602002602001820160405280156106c557816020015b6106b26040805160e08101825260008082526020820181905290918201908152602001600081526020016000815260200160008152602001600081525090565b8152602001906001900390816106725790505b50905060005b82518110156107db57600360008483815181106106ea576106ea610cd1565b6020908102919091018101518252818101929092526040908101600020815160e0810183528154815260018201546001600160a01b03811694820194909452929091830190600160a01b900460ff16600481111561074a5761074a610ab5565b600481111561075b5761075b610ab5565b81526020016001820160159054906101000a900460ff16600281111561078357610783610ab5565b600281111561079457610794610ab5565b815260200160028201548152602001600382015481526020016004820154815250508282815181106107c8576107c8610cd1565b60209081029190910101526001016106cb565b509392505050565b6107eb6109a0565b6107f560006109fa565b565b6000818152600560209081526040808320600380820154855290925290912060018101546001600160a01b031633146108615760405162461bcd60e51b815260206004820152600c60248201526b139bdd08185cdcda59db995960a21b60448201526064016102da565b60048281018054600260ff19909116811790915560018301805460ff60a81b1916600160a81b17905583015490820180546000906108a0908490610ce7565b92505081905550600a8160030160008282546108bc9190610ce7565b9091555050600382015460405184907ff9c405f91e34dcd1dc136cf6992ada4a8c24a2803e0fab7546364c64dac7ba2b90600090a3505050565b6004602052816000526040600020818154811061091257600080fd5b90600052602060002001600091509150505481565b61092f6109a0565b6001600160a01b0381166109945760405162461bcd60e51b815260206004820152602660248201527f4f776e61626c653a206e6577206f776e657220697320746865207a65726f206160448201526564647265737360d01b60648201526084016102da565b61099d816109fa565b50565b6000546001600160a01b031633146107f55760405162461bcd60e51b815260206004820181905260248201527f4f776e61626c653a2063616c6c6572206973206e6f7420746865206f776e657260448201526064016102da565b600080546001600160a01b038381166001600160a01b0319831681178455604051919092169283917f8be0079c531659141344cd1fd0a4f28419497f9722a3daafe3b4186f6b6457e09190a35050565b60008060408385031215610a5d57600080fd5b50508035926020909101359150565b60008060408385031215610a7f57600080fd5b823560058110610a8e57600080fd5b946020939093013593505050565b600060208284031215610aae57600080fd5b5035919050565b634e487b7160e01b600052602160045260246000fd5b60058110610adb57610adb610ab5565b9052565b60038110610adb57610adb610ab5565b8781526001600160a01b038716602082015260e08101610b126040830188610acb565b610b1f6060830187610adf565b8460808301528360a08301528260c083015298975050505050505050565b80356001600160a01b0381168114610b5457600080fd5b919050565b600060208284031215610b6b57600080fd5b610b7482610b3d565b9392505050565b602080825282518282018190526000918401906040840190835b81811015610c13578351805184526020808201516001600160a01b03169085015260408082015190610bc990860182610acb565b506060810151610bdc6060860182610adf565b506080810151608085015260a081015160a085015260c081015160c08501525060e083019250602084019350600181019050610b95565b509095945050505050565b8581526001600160a01b0385166020820152604081018490526060810183905260a0810160048310610c5257610c52610ab5565b8260808301529695505050505050565b60008060408385031215610c7557600080fd5b610a8e83610b3d565b634e487b7160e01b600052601160045260246000fd5b600060018201610ca657610ca6610c7e565b5060010190565b602081016104a58284610acb565b634e487b7160e01b600052604160045260246000fd5b634e487b7160e01b600052603260045260246000fd5b808201808211156104a5576104a5610c7e56fea2646970667358221220ca4ac83f04edafe9ac3f001e770a6fbc78322c6797440033cccbfdf263b75f2d64736f6c634300081c0033",
  "linkReferences": {},
  "deployedLinkReferences": {}
}