{
  "_format": "hh-sol-artifact-1",
  "contractName": "X402PaymentProcessor",
  "sourceName": "contracts/X402PaymentProcessor.sol",
  "abi": [
    {
      "inputs": [
        {
          "internalType": "address",
          "name": "initialOwner",
          "type": "address"
        }
      ],
      "stateMutability": "nonpayable",
      "type": "constructor"
    },
    {
      "inputs": [
        {
          "internalType": "address",
          "name": "owner",
          "type": "address"
        }
      ],
      "name": "OwnableInvalidOwner",
      "type": "error"
    },
    {
      "inputs": [
        {
          "internalType": "address",
          "name": "account",
          "type": "address"
        }
      ],
      "name": "OwnableUnauthorizedAccount",
      "type": "error"
    },
    {
      "inputs": [],
      "name": "ReentrancyGuardReentrantCall",
      "type": "error"
    },
    {
      "anonymous": false,
      "inputs": [
        {
          "indexed": true,
          "internalType": "address",
          "name": "facilitator",
          "type": "address"
        }
      ],
      "name": "FacilitatorAuthorized",
      "type": "event"
    },
    {
      "anonymous": false,
      "inputs": [
        {
          "indexed": true,
          "internalType": "address",
          "name": "facilitator",
          "type": "address"
        }
      ],
      "name": "FacilitatorDeauthorized",
      "type": "event"
    },
    {
      "anonymous": false,
      "inputs": [
        {
          "indexed": true,
          "internalType": "address",
          "name": "previousOwner",
          "type": "address"
        },
        {
          "indexed": true,
          "internalType": "address",
          "name": "newOwner",
          "type": "address"
        }
      ],
      "name": "OwnershipTransferred",
      "type": "event"
    },
    {
      "anonymous": false,
      "inputs": [
        {
          "indexed": true,
          "internalType": "address",
          "name": "from",
          "type": "address"
        },
        {
          "indexed": true,
          "internalType": "address",
          "name": "to",
          "type": "address"
        },
        {
          "indexed": false,
          "internalType": "uint256",
          "name": "amount",
          "type": "uint256"
        },
        {
          "indexed": true,
          "internalType": "bytes32",
          "name": "nonce",
          "type": "bytes32"
        },
        {
          "indexed": false,
          "internalType": "address",
          "name": "token",
          "type": "address"
        }
      ],
      "name": "PaymentSettled",
      "type": "event"
    },
    {
      "anonymous": false,
      "inputs": [
        {
          "indexed": true,
          "internalType": "address",
          "name": "token",
          "type": "address"
        }
      ],
      "name": "TokenAdded",
      "type": "event"
    },
    {
      "anonymous": false,
      "inputs": [
        {
          "indexed": true,
          "internalType": "address",
          "name": "token",
          "type": "address"
        }
      ],
      "name": "TokenRemoved",
      "type": "event"
    },
    {
      "inputs": [],
      "name": "NATIVE_TOKEN",
      "outputs": [
        {
          "internalType": "address",
          "name": "",
          "type": "address"
        }
      ],
      "stateMutability": "view",
      "type": "function"
    },
    {
      "inputs": [
        {
          "internalType": "address",
          "name": "",
          "type": "address"
        }
      ],
      "name": "acceptedTokens",
      "outputs": [
        {
          "internalType": "bool",
          "name": "",
          "type": "bool"
        }
      ],
      "stateMutability": "view",
      "type": "function"
    },
    {
      "inputs": [
        {
          "internalType": "address",
          "name": "token",
          "type": "address"
        }
      ],
      "name": "addAcceptedToken",
      "outputs": [],
      "stateMutability": "nonpayable",
      "type": "function"
    },
    {
      "inputs": [
        {
          "internalType": "address",
          "name": "facilitator",
          "type": "address"
        }
      ],
      "name": "authorizeFacilitator",
      "outputs": [],
      "stateMutability": "nonpayable",
      "type": "function"
    },
    {
      "inputs": [
        {
          "internalType": "address",
          "name": "",
          "type": "address"
        }
      ],
      "name": "authorizedFacilitators",
      "outputs": [
        {
          "internalType": "bool",
          "name": "",
          "type": "bool"
        }
      ],
      "stateMutability": "view",
      "type": "function"
    },
    {
      "inputs": [
        {
          "internalType": "address",
          "name": "facilitator",
          "type": "address"
        }
      ],
      "name": "deauthorizeFacilitator",
      "outputs": [],
      "stateMutability": "nonpayable",
      "type": "function"
    },
    {
      "inputs": [
        {
          "internalType": "address",
          "name": "token",
          "type": "address"
        },
        {
          "components": [
            {
              "internalType": "address",
              "name": "from",
              "type": "address"
            },
            {
              "internalType": "address",
              "name": "to",
              "type": "address"
            },
            {
              "internalType": "uint256",
              "name": "value",
              "type": "uint256"
            },
            {
              "internalType": "uint48",
              "name": "validAfter",
              "type": "uint48"
            },
            {
              "internalType": "uint48",
              "name": "validBefore",
              "type": "uint48"
            },
            {
              "internalType": "bytes32",
              "name": "nonce",
              "type": "bytes32"
            }
          ],
          "internalType": "struct X402PaymentProcessor.PaymentAuthorization",
          "name": "auth",
          "type": "tuple"
        },
        {
          "internalType": "bytes",
          "name": "signature",
          "type": "bytes"
        }
      ],
      "name": "isPaymentValid",
      "outputs": [
        {
          "internalType": "bool",
          "name": "",
          "type": "bool"
        },
        {
          "internalType": "string",
          "name": "",
          "type": "string"
        }
      ],
      "stateMutability": "view",
      "type": "function"
    },
    {
      "inputs": [],
      "name": "owner",
      "outputs": [
        {
          "internalType": "address",
          "name": "",
          "type": "address"
        }
      ],
      "stateMutability": "view",
      "type": "function"
    },
    {
      "inputs": [
        {
          "internalType": "address",
          "name": "token",
          "type": "address"
        }
      ],
      "name": "removeAcceptedToken",
      "outputs": [],
      "stateMutability": "nonpayable",
      "type": "function"
    },
    {
      "inputs": [],
      "name": "renounceOwnership",
      "outputs": [],
      "stateMutability": "nonpayable",
      "type": "function"
    },
    {
      "inputs": [
        {
          "internalType": "address",
          "name": "token",
          "type": "address"
        },
        {
          "components": [
            {
              "internalType": "address",
              "name": "from",
              "type": "address"
            },
            {
              "internalType": "address",
              "name": "to",
              "type": "address"
            },
            {
              "internalType": "uint256",
              "name": "value",
              "type": "uint256"
            },
            {
              "internalType": "uint48",
              "name": "validAfter",
              "type": "uint48"
            },
            {
              "internalType": "uint48",
              "name": "validBefore",
              "type": "uint48"
            },
            {
              "internalType": "bytes32",
              "name": "nonce",
              "type": "bytes32"
            }
          ],
          "internalType": "struct X402PaymentProcessor.PaymentAuthorization",
          "name": "auth",
          "type": "tuple"
        },
        {
          "internalType": "bytes",
          "name": "signature",
          "type": "bytes"
        }
      ],
      "name": "settlePayment",
      "outputs": [],
      "stateMutability": "payable",
      "type": "function"
    },
    {
      "inputs": [
        {
          "internalType": "address",
          "name": "newOwner",
          "type": "address"
        }
      ],
      "name": "transferOwnership",
      "outputs": [],
      "stateMutability": "nonpayable",
      "type": "function"
    },
    {
      "inputs": [
        {
          "internalType": "bytes32",
          "name": "",
          "type": "bytes32"
        }
      ],
      "name": "usedNonces",
      "outputs": [
        {
          "internalType": "bool",
          "name": "",
          "type": "bool"
        }
      ],
      "stateMutability": "view",
      "type": "function"
    },
    {
      "stateMutability": "payable",
      "type": "receive"
    }
  ],
  "bytecode": "0x608060405234801561001057600080fd5b5060405161115538038061115583398101604081905261002f916100e2565b806001600160a01b03811661005e57604051631e4fbdf760e01b81526000600482015260240160405180910390fd5b61006781610092565b5060017f9b779b17422d0df92223018b32b4d1fa46e071723d6817e2486d003becc55f005550610112565b600080546001600160a01b038381166001600160a01b0319831681178455604051919092169283917f8be0079c531659141344cd1fd0a4f28419497f9722a3daafe3b4186f6b6457e09190a35050565b6000602082840312156100f457600080fd5b81516001600160a01b038116811461010b57600080fd5b9392505050565b611034806101216000396000f3fe6080604052600436106100c65760003560e01c80638da5cb5b1161007f578063d8134a2311610059578063d8134a231461021c578063d96972961461023c578063f2fde38b1461026a578063feb617241461028a57600080fd5b80638da5cb5b146101bb5780639925a366146101d9578063c57beae4146101ec57600080fd5b806331f7d964146100d25780633eee83f11461010457806365262fda146101265780636f1d9d3a14610146578063715018a61461016657806382dc4a051461017b57600080fd5b366100cd57005b600080fd5b3480156100de57600080fd5b506100e7600081565b6040516001600160a01b0390911681526020015b60405180910390f35b34801561011057600080fd5b5061012461011f366004610e5f565b6102ba565b005b34801561013257600080fd5b50610124610141366004610e5f565b61030e565b34801561015257600080fd5b50610124610161366004610e5f565b61035f565b34801561017257600080fd5b506101246103b3565b34801561018757600080fd5b506101ab610196366004610e5f565b60026020526000908152604090205460ff1681565b60405190151581526020016100fb565b3480156101c757600080fd5b506000546001600160a01b03166100e7565b6101246101e7366004610e81565b6103c7565b3480156101f857600080fd5b506101ab610207366004610e5f565b60036020526000908152604090205460ff1681565b34801561022857600080fd5b50610124610237366004610e5f565b6108fd565b34801561024857600080fd5b5061025c610257366004610e81565b61094e565b6040516100fb929190610f1c565b34801561027657600080fd5b50610124610285366004610e5f565b610b3f565b34801561029657600080fd5b506101ab6102a5366004610f74565b60016020526000908152604090205460ff1681565b6102c2610b7d565b6001600160a01b038116600081815260026020526040808220805460ff19166001179055517f784c8f4dbf0ffedd6e72c76501c545a70f8b203b30a26ce542bf92ba87c248a49190a250565b610316610b7d565b6001600160a01b038116600081815260036020526040808220805460ff19169055517f07b0fec51e370726e77fd848e73b45db27bddf4a65b5e4156edeff04ccad79249190a250565b610367610b7d565b6001600160a01b038116600081815260036020526040808220805460ff19166001179055517f412732af83f86aaedbb379f396001acf2e6b50f531ea358b05a9527f4d020e3b9190a250565b6103bb610b7d565b6103c56000610baa565b565b6103cf610bfa565b6001600160a01b03841660009081526002602052604090205460ff166104315760405162461bcd60e51b8152602060048201526012602482015271151bdad95b881b9bdd081858d8d95c1d195960721b60448201526064015b60405180910390fd5b60a083013560009081526001602052604090205460ff161561048a5760405162461bcd60e51b8152602060048201526012602482015271139bdb98d948185b1c9958591e481d5cd95960721b6044820152606401610428565b61049a6080840160608501610f8d565b65ffffffffffff164210156104e95760405162461bcd60e51b815260206004820152601560248201527414185e5b595b9d081b9bdd081e595d081d985b1a59605a1b6044820152606401610428565b6104f960a0840160808501610f8d565b65ffffffffffff164211156105425760405162461bcd60e51b815260206004820152600f60248201526e14185e5b595b9d08195e1c1a5c9959608a1b6044820152606401610428565b600061054d84610c28565b9050600061055c828585610cd4565b905061056b6020860186610e5f565b6001600160a01b0316816001600160a01b0316146105bf5760405162461bcd60e51b8152602060048201526011602482015270496e76616c6964207369676e617475726560781b6044820152606401610428565b60a08501356000908152600160208190526040909120805460ff191690911790556001600160a01b03861661079f5784604001353410156106425760405162461bcd60e51b815260206004820152601e60248201527f496e73756666696369656e74206e617469766520746f6b656e2073656e7400006044820152606401610428565b60006106546040870160208801610e5f565b6001600160a01b0316866040013560405160006040518083038185875af1925050503d80600081146106a2576040519150601f19603f3d011682016040523d82523d6000602084013e6106a7565b606091505b50509050806106f85760405162461bcd60e51b815260206004820152601c60248201527f4e617469766520746f6b656e207472616e73666572206661696c6564000000006044820152606401610428565b856040013534111561079957600033610715604089013534610fb5565b604051600081818185875af1925050503d8060008114610751576040519150601f19603f3d011682016040523d82523d6000602084013e610756565b606091505b50509050806107975760405162461bcd60e51b815260206004820152600d60248201526c1499599d5b990819985a5b1959609a1b6044820152606401610428565b505b50610849565b6001600160a01b0386166323b872dd6107bb6020880188610e5f565b6107cb6040890160208a01610e5f565b604080516001600160e01b031960e086901b1681526001600160a01b03938416600482015292909116602483015288013560448201526064016020604051808303816000875af1158015610823573d6000803e3d6000fd5b505050506040513d601f19601f820116820180604052508101906108479190610fdc565b505b60a085013561085e6040870160208801610e5f565b6001600160a01b03166108746020880188610e5f565b6001600160a01b03167fafa4c5710c7d3319301c7f48b17b00e017c9689c65488e9e63ae5150dcd8c1ff88604001358a6040516108c49291909182526001600160a01b0316602082015260400190565b60405180910390a450506108f760017f9b779b17422d0df92223018b32b4d1fa46e071723d6817e2486d003becc55f0055565b50505050565b610905610b7d565b6001600160a01b038116600081815260026020526040808220805460ff19169055517f4c910b69fe65a61f7531b9c5042b2329ca7179c77290aa7e2eb3afa3c8511fd39190a250565b6001600160a01b03841660009081526002602052604081205460609060ff166109a4575050604080518082019091526012815271151bdad95b881b9bdd081858d8d95c1d195960721b6020820152600090610b36565b60a085013560009081526001602052604090205460ff16156109f3575050604080518082019091526012815271139bdb98d948185b1c9958591e481d5cd95960721b6020820152600090610b36565b610a036080860160608701610f8d565b65ffffffffffff16421015610a4857505060408051808201909152601581527414185e5b595b9d081b9bdd081e595d081d985b1a59605a1b6020820152600090610b36565b610a5860a0860160808701610f8d565b65ffffffffffff16421115610a9757505060408051808201909152600f81526e14185e5b595b9d08195e1c1a5c9959608a1b6020820152600090610b36565b6000610aa286610c28565b90506000610ab1828787610cd4565b9050610ac06020880188610e5f565b6001600160a01b0316816001600160a01b031614610b0f57600060405180604001604052806011815260200170496e76616c6964207369676e617475726560781b815250935093505050610b36565b60016040518060400160405280600581526020016415985b1a5960da1b8152509350935050505b94509492505050565b610b47610b7d565b6001600160a01b038116610b7157604051631e4fbdf760e01b815260006004820152602401610428565b610b7a81610baa565b50565b6000546001600160a01b031633146103c55760405163118cdaa760e01b8152336004820152602401610428565b600080546001600160a01b038381166001600160a01b0319831681178455604051919092169283917f8be0079c531659141344cd1fd0a4f28419497f9722a3daafe3b4186f6b6457e09190a35050565b610c02610d38565b60027f9b779b17422d0df92223018b32b4d1fa46e071723d6817e2486d003becc55f0055565b6000610c376020830183610e5f565b610c476040840160208501610e5f565b6040840135610c5c6080860160608701610f8d565b610c6c60a0870160808801610f8d565b604080516001600160a01b0396871660208201529590941693850193909352606084019190915265ffffffffffff90811660808401521660a08281019190915283013560c082015260e001604051602081830303815290604052805190602001209050919050565b6040517f19457468657265756d205369676e6564204d6573736167653a0a3332000000006020820152603c81018490526000908190605c01604051602081830303815290604052805190602001209050610d2f818585610d7a565b95945050505050565b7f9b779b17422d0df92223018b32b4d1fa46e071723d6817e2486d003becc55f00546002036103c557604051633ee5aeb560e01b815260040160405180910390fd5b600060418214610dcc5760405162461bcd60e51b815260206004820152601860248201527f496e76616c6964207369676e6174757265206c656e67746800000000000000006044820152606401610428565b60408051600080825260208083018085528890528684013590911a92820183905285356060830181905290860135608083018190529092909160019060a0016020604051602081039080840390855afa158015610e2d573d6000803e3d6000fd5b5050604051601f19015198975050505050505050565b80356001600160a01b0381168114610e5a57600080fd5b919050565b600060208284031215610e7157600080fd5b610e7a82610e43565b9392505050565b600080600080848603610100811215610e9957600080fd5b610ea286610e43565b945060c0601f1982011215610eb657600080fd5b5060208501925060e085013567ffffffffffffffff80821115610ed857600080fd5b818701915087601f830112610eec57600080fd5b813581811115610efb57600080fd5b886020828501011115610f0d57600080fd5b95989497505060200194505050565b821515815260006020604081840152835180604085015260005b81811015610f5257858101830151858201606001528201610f36565b506000606082860101526060601f19601f830116850101925050509392505050565b600060208284031215610f8657600080fd5b5035919050565b600060208284031215610f9f57600080fd5b813565ffffffffffff81168114610e7a57600080fd5b81810381811115610fd657634e487b7160e01b600052601160045260246000fd5b92915050565b600060208284031215610fee57600080fd5b81518015158114610e7a57600080fdfea26469706673582212203bf9746fd319d01c792f2896c856db8b1c56f68322f3507e3970acee2f31178964736f6c63430008140033",
  "linkReferences": {},
  "deployedLinkReferences": {}
}