{
  "_format": "hh-sol-artifact-1",
  "contractName": "XULTranslator",
  "sourceName": "contracts/XULTranslator.sol",
  "abi": [
    {
      "inputs": [
        {
          "internalType": "address",
          "name": "_rewardToken",
          "type": "address"
        }
      ],
      "stateMutability": "nonpayable",
      "type": "constructor"
    },
    {
      "anonymous": false,
      "inputs": [
        {
          "indexed": true,
          "internalType": "address",
          "name": "previousOwner",
          "type": "address"
        },
        {
          "indexed": true,
          "internalType": "address",
          "name": "newOwner",
          "type": "address"
        }
      ],
      "name": "OwnershipTransferred",
      "type": "event"
    },
    {
      "anonymous": false,
      "inputs": [
        {
          "indexed": true,
          "internalType": "uint256",
          "name": "requestId",
          "type": "uint256"
        },
        {
          "indexed": false,
          "internalType": "uint256",
          "name": "amount",
          "type": "uint256"
        }
      ],
      "name": "RewardDistributed",
      "type": "event"
    },
    {
      "anonymous": false,
      "inputs": [
        {
          "indexed": true,
          "internalType": "uint256",
          "name": "id",
          "type": "uint256"
        },
        {
          "indexed": true,
          "internalType": "address",
          "name": "requester",
          "type": "address"
        },
        {
          "indexed": false,
          "internalType": "enum XULTranslator.Language",
          "name": "sourceLang",
          "type": "uint8"
        },
        {
          "indexed": false,
          "internalType": "enum XULTranslator.Language",
          "name": "targetLang",
          "type": "uint8"
        }
      ],
      "name": "TranslationRequested",
      "type": "event"
    },
    {
      "anonymous": false,
      "inputs": [
        {
          "indexed": true,
          "internalType": "uint256",
          "name": "id",
          "type": "uint256"
        },
        {
          "indexed": true,
          "internalType": "address",
          "name": "translator",
          "type": "address"
        }
      ],
      "name": "TranslationSubmitted",
      "type": "event"
    },
    {
      "anonymous": false,
      "inputs": [
        {
          "indexed": true,
          "internalType": "uint256",
          "name": "id",
          "type": "uint256"
        },
        {
          "indexed": false,
          "internalType": "uint256",
          "name": "qualityScore",
          "type": "uint256"
        }
      ],
      "name": "TranslationVerified",
      "type": "event"
    },
    {
      "anonymous": false,
      "inputs": [
        {
          "indexed": true,
          "internalType": "address",
          "name": "translator",
          "type": "address"
        }
      ],
      "name": "TranslatorRegistered",
      "type": "event"
    },
    {
      "inputs": [
        {
          "internalType": "string",
          "name": "name",
          "type": "string"
        },
        {
          "internalType": "string",
          "name": "version",
          "type": "string"
        },
        {
          "internalType": "uint256",
          "name": "accuracy",
          "type": "uint256"
        }
      ],
      "name": "addAIModel",
      "outputs": [],
      "stateMutability": "nonpayable",
      "type": "function"
    },
    {
      "inputs": [
        {
          "internalType": "address",
          "name": "verifier",
          "type": "address"
        }
      ],
      "name": "addAIVerifier",
      "outputs": [],
      "stateMutability": "nonpayable",
      "type": "function"
    },
    {
      "inputs": [
        {
          "internalType": "uint256",
          "name": "",
          "type": "uint256"
        }
      ],
      "name": "aiModels",
      "outputs": [
        {
          "internalType": "string",
          "name": "name",
          "type": "string"
        },
        {
          "internalType": "string",
          "name": "version",
          "type": "string"
        },
        {
          "internalType": "uint256",
          "name": "accuracy",
          "type": "uint256"
        },
        {
          "internalType": "bool",
          "name": "isActive",
          "type": "bool"
        }
      ],
      "stateMutability": "view",
      "type": "function"
    },
    {
      "inputs": [
        {
          "internalType": "uint256",
          "name": "requestId",
          "type": "uint256"
        },
        {
          "internalType": "string",
          "name": "translation",
          "type": "string"
        },
        {
          "internalType": "bytes32",
          "name": "aiProof",
          "type": "bytes32"
        },
        {
          "internalType": "uint256",
          "name": "qualityScore",
          "type": "uint256"
        }
      ],
      "name": "aiTranslate",
      "outputs": [],
      "stateMutability": "nonpayable",
      "type": "function"
    },
    {
      "inputs": [
        {
          "internalType": "address",
          "name": "",
          "type": "address"
        }
      ],
      "name": "aiVerifiers",
      "outputs": [
        {
          "internalType": "bool",
          "name": "",
          "type": "bool"
        }
      ],
      "stateMutability": "view",
      "type": "function"
    },
    {
      "inputs": [
        {
          "internalType": "uint256",
          "name": "requestId",
          "type": "uint256"
        }
      ],
      "name": "disputeTranslation",
      "outputs": [],
      "stateMutability": "nonpayable",
      "type": "function"
    },
    {
      "inputs": [],
      "name": "getAIModels",
      "outputs": [
        {
          "components": [
            {
              "internalType": "string",
              "name": "name",
              "type": "string"
            },
            {
              "internalType": "string",
              "name": "version",
              "type": "string"
            },
            {
              "internalType": "uint256",
              "name": "accuracy",
              "type": "uint256"
            },
            {
              "internalType": "bool",
              "name": "isActive",
              "type": "bool"
            }
          ],
          "internalType": "struct XULTranslator.AIModel[]",
          "name": "",
          "type": "tuple[]"
        }
      ],
      "stateMutability": "view",
      "type": "function"
    },
    {
      "inputs": [
        {
          "internalType": "enum XULTranslator.Language",
          "name": "lang",
          "type": "uint8"
        }
      ],
      "name": "getLanguageName",
      "outputs": [
        {
          "internalType": "string",
          "name": "",
          "type": "string"
        }
      ],
      "stateMutability": "pure",
      "type": "function"
    },
    {
      "inputs": [
        {
          "internalType": "uint256",
          "name": "requestId",
          "type": "uint256"
        }
      ],
      "name": "getRequest",
      "outputs": [
        {
          "components": [
            {
              "internalType": "uint256",
              "name": "id",
              "type": "uint256"
            },
            {
              "internalType": "address",
              "name": "requester",
              "type": "address"
            },
            {
              "internalType": "string",
              "name": "sourceText",
              "type": "string"
            },
            {
              "internalType": "enum XULTranslator.Language",
              "name": "sourceLang",
              "type": "uint8"
            },
            {
              "internalType": "enum XULTranslator.Language",
              "name": "targetLang",
              "type": "uint8"
            },
            {
              "internalType": "uint256",
              "name": "reward",
              "type": "uint256"
            },
            {
              "internalType": "uint256",
              "name": "deadline",
              "type": "uint256"
            },
            {
              "internalType": "enum XULTranslator.TranslationStatus",
              "name": "status",
              "type": "uint8"
            },
            {
              "internalType": "string",
              "name": "translation",
              "type": "string"
            },
            {
              "internalType": "address",
              "name": "translator",
              "type": "address"
            },
            {
              "internalType": "uint256",
              "name": "qualityScore",
              "type": "uint256"
            },
            {
              "internalType": "bytes32",
              "name": "aiProof",
              "type": "bytes32"
            }
          ],
          "internalType": "struct XULTranslator.TranslationRequest",
          "name": "",
          "type": "tuple"
        }
      ],
      "stateMutability": "view",
      "type": "function"
    },
    {
      "inputs": [
        {
          "internalType": "address",
          "name": "translator",
          "type": "address"
        }
      ],
      "name": "getTranslator",
      "outputs": [
        {
          "components": [
            {
              "internalType": "address",
              "name": "wallet",
              "type": "address"
            },
            {
              "internalType": "uint256",
              "name": "reputation",
              "type": "uint256"
            },
            {
              "internalType": "uint256",
              "name": "completedJobs",
              "type": "uint256"
            },
            {
              "internalType": "uint256",
              "name": "totalEarned",
              "type": "uint256"
            },
            {
              "internalType": "enum XULTranslator.Language[]",
              "name": "specialties",
              "type": "uint8[]"
            },
            {
              "internalType": "bool",
              "name": "isVerified",
              "type": "bool"
            },
            {
              "internalType": "bool",
              "name": "isActive",
              "type": "bool"
            }
          ],
          "internalType": "struct XULTranslator.Translator",
          "name": "",
          "type": "tuple"
        }
      ],
      "stateMutability": "view",
      "type": "function"
    },
    {
      "inputs": [],
      "name": "minReward",
      "outputs": [
        {
          "internalType": "uint256",
          "name": "",
          "type": "uint256"
        }
      ],
      "stateMutability": "view",
      "type": "function"
    },
    {
      "inputs": [],
      "name": "owner",
      "outputs": [
        {
          "internalType": "address",
          "name": "",
          "type": "address"
        }
      ],
      "stateMutability": "view",
      "type": "function"
    },
    {
      "inputs": [],
      "name": "platformFee",
      "outputs": [
        {
          "internalType": "uint256",
          "name": "",
          "type": "uint256"
        }
      ],
      "stateMutability": "view",
      "type": "function"
    },
    {
      "inputs": [
        {
          "internalType": "enum XULTranslator.Language[]",
          "name": "specialties",
          "type": "uint8[]"
        }
      ],
      "name": "registerTranslator",
      "outputs": [],
      "stateMutability": "nonpayable",
      "type": "function"
    },
    {
      "inputs": [],
      "name": "renounceOwnership",
      "outputs": [],
      "stateMutability": "nonpayable",
      "type": "function"
    },
    {
      "inputs": [
        {
          "internalType": "string",
          "name": "sourceText",
          "type": "string"
        },
        {
          "internalType": "enum XULTranslator.Language",
          "name": "sourceLang",
          "type": "uint8"
        },
        {
          "internalType": "enum XULTranslator.Language",
          "name": "targetLang",
          "type": "uint8"
        },
        {
          "internalType": "uint256",
          "name": "reward",
          "type": "uint256"
        },
        {
          "internalType": "uint256",
          "name": "deadline",
          "type": "uint256"
        }
      ],
      "name": "requestTranslation",
      "outputs": [
        {
          "internalType": "uint256",
          "name": "",
          "type": "uint256"
        }
      ],
      "stateMutability": "nonpayable",
      "type": "function"
    },
    {
      "inputs": [
        {
          "internalType": "uint256",
          "name": "",
          "type": "uint256"
        }
      ],
      "name": "requests",
      "outputs": [
        {
          "internalType": "uint256",
          "name": "id",
          "type": "uint256"
        },
        {
          "internalType": "address",
          "name": "requester",
          "type": "address"
        },
        {
          "internalType": "string",
          "name": "sourceText",
          "type": "string"
        },
        {
          "internalType": "enum XULTranslator.Language",
          "name": "sourceLang",
          "type": "uint8"
        },
        {
          "internalType": "enum XULTranslator.Language",
          "name": "targetLang",
          "type": "uint8"
        },
        {
          "internalType": "uint256",
          "name": "reward",
          "type": "uint256"
        },
        {
          "internalType": "uint256",
          "name": "deadline",
          "type": "uint256"
        },
        {
          "internalType": "enum XULTranslator.TranslationStatus",
          "name": "status",
          "type": "uint8"
        },
        {
          "internalType": "string",
          "name": "translation",
          "type": "string"
        },
        {
          "internalType": "address",
          "name": "translator",
          "type": "address"
        },
        {
          "internalType": "uint256",
          "name": "qualityScore",
          "type": "uint256"
        },
        {
          "internalType": "bytes32",
          "name": "aiProof",
          "type": "bytes32"
        }
      ],
      "stateMutability": "view",
      "type": "function"
    },
    {
      "inputs": [
        {
          "internalType": "uint256",
          "name": "requestId",
          "type": "uint256"
        },
        {
          "internalType": "bool",
          "name": "favorTranslator",
          "type": "bool"
        },
        {
          "internalType": "uint256",
          "name": "translatorShare",
          "type": "uint256"
        }
      ],
      "name": "resolveDispute",
      "outputs": [],
      "stateMutability": "nonpayable",
      "type": "function"
    },
    {
      "inputs": [],
      "name": "rewardToken",
      "outputs": [
        {
          "internalType": "contract IERC20",
          "name": "",
          "type": "address"
        }
      ],
      "stateMutability": "view",
      "type": "function"
    },
    {
      "inputs": [
        {
          "internalType": "uint256",
          "name": "_minReward",
          "type": "uint256"
        }
      ],
      "name": "setMinReward",
      "outputs": [],
      "stateMutability": "nonpayable",
      "type": "function"
    },
    {
      "inputs": [
        {
          "internalType": "uint256",
          "name": "_fee",
          "type": "uint256"
        }
      ],
      "name": "setPlatformFee",
      "outputs": [],
      "stateMutability": "nonpayable",
      "type": "function"
    },
    {
      "inputs": [
        {
          "internalType": "uint256",
          "name": "requestId",
          "type": "uint256"
        },
        {
          "internalType": "string",
          "name": "translation",
          "type": "string"
        }
      ],
      "name": "submitTranslation",
      "outputs": [],
      "stateMutability": "nonpayable",
      "type": "function"
    },
    {
      "inputs": [],
      "name": "totalVolume",
      "outputs": [
        {
          "internalType": "uint256",
          "name": "",
          "type": "uint256"
        }
      ],
      "stateMutability": "view",
      "type": "function"
    },
    {
      "inputs": [
        {
          "internalType": "address",
          "name": "newOwner",
          "type": "address"
        }
      ],
      "name": "transferOwnership",
      "outputs": [],
      "stateMutability": "nonpayable",
      "type": "function"
    },
    {
      "inputs": [
        {
          "internalType": "address",
          "name": "",
          "type": "address"
        }
      ],
      "name": "translators",
      "outputs": [
        {
          "internalType": "address",
          "name": "wallet",
          "type": "address"
        },
        {
          "internalType": "uint256",
          "name": "reputation",
          "type": "uint256"
        },
        {
          "internalType": "uint256",
          "name": "completedJobs",
          "type": "uint256"
        },
        {
          "internalType": "uint256",
          "name": "totalEarned",
          "type": "uint256"
        },
        {
          "internalType": "bool",
          "name": "isVerified",
          "type": "bool"
        },
        {
          "internalType": "bool",
          "name": "isActive",
          "type": "bool"
        }
      ],
      "stateMutability": "view",
      "type": "function"
    },
    {
      "inputs": [
        {
          "internalType": "uint256",
          "name": "requestId",
          "type": "uint256"
        },
        {
          "internalType": "uint256",
          "name": "qualityScore",
          "type": "uint256"
        },
        {
          "internalType": "bytes32",
          "name": "aiProof",
          "type": "bytes32"
        }
      ],
      "name": "verifyTranslation",
      "outputs": [],
      "stateMutability": "nonpayable",
      "type": "function"
    },
    {
      "inputs": [
        {
          "internalType": "address",
          "name": "translator",
          "type": "address"
        },
        {
          "internalType": "bool",
          "name": "verified",
          "type": "bool"
        }
      ],
      "name": "verifyTranslator",
      "outputs": [],
      "stateMutability": "nonpayable",
      "type": "function"
    }
  ],
  "bytecode": "0x60a060405234801561001057600080fd5b5060405161345738038061345783398101604081905261002f916102ec565b6100383361029c565b6001600160a01b0381166080908152670de0b6b3a7640000600655600560078190556040805160c0810182529283018281526411d4150b4d60da1b60a085015283528051808201825260028152611d8d60f21b602082810191909152840152605f908301526001606083018190528154908101825560009190915281516004909102600080516020613437833981519152019081906100d790826103bb565b50602082015160018201906100ec90826103bb565b506040828101516002808401919091556060938401516003909301805493151560ff1990941693909317909255805160c08101825260066080820190815265436c6175646560d01b60a083015281528151808301835292835261763360f01b602084810191909152810192909252605e908201526001918101829052600580549283018155600052805190916004026000805160206134378339815191520190819061019890826103bb565b50602082015160018201906101ad90826103bb565b506040828101516002808401919091556060938401516003909301805493151560ff1990941693909317909255805160c081018252600560808201818152641119595c1360da1b60a084015282528251808401845293845261763160f01b602085810191909152820193909352605c91810191909152600192810183905281549283018255600091909152805190916004026000805160206134378339815191520190819061025c90826103bb565b506020820151600182019061027190826103bb565b50604082015160028201556060909101516003909101805460ff191691151591909117905550610479565b600080546001600160a01b038381166001600160a01b0319831681178455604051919092169283917f8be0079c531659141344cd1fd0a4f28419497f9722a3daafe3b4186f6b6457e09190a35050565b6000602082840312156102fe57600080fd5b81516001600160a01b038116811461031557600080fd5b9392505050565b634e487b7160e01b600052604160045260246000fd5b600181811c9082168061034657607f821691505b60208210810361036657634e487b7160e01b600052602260045260246000fd5b50919050565b601f8211156103b657806000526020600020601f840160051c810160208510156103935750805b601f840160051c820191505b818110156103b3576000815560010161039f565b50505b505050565b81516001600160401b038111156103d4576103d461031c565b6103e8816103e28454610332565b8461036c565b6020601f82116001811461041c57600083156104045750848201515b600019600385901b1c1916600184901b1784556103b3565b600084815260208120601f198516915b8281101561044c578785015182556020948501946001909201910161042c565b508482101561046a5786840151600019600387901b60f8161c191681555b50505050600190811b01905550565b608051612f796104be6000396000818161046a0152818161097f01528181611024015281816118ec01528181611c4d01528181611ca30152611ceb0152612f796000f3fe608060405234801561001057600080fd5b50600436106101a95760003560e01c806390f7b710116100f9578063c9ec70c111610097578063f2fde38b11610071578063f2fde38b14610452578063f7c618c114610465578063f82ac7bb1461048c578063faa022b31461049f57600080fd5b8063c9ec70c11461039d578063cbb96b00146103b0578063e6e946c21461043f57600080fd5b8063ba16d600116100d3578063ba16d60014610341578063bdfa1dfa1461034a578063c36cd1961461036a578063c58343ef1461037d57600080fd5b806390f7b71014610308578063a457af5a1461031b578063b6a1cb2b1461032e57600080fd5b80635f81a57c1161016657806371b907641161014057806371b907641461026557806381d12c5814610285578063899e62d4146102b05780638da5cb5b146102e357600080fd5b80635f81a57c146102415780636e6d10e11461024a578063715018a61461025d57600080fd5b806312e8e2c3146101ae5780631ece5fd0146101c35780631ed08a62146101e157806326232a2e146101f45780632fccd2141461020b57806335af48931461022e575b600080fd5b6101c16101bc366004612502565b6104b2565b005b6101cb610504565b6040516101d8919061256b565b60405180910390f35b6101c16101ef366004612629565b6106a6565b6101fd60075481565b6040519081526020016101d8565b61021e610219366004612502565b6106d2565b6040516101d89493929190612644565b6101c161023c366004612690565b610826565b6101fd60085481565b6101c1610258366004612710565b61085c565b6101c16109de565b610278610273366004612629565b6109f2565b6040516101d89190612798565b610298610293366004612502565b610b1e565b6040516101d89c9b9a99989796959493929190612856565b6102d36102be366004612629565b60046020526000908152604090205460ff1681565b60405190151581526020016101d8565b6000546001600160a01b03165b6040516001600160a01b0390911681526020016101d8565b6101c16103163660046128f8565b610cac565b6101c1610329366004612971565b610da5565b6101c161033c366004612502565b6110ca565b6101fd60065481565b61035d6103583660046129ac565b6110d7565b6040516101d891906129c7565b6101c16103783660046129da565b6114ad565b61039061038b366004612502565b611615565b6040516101d89190612a26565b6101fd6103ab366004612b18565b611858565b6104046103be366004612629565b6003602081905260009182526040909120805460018201546002830154938301546005909301546001600160a01b03909216939092909160ff8082169161010090041686565b604080516001600160a01b039097168752602087019590955293850192909252606084015215156080830152151560a082015260c0016101d8565b6101c161044d366004612b8f565b611b8e565b6101c1610460366004612629565b611d28565b6102f07f000000000000000000000000000000000000000000000000000000000000000081565b6101c161049a366004612bc7565b611da1565b6101c16104ad366004612502565b611f17565b6104ba611ff3565b60148111156104ff5760405162461bcd60e51b815260206004820152600c60248201526b08ccaca40e8dede40d0d2ced60a31b60448201526064015b60405180910390fd5b600755565b60606005805480602002602001604051908101604052809291908181526020016000905b8282101561069d578382906000526020600020906004020160405180608001604052908160008201805461055b90612c3e565b80601f016020809104026020016040519081016040528092919081815260200182805461058790612c3e565b80156105d45780601f106105a9576101008083540402835291602001916105d4565b820191906000526020600020905b8154815290600101906020018083116105b757829003601f168201915b505050505081526020016001820180546105ed90612c3e565b80601f016020809104026020016040519081016040528092919081815260200182805461061990612c3e565b80156106665780601f1061063b57610100808354040283529160200191610666565b820191906000526020600020905b81548152906001019060200180831161064957829003601f168201915b5050509183525050600282015460208083019190915260039092015460ff1615156040909101529082526001929092019101610528565b50505050905090565b6106ae611ff3565b6001600160a01b03166000908152600460205260409020805460ff19166001179055565b600581815481106106e257600080fd5b906000526020600020906004020160009150905080600001805461070590612c3e565b80601f016020809104026020016040519081016040528092919081815260200182805461073190612c3e565b801561077e5780601f106107535761010080835404028352916020019161077e565b820191906000526020600020905b81548152906001019060200180831161076157829003601f168201915b50505050509080600101805461079390612c3e565b80601f01602080910402602001604051908101604052809291908181526020018280546107bf90612c3e565b801561080c5780601f106107e15761010080835404028352916020019161080c565b820191906000526020600020905b8154815290600101906020018083116107ef57829003601f168201915b50505050600283015460039093015491929160ff16905084565b61082e611ff3565b6001600160a01b03919091166000908152600360205260409020600501805460ff1916911515919091179055565b3360009081526004602052604090205460ff166108ad5760405162461bcd60e51b815260206004820152600f60248201526e2737ba1020a4903b32b934b334b2b960891b60448201526064016104f6565b60008581526002602052604081206006015460ff1660058111156108d3576108d361276e565b1461090e5760405162461bcd60e51b815260206004820152600b60248201526a4e6f742070656e64696e6760a81b60448201526064016104f6565b60008581526002602052604090206007810161092b858783612cdc565b50600a81018390556009810182905560068101805460ff19166002179055600481015460009060649061095f90605a612db2565b6109699190612dcf565b60018301549091506109a8906001600160a01b037f0000000000000000000000000000000000000000000000000000000000000000811691168361204d565b604051339088907fe7813d662d91e0423503043c92ffacf6a83b1a34d61cc119249f2b8ab9d024e590600090a350505050505050565b6109e6611ff3565b6109f060006120b5565b565b6040805160e0810182526000808252602082018190529181018290526060808201839052608082015260a0810182905260c08101919091526001600160a01b03808316600090815260036020818152604092839020835160e08101855281549095168552600181015485830152600281015485850152918201546060850152600482018054845181840281018401909552808552929360808601939092830182828015610aee57602002820191906000526020600020906000905b82829054906101000a900460ff16600e811115610acc57610acc61276e565b815260206001928301818104948501949093039092029101808411610aad5790505b50505091835250506005919091015460ff8082161515602084015261010090910416151560409091015292915050565b600260208190526000918252604090912080546001820154928201805491936001600160a01b03169291610b5190612c3e565b80601f0160208091040260200160405190810160405280929190818152602001828054610b7d90612c3e565b8015610bca5780601f10610b9f57610100808354040283529160200191610bca565b820191906000526020600020905b815481529060010190602001808311610bad57829003601f168201915b505050506003830154600484015460058501546006860154600787018054969760ff80871698610100909704811697509495939490921692610c0b90612c3e565b80601f0160208091040260200160405190810160405280929190818152602001828054610c3790612c3e565b8015610c845780601f10610c5957610100808354040283529160200191610c84565b820191906000526020600020905b815481529060010190602001808311610c6757829003601f168201915b5050505060088301546009840154600a9094015492936001600160a01b03909116929091508c565b610cb4611ff3565b6040805160a06020601f88018190040282018101909252608081018681526005928291908990899081908501838280828437600092019190915250505090825250604080516020601f880181900481028201810190925286815291810191908790879081908401838280828437600092018290525093855250505060208083018690526001604090930183905284549283018555938152929092208151919260040201908190610d649082612df1565b5060208201516001820190610d799082612df1565b50604082015160028201556060909101516003909101805460ff19169115159190911790555050505050565b3360009081526004602052604090205460ff1680610dcd57506000546001600160a01b031633145b610e085760405162461bcd60e51b815260206004820152600c60248201526b2737ba103b32b934b334b2b960a11b60448201526064016104f6565b600160008481526002602052604090206006015460ff166005811115610e3057610e3061276e565b14610e6f5760405162461bcd60e51b815260206004820152600f60248201526e4e6f7420696e2070726f677265737360881b60448201526064016104f6565b60008381526002602052604090206064831115610ebe5760405162461bcd60e51b815260206004820152600d60248201526c496e76616c69642073636f726560981b60448201526064016104f6565b60098101839055600a810182905560068101805460ff1916600317905560088101546001600160a01b03161561108a57600060646007548360040154610f049190612db2565b610f0e9190612dcf565b90506000818360040154610f229190612eb0565b9050605a8510610f4a576064610f3982606e612db2565b610f439190612dcf565b9050610f6d565b6046851015610f6d576064610f60826050612db2565b610f6a9190612dcf565b90505b60088301546001600160a01b031660009081526003602081905260408220018054839290610f9c908490612ec3565b909155505060088301546001600160a01b03166000908152600360205260408120600201805491610fcc83612ed6565b90915550610fdd9050600a86612dcf565b60088401546001600160a01b03166000908152600360205260408120600101805490919061100c908490612ec3565b9091555050600883015461104d906001600160a01b037f0000000000000000000000000000000000000000000000000000000000000000811691168361204d565b857feaf3d57629d9b1ce95715ccd98d6f5bf48023be1d5a06e09f64ab7f6d8be01d58260405161107f91815260200190565b60405180910390a250505b837f35e14e3332f9fb88b87f3ac4d0552744eb6cb6ca5b861ea8472d499ee6ff7104846040516110bc91815260200190565b60405180910390a250505050565b6110d2611ff3565b600655565b6060600082600e8111156110ed576110ed61276e565b03611114575050604080518082019091526006815265e4b8ade6968760d01b602082015290565b600182600e8111156111285761112861276e565b0361115057505060408051808201909152600781526608adcced8d2e6d60cb1b602082015290565b600282600e8111156111645761116461276e565b0361118e575050604080518082019091526009815268734bd2f34e5674554f60b91b602082015290565b600382600e8111156111a2576111a261276e565b036111cc5750506040805180820190915260098152683b65673aad6b7b25ad60ba1b602082015290565b600482600e8111156111e0576111e061276e565b036112095750506040805180820190915260088152674672616e6361697360c01b602082015290565b600582600e81111561121d5761121d61276e565b03611245575050604080518082019091526007815266088caeae8e6c6d60cb1b602082015290565b600682600e8111156112595761125961276e565b03611281575050604080518082019091526007815266115cdc185b9bdb60ca1b602082015290565b600782600e8111156112955761129561276e565b036112c457505060408051808201909152600e81526dd0a0d183d181d181d0bad0b8d0b960901b602082015290565b600882600e8111156112d8576112d861276e565b0361130757505060408051808201909152600e81526dd8a7d984d8b9d8b1d8a8d98ad8a960901b602082015290565b600982600e81111561131b5761131b61276e565b03611345575050604080518082019091526009815268506f7274756775657360b81b602082015290565b600a82600e8111156113595761135961276e565b036113825750506040805180820190915260088152674974616c69616e6f60c01b602082015290565b600b82600e8111156113965761139661276e565b036113c557505060408051808201909152600e81526d151a786eafdb99c8159a786ee1dd60921b602082015290565b600c82600e8111156113d9576113d961276e565b03611403575050604080518082019091526009815268705cc2705c4bf05c5160b91b602082015290565b600d82600e8111156114175761141761276e565b0361144857505060408051808201909152601081526f42616861736120496e646f6e6573696160801b602082015290565b600e82600e81111561145c5761145c61276e565b0361148a57505060408051808201909152600d81526c426168617361204d656c61797560981b602082015290565b50506040805180820190915260078152662ab735b737bbb760c91b602082015290565b33600090815260036020526040902060050154610100900460ff1661150c5760405162461bcd60e51b81526020600482015260156024820152742737ba1030b1ba34bb32903a3930b739b630ba37b960591b60448201526064016104f6565b60008381526002602052604081206006015460ff1660058111156115325761153261276e565b14806115635750600160008481526002602052604090206006015460ff1660058111156115615761156161276e565b145b6115a05760405162461bcd60e51b815260206004820152600e60248201526d496e76616c69642073746174757360901b60448201526064016104f6565b6000838152600260205260409020600781016115bd838583612cdc565b506008810180546001600160a01b0319163390811790915560068201805460ff1916600117905560405185907fe7813d662d91e0423503043c92ffacf6a83b1a34d61cc119249f2b8ab9d024e590600090a350505050565b61161d6123ac565b6000828152600260208181526040928390208351610180810185528154815260018201546001600160a01b0316928101929092529182018054919384019161166490612c3e565b80601f016020809104026020016040519081016040528092919081815260200182805461169090612c3e565b80156116dd5780601f106116b2576101008083540402835291602001916116dd565b820191906000526020600020905b8154815290600101906020018083116116c057829003601f168201915b5050509183525050600382015460209091019060ff16600e8111156117045761170461276e565b600e8111156117155761171561276e565b81526020016003820160019054906101000a900460ff16600e81111561173d5761173d61276e565b600e81111561174e5761174e61276e565b8152600482015460208201526005808301546040830152600683015460609092019160ff16908111156117835761178361276e565b60058111156117945761179461276e565b81526020016007820180546117a890612c3e565b80601f01602080910402602001604051908101604052809291908181526020018280546117d490612c3e565b80156118215780601f106117f657610100808354040283529160200191611821565b820191906000526020600020905b81548152906001019060200180831161180457829003601f168201915b505050918352505060088201546001600160a01b0316602082015260098201546040820152600a9091015460609091015292915050565b600060065483101561189d5760405162461bcd60e51b815260206004820152600e60248201526d52657761726420746f6f206c6f7760901b60448201526064016104f6565b4282116118df5760405162461bcd60e51b815260206004820152601060248201526f496e76616c696420646561646c696e6560801b60448201526064016104f6565b6119146001600160a01b037f000000000000000000000000000000000000000000000000000000000000000016333086612105565b600180546000918261192583612ed6565b919050559050604051806101800160405280828152602001336001600160a01b0316815260200189898080601f01602080910402602001604051908101604052809392919081815260200183838082843760009201919091525050509082525060200187600e81111561199a5761199a61276e565b815260200186600e8111156119b1576119b161276e565b8152602081018690526040810185905260600160008152604080516020808201835260008083528185019290925282840182905260608401829052608090930181905284815260028084529082902084518155928401516001840180546001600160a01b0319166001600160a01b039092169190911790559083015190820190611a3b9082612df1565b50606082015160038201805460ff1916600183600e811115611a5f57611a5f61276e565b0217905550608082015160038201805461ff00191661010083600e811115611a8957611a8961276e565b021790555060a0820151816004015560c0820151816005015560e08201518160060160006101000a81548160ff02191690836005811115611acc57611acc61276e565b02179055506101008201516007820190611ae69082612df1565b506101208201518160080160006101000a8154816001600160a01b0302191690836001600160a01b03160217905550610140820151816009015561016082015181600a01559050508360086000828254611b409190612ec3565b9091555050604051339082907fc11e5906249773ca0781a5088f0d7137f92391b4fb08068ff2a5de9d9f86b9c490611b7b908a908a90612eef565b60405180910390a3979650505050505050565b611b96611ff3565b60008381526002602052604090206004600682015460ff166005811115611bbf57611bbf61276e565b14611bfb5760405162461bcd60e51b815260206004820152600c60248201526b139bdd08191a5cdc1d5d195960a21b60448201526064016104f6565b828015611c14575060088101546001600160a01b031615155b15611cd35760006064838360040154611c2d9190612db2565b611c379190612dcf565b6008830154909150611c76906001600160a01b037f0000000000000000000000000000000000000000000000000000000000000000811691168361204d565b6000818360040154611c889190612eb0565b90508015611ccc576001830154611ccc906001600160a01b037f0000000000000000000000000000000000000000000000000000000000000000811691168361204d565b5050611d15565b60018101546004820154611d15916001600160a01b037f000000000000000000000000000000000000000000000000000000000000000081169291169061204d565b600601805460ff19166005179055505050565b611d30611ff3565b6001600160a01b038116611d955760405162461bcd60e51b815260206004820152602660248201527f4f776e61626c653a206e6577206f776e657220697320746865207a65726f206160448201526564647265737360d01b60648201526084016104f6565b611d9e816120b5565b50565b80611de15760405162461bcd60e51b815260206004820152601060248201526f4e656564207370656369616c7469657360801b60448201526064016104f6565b6040518060e00160405280336001600160a01b031681526020016032815260200160008152602001600081526020018383808060200260200160405190810160405280939291908181526020018383602002808284376000920182905250938552505050602080830182905260016040938401819052338352600380835292849020855181546001600160a01b0319166001600160a01b03909116178155858301519181019190915592840151600284015560608401519183019190915560808301518051611eb69260048501920190612439565b5060a08201516005909101805460c09093015115156101000261ff00199215159290921661ffff199093169290921717905560405133907f6cf50193a3d145356cb1164f98a1aeafb1fd80b86eefbe3a2a912658a528163d90600090a25050565b6000818152600260205260409020600101546001600160a01b03163314611f705760405162461bcd60e51b815260206004820152600d60248201526c2737ba103932b8bab2b9ba32b960991b60448201526064016104f6565b600260008281526002602052604090206006015460ff166005811115611f9857611f9861276e565b14611fd55760405162461bcd60e51b815260206004820152600d60248201526c139bdd0818dbdb5c1b195d1959609a1b60448201526064016104f6565b6000908152600260205260409020600601805460ff19166004179055565b6000546001600160a01b031633146109f05760405162461bcd60e51b815260206004820181905260248201527f4f776e61626c653a2063616c6c6572206973206e6f7420746865206f776e657260448201526064016104f6565b6040516001600160a01b0383166024820152604481018290526120b090849063a9059cbb60e01b906064015b60408051601f198184030181529190526020810180516001600160e01b03166001600160e01b031990931692909217909152612143565b505050565b600080546001600160a01b038381166001600160a01b0319831681178455604051919092169283917f8be0079c531659141344cd1fd0a4f28419497f9722a3daafe3b4186f6b6457e09190a35050565b6040516001600160a01b038085166024830152831660448201526064810182905261213d9085906323b872dd60e01b90608401612079565b50505050565b6000612198826040518060400160405280602081526020017f5361666545524332303a206c6f772d6c6576656c2063616c6c206661696c6564815250856001600160a01b03166122189092919063ffffffff16565b90508051600014806121b95750808060200190518101906121b99190612f0a565b6120b05760405162461bcd60e51b815260206004820152602a60248201527f5361666545524332303a204552433230206f7065726174696f6e20646964206e6044820152691bdd081cdd58d8d9595960b21b60648201526084016104f6565b60606122278484600085612231565b90505b9392505050565b6060824710156122925760405162461bcd60e51b815260206004820152602660248201527f416464726573733a20696e73756666696369656e742062616c616e636520666f6044820152651c8818d85b1b60d21b60648201526084016104f6565b600080866001600160a01b031685876040516122ae9190612f27565b60006040518083038185875af1925050503d80600081146122eb576040519150601f19603f3d011682016040523d82523d6000602084013e6122f0565b606091505b50915091506123018783838761230e565b925050505b949350505050565b6060831561237d578251600003612376576001600160a01b0385163b6123765760405162461bcd60e51b815260206004820152601d60248201527f416464726573733a2063616c6c20746f206e6f6e2d636f6e747261637400000060448201526064016104f6565b5081612306565b61230683838151156123925781518083602001fd5b8060405162461bcd60e51b81526004016104f691906129c7565b6040518061018001604052806000815260200160006001600160a01b03168152602001606081526020016000600e8111156123e9576123e961276e565b8152602001600081526020016000815260200160008152602001600060058111156124165761241661276e565b815260606020820181905260006040830181905290820181905260809091015290565b82805482825590600052602060002090601f016020900481019282156124dd5791602002820160005b838211156124ae57835183826101000a81548160ff0219169083600e81111561248d5761248d61276e565b02179055509260200192600101602081600001049283019260010302612462565b80156124db5782816101000a81549060ff02191690556001016020816000010492830192600103026124ae565b505b506124e99291506124ed565b5090565b5b808211156124e957600081556001016124ee565b60006020828403121561251457600080fd5b5035919050565b60005b8381101561253657818101518382015260200161251e565b50506000910152565b6000815180845261255781602086016020860161251b565b601f01601f19169290920160200192915050565b6000602082016020835280845180835260408501915060408160051b86010192506020860160005b8281101561260157603f1987860301845281518051608087526125b9608088018261253f565b9050602082015187820360208901526125d2828261253f565b604084810151908a01526060938401511515939098019290925250506020938401939190910190600101612593565b50929695505050505050565b80356001600160a01b038116811461262457600080fd5b919050565b60006020828403121561263b57600080fd5b61222a8261260d565b608081526000612657608083018761253f565b8281036020840152612669818761253f565b6040840195909552505090151560609091015292915050565b8015158114611d9e57600080fd5b600080604083850312156126a357600080fd5b6126ac8361260d565b915060208301356126bc81612682565b809150509250929050565b60008083601f8401126126d957600080fd5b50813567ffffffffffffffff8111156126f157600080fd5b60208301915083602082850101111561270957600080fd5b9250929050565b60008060008060006080868803121561272857600080fd5b85359450602086013567ffffffffffffffff81111561274657600080fd5b612752888289016126c7565b9699909850959660408101359660609091013595509350505050565b634e487b7160e01b600052602160045260246000fd5b600f81106127945761279461276e565b9052565b602081526000610100820160018060a01b038451166020840152602084015160408401526040840151606084015260608401516080840152608084015160e060a085015281815180845261012086019150602083019350600092505b8083101561281e57612807828551612784565b6020820191506020840193506001830192506127f4565b5060a086015180151560c0870152925060c086015180151560e0870152925095945050505050565b600681106127945761279461276e565b8c81526001600160a01b038c166020820152610180604082018190526000906128819083018d61253f565b61288e606084018d612784565b61289b608084018c612784565b8960a08401528860c08401526128b460e0840189612846565b8281036101008401526128c7818861253f565b6001600160a01b03969096166101208401525050610140810192909252610160909101529998505050505050505050565b60008060008060006060868803121561291057600080fd5b853567ffffffffffffffff81111561292757600080fd5b612933888289016126c7565b909650945050602086013567ffffffffffffffff81111561295357600080fd5b61295f888289016126c7565b96999598509660400135949350505050565b60008060006060848603121561298657600080fd5b505081359360208301359350604090920135919050565b8035600f811061262457600080fd5b6000602082840312156129be57600080fd5b61222a8261299d565b60208152600061222a602083018461253f565b6000806000604084860312156129ef57600080fd5b83359250602084013567ffffffffffffffff811115612a0d57600080fd5b612a19868287016126c7565b9497909650939450505050565b602081528151602082015260006020830151612a4d60408401826001600160a01b03169052565b5060408301516101806060840152612a696101a084018261253f565b90506060840151612a7d6080850182612784565b506080840151612a9060a0850182612784565b5060a084015160c084015260c084015160e084015260e0840151612ab8610100850182612846565b50610100840151838203601f1901610120850152612ad6828261253f565b915050610120840151612af56101408501826001600160a01b03169052565b506101408401516101608401526101608401516101808401528091505092915050565b60008060008060008060a08789031215612b3157600080fd5b863567ffffffffffffffff811115612b4857600080fd5b612b5489828a016126c7565b9097509550612b6790506020880161299d565b9350612b756040880161299d565b959894975092956060810135946080909101359350915050565b600080600060608486031215612ba457600080fd5b833592506020840135612bb681612682565b929592945050506040919091013590565b60008060208385031215612bda57600080fd5b823567ffffffffffffffff811115612bf157600080fd5b8301601f81018513612c0257600080fd5b803567ffffffffffffffff811115612c1957600080fd5b8560208260051b8401011115612c2e57600080fd5b6020919091019590945092505050565b600181811c90821680612c5257607f821691505b602082108103612c7257634e487b7160e01b600052602260045260246000fd5b50919050565b634e487b7160e01b600052604160045260246000fd5b601f8211156120b057806000526020600020601f840160051c81016020851015612cb55750805b601f840160051c820191505b81811015612cd55760008155600101612cc1565b5050505050565b67ffffffffffffffff831115612cf457612cf4612c78565b612d0883612d028354612c3e565b83612c8e565b6000601f841160018114612d3c5760008515612d245750838201355b600019600387901b1c1916600186901b178355612cd5565b600083815260209020601f19861690835b82811015612d6d5786850135825560209485019460019092019101612d4d565b5086821015612d8a5760001960f88860031b161c19848701351681555b505060018560011b0183555050505050565b634e487b7160e01b600052601160045260246000fd5b8082028115828204841417612dc957612dc9612d9c565b92915050565b600082612dec57634e487b7160e01b600052601260045260246000fd5b500490565b815167ffffffffffffffff811115612e0b57612e0b612c78565b612e1f81612e198454612c3e565b84612c8e565b6020601f821160018114612e535760008315612e3b5750848201515b600019600385901b1c1916600184901b178455612cd5565b600084815260208120601f198516915b82811015612e835787850151825560209485019460019092019101612e63565b5084821015612ea15786840151600019600387901b60f8161c191681555b50505050600190811b01905550565b81810381811115612dc957612dc9612d9c565b80820180821115612dc957612dc9612d9c565b600060018201612ee857612ee8612d9c565b5060010190565b60408101612efd8285612784565b61222a6020830184612784565b600060208284031215612f1c57600080fd5b815161222a81612682565b60008251612f3981846020870161251b565b919091019291505056fea264697066735822122061b2f433ad11f6b18e433217f3186556f2043f3ac44a285705c735c813a1778b64736f6c634300081c0033036b6384b5eca791c62761152d0c79bb0604c104a5fb6f4eb0703f3154bb3db0",
  "linkReferences": {},
  "deployedLinkReferences": {}
}