{
  "_format": "hh-sol-artifact-1",
  "contractName": "XULSwapRouter",
  "sourceName": "contracts/XULSwapRouter.sol",
  "abi": [
    {
      "inputs": [
        {
          "internalType": "address",
          "name": "_factory",
          "type": "address"
        },
        {
          "internalType": "address",
          "name": "_WXUL",
          "type": "address"
        }
      ],
      "stateMutability": "nonpayable",
      "type": "constructor"
    },
    {
      "inputs": [],
      "name": "WXUL",
      "outputs": [
        {
          "internalType": "address",
          "name": "",
          "type": "address"
        }
      ],
      "stateMutability": "view",
      "type": "function"
    },
    {
      "inputs": [
        {
          "internalType": "address",
          "name": "tokenA",
          "type": "address"
        },
        {
          "internalType": "address",
          "name": "tokenB",
          "type": "address"
        },
        {
          "internalType": "uint256",
          "name": "amountADesired",
          "type": "uint256"
        },
        {
          "internalType": "uint256",
          "name": "amountBDesired",
          "type": "uint256"
        },
        {
          "internalType": "uint256",
          "name": "amountAMin",
          "type": "uint256"
        },
        {
          "internalType": "uint256",
          "name": "amountBMin",
          "type": "uint256"
        },
        {
          "internalType": "address",
          "name": "to",
          "type": "address"
        },
        {
          "internalType": "uint256",
          "name": "deadline",
          "type": "uint256"
        }
      ],
      "name": "addLiquidity",
      "outputs": [
        {
          "internalType": "uint256",
          "name": "amountA",
          "type": "uint256"
        },
        {
          "internalType": "uint256",
          "name": "amountB",
          "type": "uint256"
        },
        {
          "internalType": "uint256",
          "name": "liquidity",
          "type": "uint256"
        }
      ],
      "stateMutability": "nonpayable",
      "type": "function"
    },
    {
      "inputs": [],
      "name": "factory",
      "outputs": [
        {
          "internalType": "address",
          "name": "",
          "type": "address"
        }
      ],
      "stateMutability": "view",
      "type": "function"
    },
    {
      "inputs": [
        {
          "internalType": "uint256",
          "name": "amountIn",
          "type": "uint256"
        },
        {
          "internalType": "address",
          "name": "pair",
          "type": "address"
        }
      ],
      "name": "getAmountOut",
      "outputs": [
        {
          "internalType": "uint256",
          "name": "",
          "type": "uint256"
        }
      ],
      "stateMutability": "view",
      "type": "function"
    },
    {
      "inputs": [
        {
          "internalType": "uint256",
          "name": "amountIn",
          "type": "uint256"
        },
        {
          "internalType": "address[]",
          "name": "path",
          "type": "address[]"
        }
      ],
      "name": "getAmountsOut",
      "outputs": [
        {
          "internalType": "uint256[]",
          "name": "",
          "type": "uint256[]"
        }
      ],
      "stateMutability": "view",
      "type": "function"
    },
    {
      "inputs": [
        {
          "internalType": "address",
          "name": "tokenA",
          "type": "address"
        },
        {
          "internalType": "address",
          "name": "tokenB",
          "type": "address"
        },
        {
          "internalType": "uint256",
          "name": "liquidity",
          "type": "uint256"
        },
        {
          "internalType": "uint256",
          "name": "amountAMin",
          "type": "uint256"
        },
        {
          "internalType": "uint256",
          "name": "amountBMin",
          "type": "uint256"
        },
        {
          "internalType": "address",
          "name": "to",
          "type": "address"
        },
        {
          "internalType": "uint256",
          "name": "deadline",
          "type": "uint256"
        }
      ],
      "name": "removeLiquidity",
      "outputs": [
        {
          "internalType": "uint256",
          "name": "amountA",
          "type": "uint256"
        },
        {
          "internalType": "uint256",
          "name": "amountB",
          "type": "uint256"
        }
      ],
      "stateMutability": "nonpayable",
      "type": "function"
    },
    {
      "inputs": [
        {
          "internalType": "uint256",
          "name": "amountIn",
          "type": "uint256"
        },
        {
          "internalType": "uint256",
          "name": "amountOutMin",
          "type": "uint256"
        },
        {
          "internalType": "address[]",
          "name": "path",
          "type": "address[]"
        },
        {
          "internalType": "address",
          "name": "to",
          "type": "address"
        },
        {
          "internalType": "uint256",
          "name": "deadline",
          "type": "uint256"
        }
      ],
      "name": "swapExactTokensForTokens",
      "outputs": [
        {
          "internalType": "uint256[]",
          "name": "amounts",
          "type": "uint256[]"
        }
      ],
      "stateMutability": "nonpayable",
      "type": "function"
    }
  ],
  "bytecode": "0x6080604052348015600f57600080fd5b506040516111e63803806111e6833981016040819052602c916077565b600080546001600160a01b039384166001600160a01b0319918216179091556001805492909316911617905560a5565b80516001600160a01b0381168114607257600080fd5b919050565b60008060408385031215608957600080fd5b609083605c565b9150609c60208401605c565b90509250929050565b611132806100b46000396000f3fe608060405234801561001057600080fd5b506004361061007d5760003560e01c8063d06ca61f1161005b578063d06ca61f146100fe578063e8e3370014610111578063f140a35a1461013f578063f1efe19a1461016057600080fd5b806338ed173914610082578063baa2abde146100ab578063c45a0155146100d3575b600080fd5b610095610090366004610c4c565b610173565b6040516100a29190610cf2565b60405180910390f35b6100be6100b9366004610d35565b610480565b604080519283526020830191909152016100a2565b6000546100e6906001600160a01b031681565b6040516001600160a01b0390911681526020016100a2565b61009561010c366004610dbe565b61061b565b61012461011f366004610e9a565b6107ea565b604080519384526020840192909252908201526060016100a2565b61015261014d366004610f16565b610afe565b6040519081526020016100a2565b6001546100e6906001600160a01b031681565b60608367ffffffffffffffff81111561018e5761018e610da8565b6040519080825280602002602001820160405280156101b7578160200160208202803683370190505b50905086816000815181106101ce576101ce610f46565b60200260200101818152505060005b6101e8600186610f72565b8110156104755760008087878481811061020457610204610f46565b90506020020160208101906102199190610f85565b8888610226866001610fa9565b81811061023557610235610f46565b905060200201602081019061024a9190610f85565b915091506000816001600160a01b0316836001600160a01b031610610270578183610273565b82825b506000805460405163e6a4390560e01b81526001600160a01b03808516600483015286811660248301529394509192169063e6a4390590604401602060405180830381865afa1580156102ca573d6000803e3d6000fd5b505050506040513d601f19601f820116820180604052508101906102ee9190610fbc565b9050600061031587878151811061030757610307610f46565b602002602001015183610afe565b90508087610324886001610fa9565b8151811061033457610334610f46565b602002602001018181525050600080846001600160a01b0316876001600160a01b03161461036457826000610368565b6000835b91509150866001600160a01b03166323b872dd33868c8c8151811061038f5761038f610f46565b60200260200101516040518463ffffffff1660e01b81526004016103b593929190610fd9565b6020604051808303816000875af11580156103d4573d6000803e3d6000fd5b505050506040513d601f19601f820116820180604052508101906103f89190610ffd565b506040516336cd320560e11b815260048101839052602481018290526001600160a01b038c81166044830152851690636d9a640a90606401600060405180830381600087803b15801561044a57600080fd5b505af115801561045e573d6000803e3d6000fd5b5050600190990198506101dd975050505050505050565b509695505050505050565b600080600080896001600160a01b03168b6001600160a01b0316106104a657898b6104a9565b8a8a5b6000805460405163e6a4390560e01b81526001600160a01b03808616600483015280851660248301529496509294509092169063e6a4390590604401602060405180830381865afa158015610502573d6000803e3d6000fd5b505050506040513d601f19601f820116820180604052508101906105269190610fbc565b6040516323b872dd60e01b81529091506001600160a01b038216906323b872dd9061055990339085908f90600401610fd9565b6020604051808303816000875af1158015610578573d6000803e3d6000fd5b505050506040513d601f19601f8201168201806040525081019061059c9190610ffd565b5060405163226bf2d160e21b81526001600160a01b0388811660048301528216906389afcb449060240160408051808303816000875af11580156105e4573d6000803e3d6000fd5b505050506040513d601f19601f82011682018060405250810190610608919061101f565b909d909c509a5050505050505050505050565b60606000825167ffffffffffffffff81111561063957610639610da8565b604051908082528060200260200182016040528015610662578160200160208202803683370190505b509050838160008151811061067957610679610f46565b60200260200101818152505060005b600184516106969190610f72565b8110156107e0576000808583815181106106b2576106b2610f46565b6020026020010151868460016106c89190610fa9565b815181106106d8576106d8610f46565b6020026020010151915091506000816001600160a01b0316836001600160a01b031610610706578183610709565b82825b506000805460405163e6a4390560e01b81526001600160a01b03808516600483015286811660248301529394509192169063e6a4390590604401602060405180830381865afa158015610760573d6000803e3d6000fd5b505050506040513d601f19601f820116820180604052508101906107849190610fbc565b90506107a986868151811061079b5761079b610f46565b602002602001015182610afe565b866107b5876001610fa9565b815181106107c5576107c5610f46565b60209081029190910101525050600190920191506106889050565b5090505b92915050565b60008060008060008b6001600160a01b03168d6001600160a01b031610610812578b8d610815565b8c8c5b6000805460405163e6a4390560e01b81526001600160a01b03808616600483015280851660248301529496509294509092169063e6a4390590604401602060405180830381865afa15801561086e573d6000803e3d6000fd5b505050506040513d601f19601f820116820180604052508101906108929190610fbc565b90506001600160a01b038116610994576000546040516364e329cb60e11b81526001600160a01b03858116600483015284811660248301529091169063c9c65396906044016020604051808303816000875af11580156108f6573d6000803e3d6000fd5b505050506040513d601f19601f8201168201806040525081019061091a9190610fbc565b5060005460405163e6a4390560e01b81526001600160a01b03858116600483015284811660248301529091169063e6a4390590604401602060405180830381865afa15801561096d573d6000803e3d6000fd5b505050506040513d601f19601f820116820180604052508101906109919190610fbc565b90505b8d6001600160a01b03166323b872dd33838f6040518463ffffffff1660e01b81526004016109c493929190610fd9565b6020604051808303816000875af11580156109e3573d6000803e3d6000fd5b505050506040513d601f19601f82011682018060405250810190610a079190610ffd565b508c6001600160a01b03166323b872dd33838e6040518463ffffffff1660e01b8152600401610a3893929190610fd9565b6020604051808303816000875af1158015610a57573d6000803e3d6000fd5b505050506040513d601f19601f82011682018060405250810190610a7b9190610ffd565b506040516335313c2160e11b81526001600160a01b038981166004830152821690636a627842906024016020604051808303816000875af1158015610ac4573d6000803e3d6000fd5b505050506040513d601f19601f82011682018060405250810190610ae89190611043565b9b9e9a9d509a9b50989950505050505050505050565b6000806000836001600160a01b0316630902f1ac6040518163ffffffff1660e01b8152600401606060405180830381865afa158015610b41573d6000803e3d6000fd5b505050506040513d601f19601f82011682018060405250810190610b659190611073565b506001600160701b031691506001600160701b03169150600082118015610b8c5750600081115b610bd55760405162461bcd60e51b8152602060048201526016602482015275494e53554646494349454e545f4c495155494449545960501b604482015260640160405180910390fd5b6000610be3866103e56110c3565b90506000610bf183836110c3565b9050600082610c02866103e86110c3565b610c0c9190610fa9565b9050610c1881836110da565b98975050505050505050565b6001600160a01b0381168114610c3957600080fd5b50565b8035610c4781610c24565b919050565b60008060008060008060a08789031215610c6557600080fd5b8635955060208701359450604087013567ffffffffffffffff811115610c8a57600080fd5b8701601f81018913610c9b57600080fd5b803567ffffffffffffffff811115610cb257600080fd5b8960208260051b8401011115610cc757600080fd5b60209190910194509250610cdd60608801610c3c565b95989497509295919493608090920135925050565b602080825282518282018190526000918401906040840190835b81811015610d2a578351835260209384019390920191600101610d0c565b509095945050505050565b600080600080600080600060e0888a031215610d5057600080fd5b8735610d5b81610c24565b96506020880135610d6b81610c24565b955060408801359450606088013593506080880135925060a0880135610d9081610c24565b96999598509396929591949193505060c09091013590565b634e487b7160e01b600052604160045260246000fd5b60008060408385031215610dd157600080fd5b82359150602083013567ffffffffffffffff811115610def57600080fd5b8301601f81018513610e0057600080fd5b803567ffffffffffffffff811115610e1a57610e1a610da8565b8060051b604051601f19603f830116810181811067ffffffffffffffff82111715610e4757610e47610da8565b604052918252602081840181019290810188841115610e6557600080fd5b6020850194505b83851015610e8b57610e7d85610c3c565b815260209485019401610e6c565b50809450505050509250929050565b600080600080600080600080610100898b031215610eb757600080fd5b8835610ec281610c24565b97506020890135610ed281610c24565b965060408901359550606089013594506080890135935060a0890135925060c0890135610efe81610c24565b979a969950949793969295919450919260e001359150565b60008060408385031215610f2957600080fd5b823591506020830135610f3b81610c24565b809150509250929050565b634e487b7160e01b600052603260045260246000fd5b634e487b7160e01b600052601160045260246000fd5b818103818111156107e4576107e4610f5c565b600060208284031215610f9757600080fd5b8135610fa281610c24565b9392505050565b808201808211156107e4576107e4610f5c565b600060208284031215610fce57600080fd5b8151610fa281610c24565b6001600160a01b039384168152919092166020820152604081019190915260600190565b60006020828403121561100f57600080fd5b81518015158114610fa257600080fd5b6000806040838503121561103257600080fd5b505080516020909101519092909150565b60006020828403121561105557600080fd5b5051919050565b80516001600160701b0381168114610c4757600080fd5b60008060006060848603121561108857600080fd5b6110918461105c565b925061109f6020850161105c565b9150604084015163ffffffff811681146110b857600080fd5b809150509250925092565b80820281158282048414176107e4576107e4610f5c565b6000826110f757634e487b7160e01b600052601260045260246000fd5b50049056fea2646970667358221220b0972ac84b7cc0e0922a476fc3216078a69d06215feba2e1876ae8d4e4cb663764736f6c634300081c0033",
  "linkReferences": {},
  "deployedLinkReferences": {}
}